:1000000005C100000C9478080C94A3080C94CE0849
:100010000C94F9080C9424090C944F090C947A0957
:100020000C94A50923C1000021C100001FC10000DC
:100030001DC100001BC1000019C1000017C1000054
:1000400015C1000013C1000011C100000FC1000064
:100050000DC100000BC1000009C100000C94D009C3
:1000600005C100000C94B90D0C94EF0DFFC0000009
:10007000FDC00000FBC00000F9C00000F7C0000098
:10008000F5C00000F3C00000F1C00000EFC00000A8
:100090000C94450E0C947B0EE9C00000E7C00000F4
:1000A000E5C00000E3C00000E1C00000DFC00000C8
:1000B000DDC00000DBC00000D9C00000D7C00000D8
:1000C000D5C00000D3C00000FDC500000C94D10EC7
:1000D0000C94070FCBC000000C945D0F0C94930F91
:1000E000C5C0000000000A0B02090C0D0E08070332
:1000F00004010000000000000000000000000000FB
:1001000000000000000000000000000000000000EF
:1001100012111000000000000000000000000000AC
:100120000000000000000000000001021020200874
:100130000810204010204080020102010804020142
:1001400001020408102040808040201008040201B1
:10015000800402018040201008040201080402010A
:100160000102040810204080010204081020408091
:1001700005050505070508080808020202020A0A23
:100180000808040404040101010101010101030341
:10019000030303030303040707070C0C0C0C0C0CEC
:1001A0000C0C0202020206060606060606060B0BE9
:1001B0000B0B0B0B0B0B000020002300260029006B
:1001C0002C002F003200000100000301060109018C
:1001D00000002200250028002B002E0031003400F2
:1001E00002010000050108010B01000021002400AC
:1001F00027002A002D003000330001010000040117
:1002000007010A01180EA40E300FBC0F11241FBEE7
:10021000CFEFD1E2DEBFCDBF00E00CBF12E0A0E027
:10022000B2E0E2EAF0E200E00BBF02C007900D92FC
:10023000A033B107D9F725E0A0E3B2E001C01D92D9
:10024000A530B207E1F711E0C6E0D1E000E006C05A
:1002500021970109802FFE010E943810C230D1077A
:1002600080E00807A9F7CFD50C944F10C9CECF92E4
:10027000DF92EF92FF920F931F93E82FF92F05C0A3
:10028000015011092109310961F1908196239417D8
:10029000B9F305C0015011092109310911F190810B
:1002A00096239413F7CFC12CD12CE12CF12C0AC04A
:1002B0008FEFC81AD80AE80AF80A0C151D052E0592
:1002C0003F0579F080818623841791F36C2D7D2D75
:1002D0008E2D9F2D1F910F91FF90EF90DF90CF906B
:1002E000089560E070E080E090E01F910F91FF9032
:1002F000EF90DF90CF900895CF93DF93882349F05C
:10030000EB0181500E94A10A99838883DF91CF91EC
:100310000895FB0111821082F9CF0F931F938B0177
:100320009C0183E036952795179507958A95D1F717
:10033000075C1D4F462F477021E030E0F90102C0F5
:10034000EE0FFF1F4A95E2F7AF01F8012081242349
:10035000CB010196211102C090E080E01F910F9126
:1003600008950F931F938B019C0183E03695279589
:10037000179507958A95D1F7677081E090E001C0E5
:10038000880F6A95EAF7F801E75CFD4F2081452B5D
:1003900031F48095822380831F910F910895822BE1
:1003A000FACFCF92DF92EF92FF92CF93DF936B0160
:1003B0007C0160E086E3C816D104E104F10490F406
:1003C00086E38C0D0E94FE0BE6012196AE01C7016B
:1003D000B601C7DFCE01DF91CF91FF90EF90DF90A4
:1003E000CF9008958C2DEECF882341F08150682F57
:1003F00070E090E080E050E040E0B3CF08956111FC
:1004000002C00C94FE0B6130E1F362E0FACF662388
:1004100019F061E00C943A0C60E0FCCFCF92DF92CF
:10042000EF92FF92CF93882339F16A017B01CFEFDE
:10043000C80F20E030E0A901CB01B6011BD587FF32
:1004400010C0C701B60190581ED59B01AC016C2F9E
:1004500070E090E080E0CF91FF90EF90DF90CF9040
:10046000AEC0C701B6010AD58C2FCF91FF90EF9097
:10047000DF90CF900C94C40ACF91FF90EF90DF9063
:10048000CF9008950F931F938B019C0183E03695C5
:100490002795179507958A95D1F7005D1D4F462F33
:1004A000477021E030E0F90102C0EE0FFF1F4A95CE
:1004B000E2F7AF01F80120812423CB01019621113D
:1004C00002C090E080E01F910F9108950F931F9359
:1004D0008B019C0183E036952795179507958A95A2
:1004E000D1F7677081E090E001C0880F6A95EAF764
:1004F000F801E05DFD4F2081452B31F4809582238A
:1005000080831F910F910895822BFACF2F923F92F3
:100510004F925F926F927F928F929F92AF92BF9213
:10052000CF92DF92EF92FF920F931F93CF93DF93BF
:10053000D62EC72E782E692E49015A01280161E076
:100540008D2D0E94FE0BCD2DDC2D8E010F5F1F4FD8
:10055000A8016D2D7C2D872D962DB8DF20E030E091
:10056000A901C201B70145D5181654F4C201B7015B
:100570008AD42B01C501B40186D4A201CE0122D0B8
:10058000C801DF91CF911F910F91FF90EF90DF9005
:10059000CF90BF90AF909F908F907F906F905F9023
:1005A0004F903F902F900895882341F08150682FFD
:1005B00070E090E080E050E040E088CF0895862F22
:1005C000B901E2C79C01FC01EC51FF4FE491E150FD
:1005D000E231E0F4F0E08827EF50FD4F8F4F0C94AC
:1005E000381003030A030D032403390306034E03E3
:1005F0005A035E0375038A039F03B603CB03060306
:10060000E003F7030C0484B5806884BD60E0822FAA
:100610000C943A0C84B58062F8CF809180008C7F76
:1006200082608093800080918100807E8061682B51
:1006300060938100509387004093860080918000F2
:10064000806880938000E2CF809180008C7F826000
:100650008093800080918100807E8061682B609310
:1006600081005093870040938600809180008062D3
:10067000E8CF809180008C7F8260809380008091A1
:100680008100807E8061682B609381005093870099
:1006900040938600809180008860D3CF8091B00025
:1006A00080688093B0008091B100887F682B609350
:1006B000B100ACCF8091B0008062F3CF8091900008
:1006C0008C7F82608093900080919100807E806119
:1006D000682B60939100509397004093960080910F
:1006E000900080688093900091CF809190008C7FE3
:1006F00082608093900080919100807E8061682B61
:1007000060939100509397004093960080919000E1
:100710008062E8CF809190008C7F8260809390000F
:1007200080919100807E8061682B6093910050934E
:10073000970040939600809190008860D3CF80917D
:10074000A0008C7F82608093A0008091A100807EB9
:100750008061682B6093A1005093A7004093A6008E
:100760008091A00080688093A00050CF8091A0006D
:100770008C7F82608093A0008091A100807E806148
:10078000682B6093A1005093A7004093A60080912E
:10079000A0008062E8CF8091A0008C7F826080936F
:1007A000A0008091A100807E8061682B6093A100F1
:1007B0005093A7004093A6008091A0008860D3CFFB
:1007C000809120018C7F82608093200180912101A3
:1007D000807E8061682B60932101509327014093B4
:1007E0002601809120018068809320010FCF8091A5
:1007F00020018C7F82608093200180912101807E86
:100800008061682B6093210150932701409326015A
:10081000809120018062E8CF809120018C7F8260EE
:100820008093200180912101807E8061682B6093FC
:100830002101509327014093260180912001886077
:10084000D3CFCF93C62F61E0D9D760E08C2FCF9163
:10085000D5C74F925F926F927F92AF92BF92CF9225
:10086000DF92EF92FF920F931F93CF93DF935C0180
:10087000162FC42FD22F611103C061E0842FBED781
:1008800060E08C2FF7D7D6D52B013C01D3D5641966
:100890007509860997096630710581059105B0F3E0
:1008A00061E08C2FE7D7C6D52B013C01C02ED12C9F
:1008B000F12CE12CBFD56419750986099709C61674
:1008C000D706E806F906B0F760E08C2FD3D71111F0
:1008D00003C060E08D2F92D720E432E44FE050E077
:1008E00061E08D2FF4D7F501608371838283938358
:1008F000DF91CF911F910F91FF90EF90DF90CF90FC
:10090000BF90AF907F906F905F904F900895CF937E
:10091000C1E020E030E0A90160910402709105027D
:100920008091060290910702A5D2811101C0C0E01A
:100930008091EA04C827C093EA04CF910895FC018E
:1009400091E080914502811190E09183089580911A
:1009500045028F5F843618F4809345020895109203
:1009600045020895CF92DF92EF92FF920F931F936B
:10097000CF93DF9300D000D0CDB7DEB7C090000298
:10098000D0900102E0900202F0900302A7019601CC
:100990006091D1047091D2048091D3049091D404D9
:1009A00069D2882341F0C092D104D092D204E0925F
:1009B000D304F092D40466E370E080E090E0ADDC14
:1009C0009093D0048093CF0443E050E0BE016B5F6E
:1009D0007F4F92DC6BE070E080E090E053DD8C01B3
:1009E0009093E4048093E30420910A02AD81BE81D8
:1009F00030E00E94401075D26B017C0120E030E0B5
:100A00004FE753E437D2181634F4C12CD12C8FE7BA
:100A1000E82E83E4F82EB701A601C801FFDC60913F
:100A2000EA048DE0F4DC8091E90481111092E9047C
:100A30000AE023E342E361E0CE0101960ADF269655
:100A40000FB6F894DEBF0FBECDBFDF91CF911F91DF
:100A50000F91FF90EF90DF90CF9008958F929F922B
:100A6000AF92BF92DF92EF92FF920F931F93CF93BB
:100A7000DF9384E090E0CDD0C9ECD4E000E012E058
:100A8000F801808589A342E050E067E874E080E0E7
:100A9000B5D21882F80180819181A281B3818887C3
:100AA0009987AA87BB87812C912C540183948982D2
:100AB0009A82AB82BC8266E370E080E090E071DCF9
:100AC0009F838E83DD24D394DD821C8A8D8A9E8A47
:100AD000AF8AB88EE12CF12C8701A80197016BE059
:100AE00070E080E090E012DD9B8F8A8FD98E1C86AB
:100AF0008D869E86AF86B88A61E08DE080DCD98ADB
:100B00008C8E9D8EAE8EBF8E63E382E39ADE18A23A
:100B1000DF91CF911F910F91FF90EF90DF90BF90E9
:100B2000AF909F908F9008958091C90481111DC04E
:100B300081E08093C9048091CA049091CB04A09174
:100B4000CC04B091CD040197A105B10571F4809159
:100B5000CE04882351F066E370E080E090E0DDDBB6
:100B60009093D0048093CF043FDC8091DD04811109
:100B70002AC081E08093DD048091DE049091DF043F
:100B8000A091E004B091E1040197A105B105D9F469
:100B90008091E2048823B9F06BE070E080E090E09F
:100BA00071DC9093E4048093E30440E050E0BA01E8
:100BB00035DC6BE070E080E090E064DC9093E4046E
:100BC0008093E304F1DC8091D504811103C081E0BE
:100BD0008093D504089560E070E080E89FE7089571
:100BE00060E070E080E89FE7089560E070E080E8F2
:100BF0009FEF089560E070E080E89FEF089560E067
:100C000070E080EC9FEF089560E070E080EC9FEF73
:100C10000895F5DF6093F7047093F8048093F90466
:100C20009093FA04F1DF6093EB047093EC048093EB
:100C3000ED049093EE04CFDF6093F3047093F4041B
:100C40008093F5049093F604CBDF6093EF047093E8
:100C5000F0048093F1049093F204C7DF6093FB04E7
:100C60007093FC048093FD049093FE04C3DF6093B3
:100C7000FF04709300058093010590930205089589
:100C800026E030E040E855E260E070E090E080E08F
:100C900000C08130910569F01CF4892B39F008956A
:100CA0008230910549F0039751F0089585E592E06F
:100CB00000C782EF92E0FCCF8FE893E0F9CF8CE29F
:100CC00094E0F6CF1F920F920FB60F9211240BB63D
:100CD0000F922F933F934F935F936F937F938F93D5
:100CE0009F93AF93BF93EF93FF9386E09FEF909313
:100CF00025018093240134D0FF91EF91BF91AF91F2
:100D00009F918F917F916F915F914F913F912F9123
:100D10000F900BBE0F900FBE0F901F90189586E09E
:100D20009FEF9093250180932401A3E7B0E08C917D
:100D30008E7F8C93E0E2F1E080818C7F8083E1E222
:100D4000F1E08081877E80838081836080838081E1
:100D50008B7F80838C9181608C93089581E00895CE
:100D6000CF93DF931F921F92CDB7DEB780914802D9
:100D700091E0980F90934802882369F021E030E0D9
:100D800030934B0220934A02809348020F900F90B9
:100D9000DF91CF910895CE010196D1DD7894D7DD12
:100DA000F894809148028150809348028A81882378
:100DB00089F08091470291E0980F90934702882331
:100DC00049F021E030E030934B0220934A028093B7
:100DD0004702DCCF809147028823C1F2809149020B
:100DE0008111D4CF81E0809349027894BBDDF894DF
:100DF000809147028150809347028091490281503F
:100E000080934902C3CFCF93DF93109204051092D1
:100E1000030535D335DFC0911C02D0911D02198224
:100E200018821CDEF8947BDF2881398181E0232B36
:100E300009F080E08093030578947894809103050D
:100E4000811107C071DEF89490E080E0DF91CF91CE
:100E500008952881398181E0232B09F480E0809373
:100E600004059091040581E0911180E080930305D1
:100E700075DFE4CF71D008F481E0089504D0689460
:100E8000B111B1C0089594D088F09F5790F0B92F58
:100E90009927B751A0F0D1F0660F771F881F991FCF
:100EA0001AF0BA95C9F712C0B13081F09BD0B1E009
:100EB000089598C0672F782F8827B85F39F0B93F19
:100EC000CCF3869577956795B395D9F73EF49095D1
:100ED0008095709561957F4F8F4F9F4F0895E8944F
:100EE00009C097FB3EF490958095709561957F4F72
:100EF0008F4F9F4F9923A9F0F92F96E9BB27939520
:100F0000F695879577956795B795F111F8CFFAF42F
:100F1000BB0F11F460FF1BC06F5F7F4F8F4F9F4F60
:100F200016C0882311F096E911C0772321F09EE8BE
:100F3000872F762F05C0662371F096E8862F70E024
:100F400060E02AF09A95660F771F881FDAF7880FFE
:100F50009695879597F90895990F0008550FAA0B54
:100F6000E0E8FEEF16161706E807F907C0F01216BC
:100F70001306E407F50798F0621B730B840B950BBF
:100F800039F40A2661F0232B242B252B21F4089514
:100F90000A2609F4A140A6958FEF811D811D0895B1
:100FA00057FD9058440F551F59F05F3F71F047951A
:100FB000880F97FB991F61F09F3F79F087950895FF
:100FC000121613061406551FF2CF4695F1DF08C01E
:100FD000161617061806991FF1CF8695710561053B
:100FE00008940895E894BB2766277727CB0197F9E3
:100FF0000895B2DF08F48FEF08950895883008F05F
:1010000076C0E82FF0E0EE0FFF1FE55FFD4F718324
:1010100060838150873008F03DC0E82FF0E08827DA
:10102000EB5EF74F8F4F0C94381052081C082408C1
:1010300030083D085E086B08809169008C7F482B62
:1010400040936900E89A089580916900837F440F76
:10105000551F440F551F482B40936900E99A089586
:10106000809169008F7C74E0440F551F7A95E1F7F9
:10107000482B40936900EA9A0895809169008F7324
:1010800066E0440F551F6A95E1F7482B40936900CD
:10109000EB9A089580916A008C7F482B40936A00F8
:1010A000EC9A089580916A00837F440F551F440F86
:1010B000551F482B40936A00ED9A089580916A006D
:1010C0008F7C24E0440F551F2A95E1F7482B40936D
:1010D0006A00EE9A089580916A008F7396E0440F3B
:1010E000551F9A95E1F7482B40936A00EF9A0895AF
:1010F0001F920F920FB60F9211240BB60F922F93DF
:101100003F934F935F936F937F938F939F93AF938F
:10111000BF93EF93FF93E0910F02F09110021995A6
:10112000FF91EF91BF91AF919F918F917F916F91BF
:101130005F914F913F912F910F900BBE0F900FBE7B
:101140000F901F9018951F920F920FB60F921124B7
:101150000BB60F922F933F934F935F936F937F93B1
:101160008F939F93AF93BF93EF93FF93E0911102FF
:10117000F09112021995FF91EF91BF91AF919F915C
:101180008F917F916F915F914F913F912F910F9030
:101190000BBE0F900FBE0F901F9018951F920F92CD
:1011A0000FB60F9211240BB60F922F933F934F93CC
:1011B0005F936F937F938F939F93AF93BF93EF93BF
:1011C000FF93E0911302F09114021995FF91EF91B2
:1011D000BF91AF919F918F917F916F915F914F914F
:1011E0003F912F910F900BBE0F900FBE0F901F904D
:1011F00018951F920F920FB60F9211240BB60F92F3
:101200002F933F934F935F936F937F938F939F930E
:10121000AF93BF93EF93FF93E0911502F091160205
:101220001995FF91EF91BF91AF919F918F917F9110
:101230006F915F914F913F912F910F900BBE0F9047
:101240000FBE0F901F9018951F920F920FB60F921E
:1012500011240BB60F922F933F934F935F936F938D
:101260007F938F939F93AF93BF93EF93FF93E091FF
:101270000B02F0910C021995FF91EF91BF91AF9184
:101280009F918F917F916F915F914F913F912F919E
:101290000F900BBE0F900FBE0F901F9018951F92CE
:1012A0000F920FB60F9211240BB60F922F933F930C
:1012B0004F935F936F937F938F939F93AF93BF935E
:1012C000EF93FF93E0910D02F0910E021995FF91BB
:1012D000EF91BF91AF919F918F917F916F915F91AE
:1012E0004F913F912F910F900BBE0F900FBE0F901B
:1012F0001F9018951F920F920FB60F9211240BB6E4
:101300000F922F933F934F935F936F937F938F939E
:101310009F93AF93BF93EF93FF93E0911702F091E8
:1013200018021995FF91EF91BF91AF919F918F9105
:101330007F916F915F914F913F912F910F900BBED5
:101340000F900FBE0F901F9018951F920F920FB61F
:101350000F9211240BB60F922F933F934F935F93ED
:101360006F937F938F939F93AF93BF93EF93FF936D
:10137000E0911902F0911A021995FF91EF91BF9136
:10138000AF919F918F917F916F915F914F913F911D
:101390002F910F900BBE0F900FBE0F901F901895BE
:1013A0001F920F920FB60F9211242F933F938F939A
:1013B0009F93AF93BF9380914D0290914E02A09165
:1013C0004F02B091500230914C0223E0230F2D3791
:1013D00058F50196A11DB11D20934C0280934D023A
:1013E00090934E02A0934F02B0935002809151020D
:1013F00090915202A0915302B09154020196A11D06
:10140000B11D8093510290935202A0935302B09366
:101410005402BF91AF919F918F913F912F910F9067
:101420000FBE0F901F90189526E8230F0296A11D5E
:10143000B11DD2CF3FB7F8948091510290915202E2
:10144000A0915302B091540226B5A89B05C02F3F2E
:1014500019F00196A11DB11D3FBFBA2FA92F982FDA
:101460008827BC01CD01620F711D811D911D42E0D5
:10147000660F771F881F991F4A95D1F708957894B2
:1014800084B5826084BD84B5816084BD85B5826089
:1014900085BD85B5816085BDEEE6F0E08081816027
:1014A0008083E1E8F0E01082808182608083808127
:1014B00081608083E0E8F0E0808181608083E1EBFF
:1014C000F0E0808184608083E0EBF0E080818160E7
:1014D0008083E1E9F0E080818260808380818160A7
:1014E0008083E0E9F0E0808181608083E1EAF0E0E0
:1014F000808182608083808181608083E0EAF0E087
:10150000808181608083E1E2F1E08081826080837C
:10151000808181608083E0E2F1E08081816080836E
:10152000EAE7F0E08081846080838081826080834C
:101530008081816080838081806880831092C10077
:101540000895863308F0865320917B00982F987079
:10155000277F922B90937B0020911B0290E4299F80
:10156000900111248770822B80937C0080917A00F7
:10157000806480937A0080917A0086FDFCCF809110
:1015800078009091790008951F93CF93DF93182FDF
:10159000EB0161E033D1209731F460E0812FDF91DE
:1015A000CF911F9167C1CF3FD10511F461E0F6CF14
:1015B000E12FF0E0EC51FF4FE491E150E23108F00F
:1015C000B2C0F0E08827E951F54F8F4F51C5F90AB5
:1015D000010B060B100B1A0B930B240B2C0B340B6B
:1015E0003E0B480B520B610B6B0B930B750B7F0B78
:1015F000890B84B5806884BDC7BDDF91CF911F91F1
:10160000089584B5806284BDC8BDF7CF8091800005
:10161000806880938000D0938900C0938800EDCFCC
:1016200080918000806280938000D0938B00C09373
:101630008A00E3CF80918000886080938000D093FF
:101640008D00C0938C00D9CF8091B00080688093CA
:10165000B000C093B300D1CF8091B000806280937E
:10166000B000C093B400C9CF80919000806880938F
:101670009000D0939900C0939800BFCF80919000C4
:10168000806280939000D0939B00C0939A00B5CF66
:1016900080919000886080939000D0939D00C093CB
:1016A0009C00ABCF8091A00080688093A0008091C7
:1016B000A0008F7B8093A000D093A900C093A800C6
:1016C0009CCF8091A00080628093A000D093AB005B
:1016D000C093AA0092CF8091A00088608093A00060
:1016E000D093AD00C093AC0088CF8091200180687A
:1016F00080932001D0932901C09328017ECF80914F
:101700002001806280932001D0932B01C0932A0195
:1017100074CF80912001886080932001D0932D01A7
:10172000C0932C016ACFC038D1050CF03FCF35CF24
:101730008150823108F059C0E82FF0E08827ED553C
:10174000F44F8F4F95C4C30BC70BB50BBB0BBF0B2F
:10175000F50BCA0BD00BD40BDA0BDE0BE20BE80B4C
:10176000EC0BF50BF00BF60BFA0B809180008F77EA
:10177000809380000895809180008F7DF9CF8091C3
:101780008000877FF5CF84B58F7784BD089584B5B9
:101790008F7DFBCF8091B0008F778093B00008954C
:1017A0008091B0008F7DF9CF809190008F778093EA
:1017B00090000895809190008F7DF9CF80919000E6
:1017C000877FF5CF8091A0008F778093A000089548
:1017D0008091A0008F7DF9CF8091A000877FF5CF09
:1017E000809120018F7780932001089580912001BE
:1017F0008F7DF9CF80912001877FF5CFCF93DF9345
:1018000090E0FC01E65DFE4F249180599E4FFC0163
:1018100084918823C9F090E0880F991FFC01E6515C
:10182000FE4FA591B491FC01E053FE4FC591D491B8
:1018300061110DC09FB7F8948C91209582238C93F1
:101840008881282328839FBFDF91CF91089562303C
:1018500051F49FB7F8943C91822F809583238C9309
:10186000E8812E2BEFCF8FB7F894EC912E2B2C9391
:101870008FBFEACF1F93CF93DF93282F30E0F9017A
:10188000EC51FF4F8491F901E65DFE4FD491F901CF
:10189000E059FE4FC491CC23A1F0162F811148DFEF
:1018A000EC2FF0E0EE0FFF1FE053FE4FA591B49137
:1018B0008FB7F894EC91111108C0D095DE23DC931A
:1018C0008FBFDF91CF911F910895DE2BF8CF0F933B
:1018D0001F9390E0FC01E65DFE4F7491FC01E0591E
:1018E000FE4FE4916111672FF0E0EE0FFF1FEA5405
:1018F000FE4F8591949189019A013F70462F672F81
:101900000E943701611571058105910529F06F5F0E
:101910007F4F8F4F9F4F9F701F910F910895FC0134
:10192000918D228D892F90E0805C9F4F821B9109C1
:101930008F7399270895FC01918D828D981731F04E
:10194000828DE80FF11D858D90E008958FEF9FEF58
:101950000895FC01918D828D981761F0A28DAE0FD4
:10196000BF2FB11D5D968C91928D9F5F9F73928F5B
:1019700090E008958FEF9FEF0895FC01538D448D03
:10198000252F30E0842F90E0821B930B541710F02A
:10199000CF96089501970895FC01A48DA80FB92F43
:1019A000B11DA35ABF4F2C91848D90E001968F7387
:1019B0009927848FA689B7892C93A089B1898C91A6
:1019C000837080648C93938D848D981306C00288F5
:1019D000F389E02D80818F7D80830895CF93DF93FD
:1019E000EC01888D8823B1F0AA89BB89E889F9893F
:1019F0008C9185FD03C0808186FD0CC00FB607FC6D
:101A0000F7CF8C9185FFF2CF808185FFEDCFCE019E
:101A1000C3DFEACFDF91CF910895EF92FF920F934A
:101A20001F93CF93DF93EC0181E0888F9B8D8C8D8A
:101A300098131AC0E889F989808185FF15C09FB77E
:101A4000F894EE89FF896083E889F9898081837041
:101A5000806480839FBF81E090E0DF91CF911F91F0
:101A60000F91FF90EF900895F62E0B8D10E00F5F11
:101A70001F4F0F731127E02E8C8D8E110BC00FB6E8
:101A800007FCFACFE889F989808185FFF5CFCE017F
:101A900083DFF2CFEB8DEC0FFD2FF11DE35AFF4FEB
:101AA000F0829FB7F8940B8FEA89FB89808180626E
:101AB000D0CFCF92DF92EF92FF921F93CF93DF931D
:101AC000EC016A017B01122FE889F98982E08083A9
:101AD000C11481EED806E104F10499F060E079E0E8
:101AE0008DE390E0A7019601A1D22150310941096F
:101AF00051095695479537952795211580E1380767
:101B000090F0E889F989108260E874E88EE190E04D
:101B1000A70196018BD221503109410951095695EF
:101B2000479537952795EC85FD853083EE85FF85B4
:101B30002083188EEC89FD891083EA89FB898081D6
:101B400080618083EA89FB89808188608083EA895B
:101B5000FB89808180688083EA89FB8980818F7D11
:101B60008083DF91CF911F91FF90EF90DF90CF9016
:101B700008951F920F920FB60F9211240BB60F9279
:101B80002F938F939F93EF93FF93E0916502F091D2
:101B900066028081E0916B02F0916C0282FD1DC0B3
:101BA000908180916E028F5F8F7320916F028217F8
:101BB00041F0E0916E02F0E0EB5AFD4F958F80937B
:101BC0006E02FF91EF919F918F912F910F900BBE1D
:101BD0000F900FBE0F901F9018958081F2CF1F922B
:101BE0000F920FB60F9211240BB60F922F933F93C3
:101BF0004F935F936F937F938F939F93AF93BF9315
:101C0000EF93FF9385E592E0C7DEFF91EF91BF91DF
:101C1000AF919F918F917F916F915F914F913F9184
:101C20002F910F900BBE0F900FBE0F901F90189525
:101C3000E5E5F2E01382128288EE93E0A0E0B0E0E6
:101C400084839583A683B78382E292E09183808325
:101C500085EC90E09587848784EC90E09787868771
:101C600080EC90E0918B808B81EC90E0938B828B69
:101C700082EC90E0958B848B86EC90E0978B868B42
:101C8000118E128E138E148E08951F920F920FB61E
:101C90000F9211240BB60F922F938F939F93EF9374
:101CA000FF93E0910203F09103038081E091080328
:101CB000F091090382FD1DC0908180910B038F5F1D
:101CC0008F7320910C03821741F0E0910B03F0E039
:101CD000EE50FD4F958F80930B03FF91EF919F91F5
:101CE0008F912F910F900BBE0F900FBE0F901F90F2
:101CF00018958081F2CF1F920F920FB60F92112488
:101D00000BB60F922F933F934F935F936F937F93F5
:101D10008F939F93AF93BF93EF93FF9382EF92E0E4
:101D20003BDEFF91EF91BF91AF919F918F917F919A
:101D30006F915F914F913F912F910F900BBE0F903C
:101D40000FBE0F901F901895E2EFF2E013821282FF
:101D500088EE93E0A0E0B0E084839583A683B78308
:101D600082E292E0918380838DEC90E09587848776
:101D70008CEC90E09787868788EC90E0918B808B45
:101D800089EC90E0938B828B8AEC90E0958B848B2E
:101D90008EEC90E0978B868B118E128E138E148EA4
:101DA00008951F920F920FB60F9211240BB60F9247
:101DB0002F938F939F93EF93FF93E0919F03F09165
:101DC000A0038081E091A503F091A60382FD1DC0D0
:101DD00090818091A8038F5F8F732091A903821750
:101DE00041F0E091A803F0E0E157FC4F958F80931C
:101DF000A803FF91EF919F918F912F910F900BBEB0
:101E00000F900FBE0F901F9018958081F2CF1F92F8
:101E10000F920FB60F9211240BB60F922F933F9390
:101E20004F935F936F937F938F939F93AF93BF93E2
:101E3000EF93FF938FE893E0AFDDFF91EF91BF91B8
:101E4000AF919F918F917F916F915F914F913F9152
:101E50002F910F900BBE0F900FBE0F901F901895F3
:101E6000EFE8F3E01382128288EE93E0A0E0B0E0A6
:101E700084839583A683B78382E292E091838083F3
:101E800085ED90E09587848784ED90E0978786873D
:101E900080ED90E0918B808B81ED90E0938B828B35
:101EA00082ED90E0958B848B86ED90E0978B868B0E
:101EB000118E128E138E148E08951F920F920FB6EC
:101EC0000F9211240BB60F922F938F939F93EF9342
:101ED000FF93E0913C04F0913D048081E091420445
:101EE000F091430482FD1DC09081809145048F5F75
:101EF0008F7320914604821741F0E0914504F0E091
:101F0000E45DFB4F958F80934504FF91EF919F9186
:101F10008F912F910F900BBE0F900FBE0F901F90BF
:101F200018958081F2CF1F920F920FB60F92112455
:101F30000BB60F922F933F934F935F936F937F93C3
:101F40008F939F93AF93BF93EF93FF938CE294E0B3
:101F500023DDFF91EF91BF91AF919F918F917F9181
:101F60006F915F914F913F912F910F900BBE0F900A
:101F70000FBE0F901F901895ECE2F4E013821282CE
:101F800088EE93E0A0E0B0E084839583A683B783D6
:101F900082E292E09183808385E391E09587848754
:101FA00084E391E09787868780E391E0918B808B33
:101FB00081E391E0938B828B82E391E0958B848B1C
:101FC00086E391E0978B868B118E128E138E148E82
:101FD0000895AF92BF92CF92DF92EF92FF920F934C
:101FE0001F93CF93DF936C017B018B01040F151FAF
:101FF000EB015E01AE18BF08C017D10759F0699117
:10200000D601ED91FC910190F081E02DC60119956A
:10201000892B79F7C501DF91CF911F910F91FF9027
:10202000EF90DF90CF90BF90AF900895A1E21A2E6D
:10203000AA1BBB1BFD010DC0AA1FBB1FEE1FFF1F6C
:10204000A217B307E407F50720F0A21BB30BE40BBC
:10205000F50B661F771F881F991F1A9469F7609503
:102060007095809590959B01AC01BD01CF010895BD
:10207000EE0FFF1F881F8BBF0790F691E02D19947C
:10208000A29FB001B39FC001A39F700D811D1124B9
:10209000911DB29F700D811D1124911D0895F8941A
:0220A000FFCF70
:1020A200000080BF0000803F000000FD07FD07FD2B
:1020B20007FD07FD07FD07FD07FD070142020000BE
:1020C20000000D0DE90FBD0CEE0C8F0CA90C9B0C42
:00000001FF
