:10000000F8C0000026C1000024C1000022C1000089
:1000100020C100001EC100001CC100001AC1000068
:1000200018C1000016C1000014C1000012C1000078
:1000300010C100000EC100000CC100000AC1000088
:1000400008C1000006C1000004C1000002C1000098
:1000500000C10000FEC00000FCC000000C944F086E
:10006000F8C000000C94EB0B0C94210CF2C00000C3
:10007000F0C00000EEC00000ECC00000EAC00000CC
:10008000E8C00000E6C00000E4C00000E2C00000DC
:100090000C94770C0C94AD0CDCC00000DAC00000AE
:1000A000D8C00000D6C00000D4C00000D2C00000FC
:1000B000D0C00000CEC00000CCC00000CAC000000C
:1000C000C8C00000C6C0000059C500000C94030D54
:1000D0000C94390DBEC000000C948F0D0C94C50D0E
:1000E000B8C0000000000A0B02090C0D0E0807033F
:1000F00004010000000000000000000000000000FB
:1001000000000000000000000000000000000000EF
:1001100012111000000000000000000000000000AC
:100120000000000000000000000001021020200874
:100130000810204010204080020102010804020142
:1001400001020408102040808040201008040201B1
:10015000800402018040201008040201080402010A
:100160000102040810204080010204081020408091
:1001700005050505070508080808020202020A0A23
:100180000808040404040101010101010101030341
:10019000030303030303040707070C0C0C0C0C0CEC
:1001A0000C0C0202020206060606060606060B0BE9
:1001B0000B0B0B0B0B0B00002200250028002B0063
:1001C0002E003100340002010000050108010B017E
:1001D00000002100240027002A002D0030003300F9
:1001E00001010000040107010A014A0CD60C620D4E
:1001F000EE0D11241FBECFEFD1E2DEBFCDBF00E078
:100200000CBF12E0A0E0B2E0E8EEFCE100E00BBFC2
:1002100002C007900D92AE31B107D9F724E0AEE1EC
:10022000B2E001C01D92A83EB207E1F710E0C9EFAD
:10023000D0E000E006C021970109802FFE010E9456
:100240006A0EC53FD10780E00807A9F7FDD40C94DA
:10025000720ED6CECF93DF93882341F0EB0181500D
:10026000CAD799838883DF91CF910895FB011182CA
:100270001082F9CF0F931F938B019C0183E0369579
:100280002795179507958A95D1F7095D1D4F462F3C
:10029000477021E030E0F90102C0EE0FFF1F4A95E0
:1002A000E2F7AF01F80120812423CB01019621114F
:1002B00002C090E080E01F910F9108950F931F936B
:1002C0008B019C0183E036952795179507958A95B4
:1002D000D1F7677081E090E001C0880F6A95EAF776
:1002E000F801E95DFD4F2081452B31F48095822393
:1002F00080831F910F910895822BFACFCF92DF92C6
:10030000EF92FF92CF93DF936B017C0160E086E375
:10031000C816D104E104F10490F486E38C0D0E9428
:10032000580AE6012196AE01C701B601C7DFCE012A
:10033000DF91CF91FF90EF90DF90CF9008958C2DBB
:10034000EECF882341F08150682F70E090E080E08C
:1003500050E040E0B3CF0895611102C00C94580AF8
:100360006130E1F362E0FACF662319F061E00C94AA
:10037000940A60E0FCCFCF92DF92EF92FF92CF938E
:10038000882331F16A017B01CFEFC80F20E030E014
:10039000A901CB01B6018FD487FF10C0C701B601F8
:1003A0009058FAD49B01AC016C2F70E090E080E093
:1003B000CF91FF90EF90DF90CF90ADC0C701B60115
:1003C000E6D48C2FCF91FF90EF90DF90CF9036C77F
:1003D000CF91FF90EF90DF90CF9008950F931F93F0
:1003E0008B019C0183E036952795179507958A9593
:1003F000D1F7025E1D4F462F477021E030E0F90132
:1004000002C0EE0FFF1F4A95E2F7AF01F80120810D
:100410002423CB010196211102C090E080E01F91BE
:100420000F9108950F931F938B019C0183E03695E4
:100430002795179507958A95D1F7677081E090E029
:1004400001C0880F6A95EAF7F801E25EFD4F20814E
:10045000452B31F48095822380831F910F9108955D
:10046000822BFACF2F923F924F925F926F927F92A0
:100470008F929F92AF92BF92CF92DF92EF92FF92B4
:100480000F931F93CF93DF93D62EC72E782E692E0E
:1004900049015A01280161E08D2D0E94580ACD2D95
:1004A000DC2D8E010F5F1F4FA8016D2D7C2D872D38
:1004B000962DB8DF20E030E0A901C201B701EBD5ED
:1004C000181654F4C201B70167D42B01C501B40159
:1004D00063D4A201CE0122D0C801DF91CF911F9138
:1004E0000F91FF90EF90DF90CF90BF90AF909F90D3
:1004F0008F907F906F905F904F903F902F900895D6
:10050000882341F08150682F70E090E080E050E057
:1005100040E088CF0895862FB90190C69C01FC0168
:10052000EC51FF4FE491E150E231E0F4F0E0882734
:10053000E356FD4F8F4F0C946A0EAF02B502B8021E
:10054000CF02E402B202F9020503090320033503D6
:100550004A0361037603B2028B03A203B70384B597
:10056000806884BD60E0822FDFC784B58062F9CFE8
:10057000809180008C7F82608093800080918100D8
:10058000807E8061682B6093810050938700409348
:10059000860080918000806880938000E3CF809106
:1005A00080008C7F82608093800080918100807EBB
:1005B0008061682B60938100509387004093860090
:1005C000809180008062E8CF809180008C7F826083
:1005D0008093800080918100807E8061682B609391
:1005E000810050938700409386008091800088604E
:1005F000D3CF8091B00080688093B0008091B1002B
:10060000887F682B6093B100ADCF8091B00080628D
:10061000F3CF809190008C7F8260809390008091D6
:100620009100807E8061682B6093910050939700C9
:10063000409396008091900080688093900092CFC4
:10064000809190008C7F82608093900080919100D7
:10065000807E8061682B6093910050939700409357
:100660009600809190008062E8CF809190008C7F0E
:1006700082608093900080919100807E8061682BE1
:100680006093910050939700409396008091900062
:100690008860D3CF8091A0008C7F82608093A0007F
:1006A0008091A100807E8061682B6093A1005093AF
:1006B000A7004093A6008091A00080688093A000CE
:1006C00051CF8091A0008C7F82608093A0008091A8
:1006D000A100807E8061682B6093A1005093A700E9
:1006E0004093A6008091A0008062E8CF8091A00096
:1006F0008C7F82608093A0008091A100807E8061C9
:10070000682B6093A1005093A7004093A6008091AE
:10071000A0008860D3CF809120018C7F826080937D
:10072000200180912101807E8061682B60932101EE
:100730005093270140932601809120018068809387
:10074000200110CF809120018C7F82608093200156
:1007500080912101807E8061682B609321015093FC
:10076000270140932601809120018062E8CF80918B
:1007700020018C7F82608093200180912101807E06
:100780008061682B609321015093270140932601DB
:10079000809120018860D3CFCF92DF92EF92FF92B9
:1007A000CF93DF931F921F92CDB7DEB7C0900002A8
:1007B000D0900102E0900202F0900302A70196019E
:1007C0006091BA047091BB048091BC049091BD0407
:1007D00072D2882341F0C092BA04D092BB04E09256
:1007E000BC04F092BD0466E370E080E090E042DD7E
:1007F0009093B9048093B80443E050E0BE016F5F6A
:100800007F4F28DD6BE070E080E090E0E7DD9093C3
:10081000CD048093CC0469817A8190E080E0E8D2B5
:100820002091040230910502409106025091070286
:1008300046D21BD36B017C017ED1811130C0C70130
:10084000B60136D181112BC020E030E040E853E4FE
:10085000C701B60124D36B017C0120E030E0A9017F
:100860002AD287FF1FC0C701B601905895D2619563
:1008700070E090E080E0BED2AB01BC018091CC047E
:100880009091CD0478DD60E089E06EDD0F900F90EF
:10089000DF91CF91FF90EF90DF90CF900895C12C22
:1008A000D12C7601C701B60177D2E2CF8F929F9209
:1008B000AF92BF92DF92EF92FF920F931F93CF936D
:1008C000DF9384E090E0BDD0C2EBD4E01882809149
:1008D000000290910102A0910202B0910302888768
:1008E0009987AA87BB87812C912C54018394898294
:1008F0009A82AB82BC8266E370E080E090E0FEDC2E
:100900009F838E83DD24D394DD821C8A8D8A9E8A08
:10091000AF8AB88EE12CF12C8701A80197016BE01A
:1009200070E080E090E09EDD9B8F8A8FD98E1C86E0
:100930008D869E86AF86B88A61E089E00DDDD98A12
:10094000DF91CF911F910F91FF90EF90DF90BF90BB
:10095000AF909F908F9008958091B20481111DC037
:1009600081E08093B2048091B3049091B404A0918B
:10097000B504B091B6040197A105B10571F4809159
:10098000B704882351F066E370E080E090E072DC09
:100990009093B9048093B804D4DC8091C60481118B
:1009A0002AC081E08093C6048091C7049091C80456
:1009B000A091C904B091CA040197A105B105D9F469
:1009C0008091CB048823B9F06BE070E080E090E088
:1009D00005DD9093CD048093CC0440E050E0BA0153
:1009E000CADC6BE070E080E090E0F8DC9093CD042E
:1009F0008093CC0485DD8091BE04811103C081E029
:100A00008093BE04089560E070E080E89FE7089559
:100A100060E070E080E89FE7089560E070E080E8C3
:100A20009FEF089560E070E080E89FEF089560E038
:100A300070E080EC9FEF089560E070E080EC9FEF45
:100A40000895F5DF6093DA047093DB048093DC048F
:100A50009093DD04F1DF6093CE047093CF04809314
:100A6000D0049093D104CFDF6093D6047093D70461
:100A70008093D8049093D904CBDF6093D204709311
:100A8000D3048093D4049093D504C7DF6093DE042D
:100A90007093DF048093E0049093E104C3DF6093DC
:100AA000E2047093E3048093E4049093E5040895D2
:100AB000CF92DF92EF92FF92CF936B017C01AC015A
:100AC0009B016091D6047091D7048091D8049091D5
:100AD000D904F1D0C1E0882369F0A70196016091A3
:100AE000DE047091DF048091E0049091E104E3D092
:100AF0008111C0E08C2FCF91FF90EF90DF90CF90CD
:100B000008950F931F938B019C01002711272078D4
:100B10003F770115110520483F4749F4AB01BC015F
:100B20006F77772781E0452B462B472B09F480E030
:100B30001F910F910895E5CF26E030E040E855E29F
:100B400060E070E090E080E000C08130910569F0E5
:100B50001CF4892B39F008958230910549F00397F0
:100B600051F008958EE392E0D6C58BED92E0FCCF74
:100B700088E793E0F9CF85E194E0F6CF1F920F92DA
:100B80000FB60F9211240BB60F922F933F934F93F2
:100B90005F936F937F938F939F93AF93BF93EF93E5
:100BA000FF938FE89DEF909325018093240134D02B
:100BB000FF91EF91BF91AF919F918F917F916F9135
:100BC0005F914F913F912F910F900BBE0F900FBEF1
:100BD0000F901F9018958FE89DEF909325018093BB
:100BE0002401A3E7B0E08C918E7F8C93E0E2F1E0EA
:100BF00080818C7F8083E1E2F1E08081877E808349
:100C000080818460808380818C7F80838C918160EF
:100C10008C93089581E008958091320291E0980FBD
:100C200090933202882349F021E030E0309334027F
:100C3000209333028093320208957894ADDDF894C6
:100C4000809132028150F6CFCF93DF931092E70468
:100C50001092E6046ED270DFC0910902D0910A02B0
:100C60001982188223DEF894B6DF2881398181E069
:100C7000232B09F080E08093E604789478948091A7
:100C8000E604811107C068DEF89490E080E0DF910F
:100C9000CF9108952881398181E0232B09F480E0E8
:100CA0008093E7049091E70481E0911180E08093C4
:100CB000E604B0DFE4CF3AD108F481E008950CD027
:100CC00099C191D140F088D130F021F45F3F19F003
:100CD00051C15111DAC17DC19ED198F39923C9F355
:100CE0005523B1F3951B550BBB27AA276217730732
:100CF000840738F09F5F5F4F220F331F441FAA1FE6
:100D0000A9F333D00E2E3AF0E0E830D091505040A5
:100D1000E695001CCAF729D0FE2F27D0660F771F53
:100D2000881FBB1F261737074807AB07B0E809F035
:100D3000BB0B802DBF01FF2793585F4F2AF09E3FCA
:100D4000510568F017C1A1C15F3FECF3983EDCF399
:100D5000869577956795B795F7959F5FC9F7880F43
:100D6000911D9695879597F90895E1E0660F771F95
:100D7000881FBB1F621773078407BA0720F0621B26
:100D8000730B840BBA0BEE1F88F7E095089504D01F
:100D90006894B1117AC1089546D188F09F5790F0B8
:100DA000B92F9927B751A0F0D1F0660F771F881F90
:100DB000991F1AF0BA95C9F712C0B13081F064D109
:100DC000B1E0089561C1672F782F8827B85F39F0A7
:100DD000B93FCCF3869577956795B395D9F73EF4EF
:100DE00090958095709561957F4F8F4F9F4F089597
:100DF000E89409C097FB3EF49095809570956195B5
:100E00007F4F8F4F9F4F9923A9F0F92F96E9BB276A
:100E10009395F695879577956795B795F111F8CFE6
:100E2000FAF4BB0F11F460FF1BC06F5F7F4F8F4F51
:100E30009F4F16C0882311F096E911C0772321F047
:100E40009EE8872F762F05C0662371F096E8862FDF
:100E500070E060E02AF09A95660F771F881FDAF736
:100E6000880F9695879597F90895F7D080F09F376A
:100E700040F491110EF009C160E070E080E89FEB52
:100E8000089526F41B16611D711D811D79C093C044
:100E9000A3D018F011F0A7D038F49BC0F6C0E92F0A
:100EA000BAD0B0F35523C9F3E7FB62177307840781
:100EB0009507A8F199F3E92FFF2788232AF03197A6
:100EC000660F771F881FDAF7952F5527442332F0D6
:100ED00091505040220F331F441FD2F7BB27E91B0C
:100EE000F50B621B730B840BB109C1F222F4620F84
:100EF000731F841FB11D31972AF0660F771F881F5B
:100F0000BB1FEFCF915050405AF041F0882332F090
:100F1000660F771F881F91505040C1F793954BC0C3
:100F20008695779567959F5FD9F7F8CF990F000859
:100F3000550FAA0BE0E8FEEF16161706E807F907AB
:100F4000C0F012161306E407F50798F0621B730B46
:100F5000840B950B39F40A2661F0232B242B252BC7
:100F600021F408950A2609F4A140A6958FEF811D6A
:100F7000811D089597F99F6780E870E060E008950B
:100F8000882371F4772321F09850872B762F07C0A0
:100F9000662311F499270DC09051862B70E060E014
:100FA0002AF09A95660F771F881FDAF7880F9695B3
:100FB000879597F908959F3F31F0915020F48795D8
:100FC00077956795B795880F911D9695879597F9B1
:100FD00008959FEF80EC089500240A9416161706D2
:100FE00018060906089500240A941216130614061A
:100FF00005060895092E0394000C11F4882352F07D
:10100000BB0F40F4BF2B11F460FF04C06F5F7F4F34
:101010008F4F9F4F089557FD9058440F551F59F01B
:101020005F3F71F04795880F97FB991F61F09F3FD5
:1010300079F087950895121613061406551FF2CFFE
:101040004695F1DF08C0161617061806991FF1CF4E
:1010500086957105610508940895E5DFA0F0BEE767
:10106000B91788F4BB279F3860F41616B11D672F97
:10107000782F8827985FF7CF869577956795B11D6C
:1010800093959639C8F30895E894BB276627772788
:10109000CB0197F908954ADF08F48FEF08951F9266
:1010A0000F920FB60F9211242F933F938F939F931C
:1010B000AF93BF938091360290913702A09138028E
:1010C000B09139023091350223E0230F2D3758F5C6
:1010D0000196A11DB11D2093350280933602909395
:1010E0003702A0933802B093390280913A0290916E
:1010F0003B02A0913C02B0913D020196A11DB11DA1
:1011000080933A0290933B02A0933C02B0933D023D
:10111000BF91AF919F918F913F912F910F900FBEF3
:101120000F901F90189526E8230F0296A11DB11D60
:10113000D2CF789484B5826084BD84B5816084BD4B
:1011400085B5826085BD85B5816085BDEEE6F0E040
:10115000808181608083E1E8F0E01082808182609C
:101160008083808181608083E0E8F0E0808181601D
:101170008083E1EBF0E0808184608083E0EBF0E04D
:10118000808181608083E1E9F0E0808182608083FA
:10119000808181608083E0E9F0E0808181608083EC
:1011A000E1EAF0E0808182608083808181608083D9
:1011B000E0EAF0E0808181608083E1E2F1E080811B
:1011C00082608083808181608083E0E2F1E08081C1
:1011D00081608083EAE7F0E08081846080838081A1
:1011E0008260808380818160808380818068808349
:1011F0001092C1000895863308F0865320917B0039
:10120000982F9870277F922B90937B002091080253
:1012100090E4299F900111248770822B80937C0099
:1012200080917A00806480937A0080917A0086FDB4
:10123000FCCF809178009091790008951F93CF930F
:10124000DF93182FEB0161E033D1209731F460E098
:10125000812FDF91CF911F9167C1CF3FD10511F44D
:1012600061E0F6CFE12FF0E0EC51FF4FE491E15067
:10127000E23108F0B2C0F0E08827EF5BF64F8F4F05
:1012800029C553095B0960096A097409ED097E09DA
:1012900086098E099809A209AC09BB09C509ED099F
:1012A000CF09D909E30984B5806884BDC7BDDF9142
:1012B000CF911F91089584B5806284BDC8BDF7CFDA
:1012C00080918000806880938000D0938900C093D3
:1012D0008800EDCF80918000806280938000D09361
:1012E0008B00C0938A00E3CF809180008860809358
:1012F0008000D0938D00C0938C00D9CF8091B00036
:1013000080688093B000C093B300D1CF8091B000CB
:1013100080628093B000C093B400C9CF80919000E8
:10132000806880939000D0939900C0939800BFCFBD
:1013300080919000806280939000D0939B00C09336
:101340009A00B5CF80919000886080939000D093F0
:101350009D00C0939C00ABCF8091A00080688093DB
:10136000A0008091A0008F7B8093A000D093A90063
:10137000C093A8009CCF8091A00080628093A000C1
:10138000D093AB00C093AA0092CF8091A000886058
:101390008093A000D093AD00C093AC0088CF809123
:1013A0002001806880932001D0932901C0932801F7
:1013B0007ECF80912001806280932001D0932B0109
:1013C000C0932A0174CF809120018860809320010E
:1013D000D0932D01C0932C016ACFC038D1050CF0F9
:1013E0003FCF35CF8150823108F059C0E82FF0E06F
:1013F0008827E350F64F8F4F6DC41D0A210A0F0A4C
:10140000150A190A4F0A240A2A0A2E0A340A380A27
:101410003C0A420A460A4F0A4A0A500A540A809174
:1014200080008F77809380000895809180008F7D69
:10143000F9CF80918000877FF5CF84B58F7784BD09
:10144000089584B58F7DFBCF8091B0008F77809316
:10145000B00008958091B0008F7DF9CF8091900009
:101460008F77809390000895809190008F7DF9CFC1
:1014700080919000877FF5CF8091A0008F77809337
:10148000A00008958091A0008F7DF9CF8091A000E9
:10149000877FF5CF809120018F7780932001089579
:1014A000809120018F7DF9CF80912001877FF5CF3A
:1014B000CF93DF9390E0FC01E65DFE4F24918059CD
:1014C0009E4FFC0184918823C9F090E0880F991FFA
:1014D000FC01E053FE4FA591B491FC01EA54FE4F8C
:1014E000C591D49161110DC09FB7F8948C9120954E
:1014F00082238C938881282328839FBFDF91CF91FB
:101500000895623051F49FB7F8943C91822F8095F2
:1015100083238C93E8812E2BEFCF8FB7F894EC9137
:101520002E2B2C938FBFEACF1F93CF93DF93282FBF
:1015300030E0F901EC51FF4F8491F901E65DFE4F77
:10154000D491F901E059FE4FC491CC23A1F0162F9C
:10155000811148DFEC2FF0E0EE0FFF1FEA54FE4F41
:10156000A591B4918FB7F894EC91111108C0D09562
:10157000DE23DC938FBFDF91CF911F910895DE2B87
:10158000F8CFFC01918D228D892F90E0805C9F4FD8
:10159000821B91098F7399270895FC01918D828D8B
:1015A000981731F0828DE80FF11D858D90E0089538
:1015B0008FEF9FEF0895FC01918D828D981761F058
:1015C000A28DAE0FBF2FB11D5D968C91928D9F5F46
:1015D0009F73928F90E008958FEF9FEF0895FC0125
:1015E000538D448D252F30E0842F90E0821B930B88
:1015F000541710F0CF96089501970895FC01A48D1B
:10160000A80FB92FB11DA35ABF4F2C91848D90E024
:1016100001968F739927848FA689B7892C93A08907
:10162000B1898C91837080648C93938D848D981391
:1016300006C00288F389E02D80818F7D8083089524
:10164000CF93DF93EC01888D8823B1F0AA89BB8901
:10165000E889F9898C9185FD03C0808186FD0CC0E5
:101660000FB607FCF7CF8C9185FFF2CF808185FF05
:10167000EDCFCE01C3DFEACFDF91CF910895EF9296
:10168000FF920F931F93CF93DF93EC0181E0888F3C
:101690009B8D8C8D98131AC0E889F989808185FF0C
:1016A00015C09FB7F894EE89FF896083E889F989AE
:1016B00080818370806480839FBF81E090E0DF91B0
:1016C000CF911F910F91FF90EF900895F62E0B8D03
:1016D00010E00F5F1F4F0F731127E02E8C8D8E11BE
:1016E0000BC00FB607FCFACFE889F989808185FF26
:1016F000F5CFCE0183DFF2CFEB8DEC0FFD2FF11D87
:10170000E35AFF4FF0829FB7F8940B8FEA89FB8969
:1017100080818062D0CFCF92DF92EF92FF921F93B1
:10172000CF93DF93EC016A017B01122FE889F989DD
:1017300082E08083C11481EED806E104F10499F0BF
:1017400060E079E08DE390E0A7019601A1D22150FD
:101750003109410951095695479537952795211526
:1017600080E1380790F0E889F989108260E874E830
:101770008EE190E0A70196018BD2215031094109F9
:1017800051095695479537952795EC85FD8530830A
:10179000EE85FF852083188EEC89FD891083EA8908
:1017A000FB89808180618083EA89FB8980818860F0
:1017B0008083EA89FB89808180688083EA89FB894C
:1017C00080818F7D8083DF91CF911F91FF90EF907B
:1017D000DF90CF9008951F920F920FB60F921124B1
:1017E0000BB60F922F938F939F93EF93FF93E091FC
:1017F0004E02F0914F028081E0915402F091550227
:1018000082FD1DC09081809157028F5F8F73209160
:101810005802821741F0E0915702F0E0E25CFD4F80
:10182000958F80935702FF91EF919F918F912F9108
:101830000F900BBE0F900FBE0F901F9018958081D8
:10184000F2CF1F920F920FB60F9211240BB60F9288
:101850002F933F934F935F936F937F938F939F93B8
:10186000AF93BF93EF93FF938EE392E0C7DEFF91B8
:10187000EF91BF91AF919F918F917F916F915F9108
:101880004F913F912F910F900BBE0F900FBE0F9075
:101890001F901895EEE3F2E01382128288EE93E037
:1018A000A0E0B0E084839583A683B7838FE092E0C5
:1018B0009183808385EC90E09587848784EC90E029
:1018C0009787868780EC90E0918B808B81EC90E00D
:1018D000938B828B82EC90E0958B848B86EC90E0EE
:1018E000978B868B118E128E138E148E08951F92F5
:1018F0000F920FB60F9211240BB60F922F938F9366
:101900009F93EF93FF93E091EB02F091EC028081C3
:10191000E091F102F091F20282FD1DC09081809170
:10192000F4028F5F8F732091F502821741F0E091EE
:10193000F402F0E0E552FD4F958F8093F402FF91A1
:10194000EF919F918F912F910F900BBE0F900FBE33
:101950000F901F9018958081F2CF1F920F920FB6B3
:101960000F9211240BB60F922F933F934F935F93D7
:101970006F937F938F939F93AF93BF93EF93FF9357
:101980008BED92E03BDEFF91EF91BF91AF919F9184
:101990008F917F916F915F914F913F912F910F9018
:1019A0000BBE0F900FBE0F901F901895EBEDF2E05D
:1019B0001382128288EE93E0A0E0B0E084839583E6
:1019C000A683B7838FE092E0918380838DEC90E0D3
:1019D000958784878CEC90E09787868788EC90E0E9
:1019E000918B808B89EC90E0938B828B8AEC90E0DA
:1019F000958B848B8EEC90E0978B868B118E128E5C
:101A0000138E148E08951F920F920FB60F92112409
:101A10000BB60F922F938F939F93EF93FF93E091C9
:101A20008803F09189038081E0918E03F0918F0308
:101A300082FD1DC09081809191038F5F8F732091F3
:101A40009203821741F0E0919103F0E0E858FC4FD7
:101A5000958F80939103FF91EF919F918F912F919B
:101A60000F900BBE0F900FBE0F901F9018958081A6
:101A7000F2CF1F920F920FB60F9211240BB60F9256
:101A80002F933F934F935F936F937F938F939F9386
:101A9000AF93BF93EF93FF9388E793E0AFDDFF91A0
:101AA000EF91BF91AF919F918F917F916F915F91D6
:101AB0004F913F912F910F900BBE0F900FBE0F9043
:101AC0001F901895E8E7F3E01382128288EE93E006
:101AD000A0E0B0E084839583A683B7838FE092E093
:101AE0009183808385ED90E09587848784ED90E0F5
:101AF0009787868780ED90E0918B808B81ED90E0D9
:101B0000938B828B82ED90E0958B848B86ED90E0B9
:101B1000978B868B118E128E138E148E08951F92C2
:101B20000F920FB60F9211240BB60F922F938F9333
:101B30009F93EF93FF93E0912504F0912604808119
:101B4000E0912B04F0912C0482FD1DC090818091C6
:101B50002E048F5F8F7320912F04821741F0E09144
:101B60002E04F0E0EB5EFB4F958F80932E04FF91E7
:101B7000EF919F918F912F910F900BBE0F900FBE01
:101B80000F901F9018958081F2CF1F920F920FB681
:101B90000F9211240BB60F922F933F934F935F93A5
:101BA0006F937F938F939F93AF93BF93EF93FF9325
:101BB00085E194E023DDFF91EF91BF91AF919F917B
:101BC0008F917F916F915F914F913F912F910F90E6
:101BD0000BBE0F900FBE0F901F901895E5E1F4E03B
:101BE0001382128288EE93E0A0E0B0E084839583B4
:101BF000A683B7838FE092E09183808385E391E0B1
:101C00009587848784E391E09787868780E391E0D6
:101C1000918B808B81E391E0938B828B82E391E0C7
:101C2000958B848B86E391E0978B868B118E128E39
:101C3000138E148E0895AF92BF92CF92DF92EF92DF
:101C4000FF920F931F93CF93DF936C017B018B0166
:101C5000040F151FEB015E01AE18BF08C017D107B6
:101C600059F06991D601ED91FC910190F081E02D40
:101C7000C6011995892B79F7C501DF91CF911F9185
:101C80000F91FF90EF90DF90CF90BF90AF900895AD
:101C9000A1E21A2EAA1BBB1BFD010DC0AA1FBB1F70
:101CA000EE1FFF1FA217B307E407F50720F0A21BE2
:101CB000B30BE40BF50B661F771F881F991F1A944F
:101CC00069F760957095809590959B01AC01BD0179
:101CD000CF010895EE0FFF1F881F8BBF0790F6916D
:081CE000E02D1994F894FFCFE8
:101CE800000080BF00008040013002000000003F7B
:0E1CF8000B1B0EEF0A200BC10ADB0ACD0A00FF
:00000001FF
