:1000000005C100000C94192F0C94442F0C946F2FF1
:100010000C949A2F0C94C52F0C94F02F0C941B3039
:100020000C94463024C1000022C1000020C1000011
:100030001EC100001CC100001AC1000018C1000050
:1000400016C1000014C1000012C1000010C1000060
:100050000EC100000CC100000AC100000C947130F8
:1000600006C100000C9490340C94C63400C100000A
:10007000FEC00000FCC00000FAC00000F8C0000094
:10008000F6C00000F4C00000F2C00000F0C00000A4
:100090000C941C350C945235EAC00000E8C00000F6
:1000A000E6C00000E4C00000E2C00000E0C00000C4
:1000B000DEC00000DCC00000DAC00000D8C00000D4
:1000C000D6C00000D4C000000C945B2A0C94A83564
:1000D0000C94DE35CCC000000C9434360C946A3697
:1000E000C6C0000000000A0B02090C0D0E08070331
:1000F00004010000000000000000000000000000FB
:1001000000000000000000000000000000000000EF
:1001100012111000000000000000000000000000AC
:100120000000000000000000000001021020200874
:100130000810204010204080020102010804020142
:1001400001020408102040808040201008040201B1
:10015000800402018040201008040201080402010A
:100160000102040810204080010204081020408091
:1001700005050505070508080808020202020A0A23
:100180000808040404040101010101010101030341
:10019000030303030303040707070C0C0C0C0C0CEC
:1001A0000C0C0202020206060606060606060B0BE9
:1001B0000B0B0B0B0B0B000020002300260029006B
:1001C0002C002F003200000100000301060109018C
:1001D00000002200250028002B002E0031003400F2
:1001E00002010000050108010B01000021002400AC
:1001F00027002A002D003000330001010000040117
:1002000007010A01EF347B350736933611241FBEF0
:10021000CFEFD1E2DEBFCDBF00E00CBF13E0A0E026
:10022000B2E0E6E8FEE600E00BBF02C007900D92E8
:10023000AC30B107D9F729E0ACE0B3E001C01D92C2
:10024000A231B207E1F711E0C6E0D1E000E006C05C
:1002500021970109802FFE010E941037C230D1077B
:1002600080E00807A9F70E94B72B0C944137C8CE4D
:10027000CF92DF92EF92FF920F931F93E82FF92F07
:1002800005C0015011092109310961F190819623BE
:100290009417B9F305C0015011092109310911F171
:1002A000908196239413F7CFC12CD12CE12CF12C03
:1002B0000AC08FEFC81AD80AE80AF80A0C151D05FB
:1002C0002E053F0579F080818623841791F36C2DEC
:1002D0007D2D8E2D9F2D1F910F91FF90EF90DF9020
:1002E000CF90089560E070E080E090E01F910F9162
:1002F000FF90EF90DF90CF900895CF93DF93882306
:1003000049F0EB0181500E94783199838883DF9115
:10031000CF910895FB0111821082F9CF0F931F93A3
:100320008B019C0183E036952795179507958A9553
:10033000D1F70B5E1C4F462F477021E030E0F901EA
:1003400002C0EE0FFF1F4A95E2F7AF01F8012081CE
:100350002423CB010196211102C090E080E01F917F
:100360000F9108950F931F938B019C0183E03695A5
:100370002795179507958A95D1F7677081E090E0EA
:1003800001C0880F6A95EAF7F801EB5EFC4F208107
:10039000452B31F48095822380831F910F9108951E
:1003A000822BFACFCF92DF92EF92FF92CF93DF931F
:1003B0006B017C0160E086E3C816D104E104F1041E
:1003C00090F486E38C0D0E94D532E6012196AE01B1
:1003D000C701B601C7DFCE01DF91CF91FF90EF904B
:1003E000DF90CF9008958C2DEECF882341F081507F
:1003F000682F70E090E080E050E040E0B3CF0895D7
:10040000611102C00C94D5326130E1F362E0FACFA1
:10041000662319F061E00C94113360E0FCCFCF92B9
:10042000DF92EF92FF92CF93882351F16A017B0113
:10043000CFEFC80F20E030E0A901CB01B6010E9448
:10044000472C87FF11C0C701B60190580E94B82CF5
:100450009B01AC016C2F70E090E080E0CF91FF90A9
:10046000EF90DF90CF90B2C0C701B6010E94B32CCD
:100470008C2FCF91FF90EF90DF90CF900C949B3119
:10048000CF91FF90EF90DF90CF9008950F931F933F
:100490008B019C0183E036952795179507958A95E2
:1004A000D1F7045F1C4F462F477021E030E0F9017F
:1004B00002C0EE0FFF1F4A95E2F7AF01F80120815D
:1004C0002423CB010196211102C090E080E01F910E
:1004D0000F9108950F931F938B019C0183E0369534
:1004E0002795179507958A95D1F7677081E090E079
:1004F00001C0880F6A95EAF7F801E45FFC4F20819C
:10050000452B31F48095822380831F910F910895AC
:10051000822BFACF2F923F924F925F926F927F92EF
:100520008F929F92AF92BF92CF92DF92EF92FF9203
:100530000F931F93CF93DF93D62EC72E782E692E5D
:1005400049015A01280161E08D2D0E94D532CD2D3F
:10055000DC2D8E010F5F1F4FA8016D2D7C2D872D87
:10056000962DB8DF20E030E0A901C201B7010E945A
:10057000372E181664F4C201B7010E94B82C2B0163
:10058000C501B4010E94B82CA201CE0123D0C8013C
:10059000DF91CF911F910F91FF90EF90DF90CF905F
:1005A000BF90AF909F908F907F906F905F904F9093
:1005B0003F902F900895882341F08150682F70E07C
:1005C00090E080E050E040E085CF0895862FB901AB
:1005D0000C949B319C01FC01EC51FF4FE491E150E4
:1005E000E231E0F4F0E08827E750FD4F8F4F0C94A4
:1005F00010370B03120315032C0341030E0356039C
:10060000620366037D039203A703BE03D3030E03B5
:10061000E803FF03140484B5806884BD60E0822F82
:100620000C94113384B58062F8CF809180008C7F68
:1006300082608093800080918100807E8061682B41
:1006400060938100509387004093860080918000E2
:10065000806880938000E2CF809180008C7F8260F0
:100660008093800080918100807E8061682B609300
:1006700081005093870040938600809180008062C3
:10068000E8CF809180008C7F826080938000809191
:100690008100807E8061682B609381005093870089
:1006A00040938600809180008860D3CF8091B00015
:1006B00080688093B0008091B100887F682B609340
:1006C000B100ACCF8091B0008062F3CF80919000F8
:1006D0008C7F82608093900080919100807E806109
:1006E000682B6093910050939700409396008091FF
:1006F000900080688093900091CF809190008C7FD3
:1007000082608093900080919100807E8061682B50
:1007100060939100509397004093960080919000D1
:100720008062E8CF809190008C7F826080939000FF
:1007300080919100807E8061682B6093910050933E
:10074000970040939600809190008860D3CF80916D
:10075000A0008C7F82608093A0008091A100807EA9
:100760008061682B6093A1005093A7004093A6007E
:100770008091A00080688093A00050CF8091A0005D
:100780008C7F82608093A0008091A100807E806138
:10079000682B6093A1005093A7004093A60080911E
:1007A000A0008062E8CF8091A0008C7F826080935F
:1007B000A0008091A100807E8061682B6093A100E1
:1007C0005093A7004093A6008091A0008860D3CFEB
:1007D000809120018C7F8260809320018091210193
:1007E000807E8061682B60932101509327014093A4
:1007F0002601809120018068809320010FCF809195
:1008000020018C7F82608093200180912101807E75
:100810008061682B6093210150932701409326014A
:10082000809120018062E8CF809120018C7F8260DE
:100830008093200180912101807E8061682B6093EC
:100840002101509327014093260180912001886067
:10085000D3CFCF93C62F61E00E94D53260E08C2FBA
:10086000CF910C94D5324F925F926F927F92AF925C
:10087000BF92CF92DF92EF92FF920F931F93CF938D
:10088000DF935C01162FC42FD22F611104C061E0E9
:10089000842F0E94D53260E08C2F0E9411330E9479
:1008A000BB302B013C010E94BB30641975098609DD
:1008B00097096630710581059105A8F361E08C2FD9
:1008C0000E9411330E94BB302B013C01C02ED12C61
:1008D000F12CE12C0E94BB30641975098609970937
:1008E000C616D706E806F906A8F760E08C2F0E9426
:1008F0001133111104C060E08D2F0E94D53220E425
:1009000032E44FE050E061E08D2F0E943E33F5016C
:100910006083718382839383DF91CF911F910F91C5
:10092000FF90EF90DF90CF90BF90AF907F906F904F
:100930005F904F90089590E080E008950F931F938B
:10094000009709F489C06115710509F485C000910B
:100950003F021091400220914102309142020E3F2D
:100960001F4F2F4F3F4F09F068C04FEF5FEFBA01A5
:1009700040933F02509340026093410270934202C1
:1009800040913F02509140026091410270914202B9
:10099000DC011296ED91FC9180819181A281B3815D
:1009A0008093C6039093C703A093C803B093C90371
:1009B00084819581A681B7818093C2039093C303FC
:1009C000A093C403B093C50380859185A285B385A8
:1009D0008093BE039093BF03A093C003B093C10361
:1009E00084859585A685B7858093BA039093BB03CC
:1009F000A093BC03B093BD031092B6031092B7034B
:100A00001092B8031092B9030E94470E8CE69EE044
:100A100090931F0380931E039093210380932003E0
:100A20000E94360D009731F421E030E03093CB0383
:100A30002093CA031F910F91089500913F021091D6
:100A400040022091410230914202DB010D931D933F
:100A50002D933C93139794CF8FEF9FEFEBCF8F9213
:100A60009F92AF92BF92CF92DF92EF92FF921F932D
:100A7000CF93DF934B015C011091CD0382E090E0B6
:100A80009093CB038093CA0381149104A104B10411
:100A900041F48091CD03811104C08091CC03C1E069
:100AA0008111C0E0C12CD12C76018091CD03811140
:100AB00006C08091CC03811102C0CC23D9F083E021
:100AC00090E09093CB038093CA03CC2379F1CCE9D7
:100AD000DFEF111102C00E94D011CE01DF91CF9142
:100AE0001F91FF90EF90DF90CF90BF90AF909F90BD
:100AF0008F9008956AE070E080E090E00E94E0301E
:100B000080E1C80E87E2D81EE11CF11C8FEF881629
:100B10009806A806B80631F0C1E08C149D04AE0416
:100B2000BF0408F0C0E080E0D5D7BFCFD0E0C0E080
:100B3000D0CFCF92DF92EF92FF920F931F93CF937C
:100B4000DF938F3F910511F008F050C02091CA0348
:100B50003091CB032330310539F02091CA03309115
:100B6000CB032130310531F424E030E03093CB0366
:100B70002093CA036A017B01EC0182309105A0F049
:100B800011E0AE01C701B60170D7AB01BC01CE01C7
:100B90001123F9F0DF91CF911F910F91FF90EF900A
:100BA000DF90CF900C94F9138C01000F111F025E9F
:100BB0001C4FD8018D919C91892B11F30E94031435
:100BC0000297F1F6D801ED91FC91CE011995182FFD
:100BD000D8CF0E941B1490E080E0DF91CF911F914D
:100BE0000F91FF90EF90DF90CF9008958FEF9FEFE0
:100BF000F4CF80E06FC7CF93DF9386E090E09093CF
:100C0000CB038093CA03BFD7EC01EEE1F3E084E0AD
:100C1000DF011D928A95E9F70E9468111092CB03BB
:100C20001092CA03CE01DF91CF9108958091CC0339
:100C300008958091B503089560933F027093400238
:100C4000809341029093420290E080E00895CF9318
:100C500080917903882329F0813039F080917A03DB
:100C600001C081E08093780302C010927803E09184
:100C7000780384E0E89FF0011124E25BFC4F85A536
:100C800096A5A7A5B0A98093740390937503A0932C
:100C90007603B09377038FEF80937803C1E020E071
:100CA00030E0A90160910402709105028091060272
:100CB000909107020E94472C811101C0C0E08091F1
:100CC000DA08C827C093DA0884E08093DC08CF9163
:100CD0000895CF9380918803882329F0813039F0DB
:100CE0008091890301C081E08093870302C0109244
:100CF0008703E091870384E0E89FF0011124E65721
:100D0000FC4F80819181A281B38180938303909372
:100D10008403A0938503B09386038FEF80938703AA
:100D2000C1E020E030E0A901609108027091090261
:100D300080910A0290910B020E94472C811101C000
:100D4000C0E08091D908C827C093D90884E0809377
:100D5000DB08CF910895FC0191E08091930381110C
:100D600090E091830895CF92DF92EF92FF9280916D
:100D700093038F5F8436E0F580939303C0906803FC
:100D8000D0906903E0906A03F0906B038FEFC81A6C
:100D9000D80AE80AF80AC0926803D0926903E09280
:100DA0006A03F0926B03C701B6010E94E42C9B0119
:100DB000AC0160916C0370916D0380916E03909112
:100DC0006F030E943B2E60936403709365038093CE
:100DD00066039093670380917803882361F08130E4
:100DE00071F081E090917A03992331F080E004C0A2
:100DF00010929303C3CF81E08093790302C01092D5
:100E000079038091790394E0899FF0011124E25BDA
:100E1000FC4FC5A6D6A6E7A6F0AA80937A038FEF6B
:100E20008093790380918703882349F0813059F0BA
:100E300081E090918903992319F080E001C081E05D
:100E40008093880302C0109288038091880394E005
:100E5000899FF0011124E657FC4FC082D182E282C3
:100E6000F382809389038FEF80938803FF90EF9044
:100E7000DF90CF9008958F929F92AF92BF92CF92C2
:100E8000DF92EF92FF920F93CF93DF9300D000D0C9
:100E9000CDB7DEB78091E4088150823008F06DC193
:100EA00083E08093E4088091D9088093F6088091CC
:100EB000D80881111092D8080AE023E342E361E0E8
:100EC000CE010196D0DC69817A818B819C810E9460
:100ED000E42C2EEA34ED43EB59E30E943B2E20E054
:100EE00030E040E05FE30E943B2E20910C02309105
:100EF0000D0240910E0250910F020E943B2E6B0199
:100F00007C01C092E508D092E608E092E708F092F2
:100F1000E80820E030E048E452E40E94372E18163A
:100F20000CF02DC18091330290913402A0913502D2
:100F3000B09136028093E9089093EA08A093EB08F9
:100F4000B093EC08C0900002D0900102E090020241
:100F5000F0900302A70196016091B8087091B9085A
:100F60008091BA089091BB080E94472C882341F0D9
:100F7000C092B808D092B908E092BA08F092BB08C3
:100F800066E370E080E090E0C9D99093B708809361
:100F9000B60843E050E0BE016B5F7F4FAED92091B1
:100FA000180230911902AD81BE810E9418376B0181
:100FB0007C01C092F108D092F208E092F308F0921E
:100FC000F4082091100230911102409112025091C8
:100FD00013026091E9087091EA088091EB08909102
:100FE000EC080E943B2E6093ED087093EE0880930E
:100FF000EF089093F0082091F608222309F444C1E9
:101000000E94212D6B017C012ED4811135C1C701B5
:10101000B601E4D3811130C120E030E040E853E470
:10102000C701B6010E943B2D6B017C0120E030E03E
:10103000A9010E94472C87FF22C1C701B601905821
:101040000E94B82C61956093F508C090E908D09093
:10105000EA08E090EB08F090EC082DEC3CEC4CE456
:101060005EE3C701B6010E94372E87FD17C12AE94A
:1010700039E949E15FE3C701B6010E94472C87FFC8
:101080000DC180903B0290903C02A0903D02B09038
:101090003E0265E070E080E090E0F8D97C0190933A
:1010A000D3088093D2088091F608882309F4FFC002
:1010B00020E030E0A901C501B4010E94472C88233B
:1010C00009F4F5C060911E0262956695677070E044
:1010D00090E080E00E94E62C20E034E64DE356E408
:1010E0000E943B2E20E030E04FE753E40E944B2C5F
:1010F000AB01BC017058C70192D96BE070E080E091
:1011000090E0C4D97C019093CB088093CA08609189
:10111000F50870E090E080E00E94E42CAB01BC0197
:10112000C7017DD96091DA086093F7088DE070D926
:101130008091700390917103A0917203B091730339
:101140000196A11DB11D8093700390937103A0932C
:101150007203B093730326960FB6F894DEBF0FBEEA
:10116000CDBFDF91CF910F91FF90EF90DF90CF90A7
:10117000BF90AF909F908F90089580E092CE20E036
:1011800030E048E452E4C701B6010E94472C18162B
:101190009CF020E030E040E252E4C701B6010E943A
:1011A000372E18164CF480912F0290913002A091A6
:1011B0003102B0913202BECE20E030E040E252E493
:1011C000C701B6010E94472C18169CF020E030E0C1
:1011D00040EF51E4C701B6010E94372E18164CF4B7
:1011E00080912B0290912C02A0912D02B0912E02A1
:1011F000A1CE20E030E040EF51E4C701B6010E94EB
:10120000472C18169CF020E030E040EA51E4C7017A
:10121000B6010E94372E18164CF480912702909147
:101220002802A0912902B0912A0284CE20E030E069
:1012300040EA51E4C701B6010E94472C18169CF001
:1012400020E030E040E251E4C701B6010E94372EB1
:1012500018164CF48091230290912402A09125024B
:10126000B091260267CE80911F0290912002A0913A
:101270002102B09122025ECEC12CD12C7601C70191
:10128000B6010E94B82CDFCE81E1F694E794D794A2
:10129000C7948A95D1F7C092F508D7CE80903702CF
:1012A00090903802A0903902B0903A02F2CE40E01D
:1012B00050E060E070E81FCF8F929F92AF92BF9294
:1012C000EF92FF920F931F93CF9384E090E04FD261
:1012D00080E090E0A0E8BFEB8093940390939503A7
:1012E000A0939603B09397038FE692E1A3E8BAE345
:1012F00080936C0390936D03A0936E03B0936F0380
:1013000089EF95E5A0E3BCE28093520390935303E9
:10131000A0935403B093550386E09DEFA2EDB1ED89
:101320008093560390935703A0935803B0935903A7
:1013300083EF9BEAA5E1B3E480935A0390935B03A8
:10134000A0935C03B0935D0383E993E3ACEDB8E84D
:1013500080935E0390935F03A0936003B093610357
:1013600082E493E0909351038093500382E293E0F0
:10137000909343038093420389E792E09093230381
:101380008093220390932503809324039093270353
:10139000809326032CED38E0309329032093280313
:1013A00024EE38E030932B0320932A0323EE38E019
:1013B00030932D0320932C0390932F0380932E03BF
:1013C00090933103809330032BED38E03093330357
:1013D000209332032EED38E030933503209334030D
:1013E0002DED38E0309337032093360322EE38E0BA
:1013F000309339032093380321EE38E030933B03D8
:1014000020933A0320EE38E030933D0320933C03D1
:101410002FED38E030933F0320933E039093410338
:101420008093400382E693E09093470380934603C2
:1014300082E593E0909345038093440384E693E030
:1014400090934903809348038FEF809378038093B0
:10145000790310927A038093880310928903409154
:101460008A0350918B0360918C0370918D0340939C
:101470008303509384036093850370938603809362
:10148000870380911C028093D90842E050E069E60E
:1014900076E081E00E949F2E80917903882329F0D5
:1014A000813039F080917A0301C081E08093780324
:1014B00002C010927803E091780384E0E89FF00185
:1014C0001124E25BFC4F85A596A5A7A5B0A9809342
:1014D000740390937503A0937603B09377038FEF13
:1014E0008093780380911A028093DA0842E050E0FA
:1014F00067E276E080E00E949F2E812C912C5401BF
:1015000083948092D4089092D508A092D608B09285
:10151000D70863E382E39DD91092D8081092B008EF
:101520008091000290910102A0910202B091030209
:101530008093B8089093B908A093BA08B093BB08F9
:101540008092B1089092B208A092B308B092B40809
:1015500066E370E080E090E00E94D2019093B708CB
:101560008093B608C1E0C093B5081092CC08809271
:10157000CD089092CE08A092CF08B092D008E12C6E
:1015800014E6F12E0DE316E420E030E040E85FE3DE
:1015900065E070E080E090E00E948A029093D308BA
:1015A0008093D208C093D1081092C4088092C508D5
:1015B0009092C608A092C708B092C808E12CF12CFE
:1015C0008701A80197016BE070E080E090E00E9445
:1015D0008A029093CB088093CA08C093C9081092DE
:1015E000BC088092BD089092BE08A092BF08B0923D
:1015F000C00861E08DE00E940002C093C108CF9155
:101600001F910F91FF90EF90BF90AF909F908F90A0
:1016100008958091B00881111FC081E08093B008C7
:101620008091B1089091B208A091B308B091B4082C
:101630000197A105B10581F48091B508882361F077
:1016400066E370E080E090E00E948E019093B7081E
:101650008093B6080E94F5018091CC0881112FC0BB
:1016600081E08093CC088091CD089091CE08A09124
:10167000CF08B091D0080197A105B10501F580917F
:10168000D1088823E1F065E070E080E090E00E94FE
:1016900046029093D3088093D20840E050E060E087
:1016A00070E80E940F0265E070E080E090E00E9428
:1016B00046029093D3088093D2080E94DB02809167
:1016C000C40881112EC081E08093C4088091C508B0
:1016D0009091C608A091C708B091C8080197A105CC
:1016E000B105F9F48091C9088823D9F06BE070E066
:1016F00080E090E00E9446029093CB088093CA0855
:1017000040E050E0BA010E940F026BE070E080E020
:1017100090E00E9446029093CB088093CA080E94F2
:10172000DB028091BC08811103C081E08093BC087A
:10173000089560E070E080E89FE7089560E070E061
:1017400080E89FE7089560E070E080E89FEF0895EB
:1017500060E070E080E89FEF089560E070E080EC6A
:101760009FEF089560E070E080EC9FEF0895F5DF53
:101770006093040970930509809306099093070903
:10178000F1DF6093F8087093F9088093FA0890935A
:10179000FB08CFDF60930009709301098093020971
:1017A00090930309CBDF6093FC087093FD0880934E
:1017B000FE089093FF08C7DF60930809709309093A
:1017C00080930A0990930B09C3DF60930C0970930F
:1017D0000D0980930E0990930F090895CF92DF921F
:1017E000EF92FF92CF936B017C01AC019B01609162
:1017F00000097091010980910209909103090E94EA
:10180000472CC1E0882371F0A70196016091080977
:101810007091090980910A0990910B090E94472C47
:101820008111C0E08C2FCF91FF90EF90DF90CF908F
:1018300008950F931F938B019C0100271127207897
:101840003F770115110520483F4749F4AB01BC0122
:101850006F77772781E0452B462B472B09F480E0F3
:101860001F910F910895E5CF4F925F926F927F92F3
:101870008F929F92AF92BF92CF92DF92EF92FF92A0
:101880000F931F93F8944090A5035090A603609087
:10189000A7037090A803C0909903D0909A03E0909A
:1018A0009B03F0909C03452B09F0A4C09B01AC0165
:1018B000241935094609570929013A010091A10364
:1018C0001091A2032091A3033091A4034801590170
:1018D000840C951CA61CB71C80169106A206B306A4
:1018E000A0F400919D0310919E0320919F033091DD
:1018F000A0030F5F1F4F2F4F3F4F00939D03109387
:101900009E0320939F033093A0038092A1039092A3
:10191000A203A092A303B092A40300919D0310918F
:101920009E0320919F033091A0038092A90390927F
:10193000AA03A092AB03B092AC030093AD03109343
:10194000AE032093AF033093B0036093A50370936D
:10195000A6038093A7039093A803A8EEB3E0A30186
:1019600092010E9427376C0D7D1D8E1D9F1D609377
:10197000990370939A0380939B0390939C03009127
:101980003F021091400220914102309142020F3FEC
:101990001F4F2F4F3F4FF1F000913F021091400237
:1019A00020914102309142020E3F1F4F2F4F3F4F77
:1019B00089F0C0903F02D0904002E0904102F09048
:1019C000420221E08C149D04AE04BF0408F420E020
:1019D0002093B50378941F910F91FF90EF90DF90C3
:1019E000CF90BF90AF909F908F907F906F905F90BF
:1019F0004F9008954B015C0184189508A608B7081C
:101A0000A3019201261B370B480B590B6415750572
:101A100086059705D0F082169306A406B50640F415
:101A200020E030E0A90181149104A104B10491F4F3
:101A3000A8EEB3E00E942737A7019601261B370BBB
:101A4000480B590BCA01B901C5CF82169306A406EB
:101A5000B50670F7A8EEB3E0A50194010E94273700
:101A60006C0D7D1D8E1D9F1DB5CFFECECF93DF93D8
:101A700000D01F92CDB7DEB71C821B821A8219825A
:101A80001092B1031092B2031092B3031092B403F8
:101A9000BE016F5F7F4FCE0103960E942B2A6981A2
:101AA0007A818B819C810E941923009761F4BE0189
:101AB0006F5F7F4FCE0103960E94372A69817A813A
:101AC0008B819C812ED50F900F900F900F90DF91FE
:101AD000CF910895FF920F931F93CF93DF93082F19
:101AE00060E070E0CB010E94E030FF24F3940E949C
:101AF0000222EC01892B89F010E0CE3F8FEFD8074E
:101B000069F0002361F160E070E0CB010E94E030F9
:101B100081E090E0892B59F322C011E025D5EC013A
:101B2000892B21F0CE3F8FEFD80759F711111EC036
:101B300011E0229609F410E00E94B221EC01892BF9
:101B400021F0CE3F8FEFD807E1F6111111C011E05F
:101B5000CE3F8FEFD80709F410E001110BC0CE0182
:101B6000DF91CF911F910F91FF90089511E0E4CF85
:101B700011E0F3CF60E070E0CB010E94E0301F2560
:101B8000812F90E0C7CFCF93DF938091B503882357
:101B900021F060E070E0CB014CD635D6D0E0C0E05B
:101BA000892B71F06AE070E080E090E00E94E03004
:101BB00081E090DF28D62196C03D27E0D20781F74B
:101BC00027D60E946D231092CD031092CC03109261
:101BD000C6031092C7031092C8031092C903109253
:101BE000C2031092C3031092C4031092C503109253
:101BF000BE031092BF031092C0031092C103109253
:101C0000BA031092BB031092BC031092BD03109252
:101C1000B6031092B7031092B8031092B9034EEFB7
:101C20005FEF6FEF7FEF40933F025093400260936E
:101C30004102709342021092B503E9EAF3E028E012
:101C4000DF011D922A95E9F71092A5031092A603D1
:101C50001092A7031092A8031092A1031092A2035E
:101C60001092A3031092A40310929D0310929E035E
:101C700010929F031092A0031092990310929A035E
:101C800010929B0310929C03DF91CF9108951092C4
:101C9000D9031092DA031092DB031092DC03109246
:101CA000D8038091E1039091E2039093D70380934E
:101CB000D6031092D5031092D4031092D003109241
:101CC000D1031092D2031092D3031092DE0310922C
:101CD000DD0390E080E00895CF92DF92EF92FF92D3
:101CE0000F931F93CF938C01892B09F055C020913E
:101CF000E1033091E2038091D6039091D7034091A4
:101D0000E1035091E2035093D7034093D603281781
:101D1000390781F01092D5031092D4031092D003AA
:101D20001092D1031092D2031092D3031092DE03CB
:101D30001092DD038091E1039091E203019761F538
:101D40008091DD039091DE03892B21F48091430281
:101D5000811112C08091DD039091DE030197E1F4BF
:101D60008091D0039091D103A091D203B091D3037D
:101D70000197A105B10581F41092D0031092D1030F
:101D80001092D2031092D3031092430282E090E0AB
:101D90009093DE038093DD038091E1039091E20351
:101DA000019709F01CC18091F7039091F803801707
:101DB000910709F014C18091F3039091F403A0916D
:101DC000F503B091F603009709F409C12091F203DD
:101DD00021110DC04091F3035091F4036091F5037C
:101DE0007091F603452B462B472B09F4F8C0209140
:101DF000DD033091DE032230310509F0F0C020917F
:101E0000D4032111ECC0FC01C080D180E280F380BA
:101E10008091D803882309F4D3C08091E403909182
:101E2000E503892B09F4FDC02091E4033091E5031B
:101E300081E02230310509F080E02091E403309107
:101E4000E503C1E02130310549F02091E4033091F0
:101E5000E503C1E02230310509F0C0E0882309F430
:101E600056C02091EE033091EF034091F003509162
:101E7000F103C701B6010E94372E87FD14C02091DF
:101E8000EE033091EF034091F0035091F103609124
:101E9000D9037091DA038091DB039091DC030E94F7
:101EA000472C87FD22C02091EE033091EF03409133
:101EB000F0035091F103C701B6010E94372E1816A6
:101EC00034F52091EE033091EF034091F0035091EF
:101ED000F1036091D9037091DA038091DB03909153
:101EE000DC030E94472C811112C08091E60390917F
:101EF000E703A091E803B091E903892B8A2B8B2B90
:101F000019F481E08093D50381E08093D403CC233E
:101F100009F456C02091EE033091EF034091F00395
:101F20005091F103C701B6010E94472C87FF14C0EE
:101F30002091EE033091EF034091F0035091F103B3
:101F40006091D9037091DA038091DB039091DC03F7
:101F50000E94372E87FF22C02091EE033091EF03BD
:101F60004091F0035091F103C701B6010E94472C44
:101F7000811126C02091EE033091EF034091F003D0
:101F80005091F1036091D9037091DA038091DB03E2
:101F90009091DC030E94372E181694F48091E6038A
:101FA0009091E703A091E803B091E903892B8A2B74
:101FB0008B2B19F481E08093D50381E08093D403C7
:101FC00081E09091D403911180E08093D803C09276
:101FD000D903D092DA03E092DB03F092DC03012B09
:101FE00009F067C18091DD039091DE03892BD9F45C
:101FF0001092E3031092D40380914302882379F076
:1020000082E090E09093DE038093DD031092430220
:102010002091E1033091E20381E0232BE9F080E09D
:102020001BC081E00ACF109243028091E303882312
:1020300049F01092D5031092DE031092DD03109246
:10204000E303EDCF8091E1039091E203892BE1F06E
:102050008091D4031092D4032091DD033091DE03EC
:102060002230310509F45EC088F42115310509F4E8
:1020700048C02130310509F4F3C01092D503109205
:10208000D4031092E30338C081E0E6CF233031055A
:1020900009F4B1C02430310581F74091D00350914B
:1020A000D1036091D2037091D303411551056105AD
:1020B000710561F041505109610971094093D003E4
:1020C0005093D1036093D2037093D3034091D00314
:1020D0005091D1036091D2037091D303452B462BCD
:1020E000472BD9F42091DF033091E00321303105F3
:1020F00009F046C01092D5031092DE031092DD0362
:102100000CC080914302882341F082E090E09093DC
:10211000DE038093DD03109243021092CE03809180
:10212000D503CEC08823C9F38091E6039091E703DD
:10213000A091E803B091E903181619061A061B06C8
:102140000CF07DC08091E1039091E203019709F0CA
:1021500076C08091E6039091E703A091E803B091E7
:10216000E9038093D0039093D103A093D203B0935B
:10217000D30383E090E09093DE038093DD03CDCF23
:102180004091EA035091EB036091EC037091ED03F1
:10219000452B462B472BA9F01092D5038091EA03DB
:1021A0009091EB03A091EC03B091ED038093D003E9
:1021B0009093D103A093D203B093D30381E090E036
:1021C000DACF882399F08091440290914502A09142
:1021D0004602B09147028093D0039093D103A0931D
:1021E000D203B093D30384E090E0C5CF1092D5031F
:1021F00082E090E0C0CF8091D0039091D103A09174
:10220000D203B091D3030097A105B10559F001970E
:10221000A109B1098093D0039093D103A093D20375
:10222000B093D3038091D0039091D103A091D203B6
:10223000B091D303892B8A2B8B2B09F06ECF809121
:10224000440290914502A0914602B0914702892B29
:102250008A2B8B2B09F44ECF81E08093D503B3CF2B
:102260004091D0035091D1036091D2037091D30378
:10227000411551056105710561F041505109610930
:1022800071094093D0035093D1036093D2037093AC
:10229000D3034091D0035091D1036091D203709148
:1022A000D303452B462B472B09F037CF8111C7CFDE
:1022B0009FCF8091CE03882309F431CF8091CF0343
:1022C000CF911F910F91FF90EF90DF90CF900895E5
:1022D0001092D9031092DA031092DB031092DC0300
:1022E0001092D8031092DE031092DD031092D703F0
:1022F0001092D6031092F8031092F7031092D503B0
:102300001092D4031092D0031092D1031092D203F2
:102310001092D3031092CF031092CE031092F303C6
:102320001092F4031092F5031092F6031092F20348
:102330001092EE031092EF031092F0031092F1034B
:1023400088EE93E0A0E0B0E08093440290934502D1
:10235000A0934602B09347021092EA031092EB0357
:102360001092EC031092ED031092E6031092E70333
:102370001092E8031092E9031092E5031092E4032F
:1023800081E0809343021092E3031092E2031092E3
:10239000E1031092E0031092DF0390E080E00895E3
:1023A0008091E1039091E203892B19F5809143021A
:1023B000882351F08091E303811106C081E080936E
:1023C000CF038093CE0308952091E303309143021D
:1023D00081E090E0332311F090E080E030E0822350
:1023E0009323892B21F01092CF0381E0EACF109242
:1023F000CE03089582E090E0FA01918380838FEF0D
:102400009FEF0895CF93DF93EA01009711F00E94A8
:102410008D241982188290E080E0DF91CF91089599
:10242000DB01009719F48FEF8C9308952EEF2C9316
:10243000FC013F96EF30F10508F034C08827EC5DD1
:10244000FD4E8F4F0C94103750124E124C124A1200
:10245000481244124612421240123E123B123712E8
:1024600033123912521280E311968C93089589E247
:10247000FBCF82E2F9CF11961C92089583E2F4CF4C
:1024800081E2F2CF81E1F0CF87E2EECF8AE2ECCFBA
:1024900080E1EACF84E2E8CF88E2E6CF86E2E4CFCB
:1024A00081E3E2CF80E2E0CF8091050490910604C1
:1024B0000895909306048093050408958091040480
:1024C000089590910404892B809304040895982F13
:1024D0009095809104048923809304040895809149
:1024E00003040895809101049091020408956115F8
:1024F000710559F0FB0130E020E070E060E0241746
:10250000350719F06115710511F0CB010895A0810F
:10251000B181A817B90709F4BF012F5F3F4F369665
:10252000EECF8091070481111CC060D266D29093D7
:10253000FA038093F9030E94991C0E94AB1C9093AC
:10254000FE038093FD030E941A210E942121909393
:10255000FC038093FB0381E08093070490E080E01C
:10256000089584EF9FEF08958F929F92AF92BF924C
:10257000CF92DF92EF92FF920F931F93CF93DF934F
:1025800000D000D000D01F92CDB7DEB71A861986D2
:1025900018861F821E821D821C821B821A8219824B
:1025A0008091070407EF1FEF882309F49CC08E0178
:1025B0000D5F1F4F9E012B5F3F4FAE01495F5F4F85
:1025C000BE01675F7F4F90E080E00E949E228C01F9
:1025D000009721F00596029708F0DBC029853A851F
:1025E0002115310509F402C1ED80FE804B815C812B
:1025F000B701640F751F8F8198858617970708F4B8
:10260000F5C0E20EF31ED7019C91903C09F07FC00B
:102610004230510508F47BC011968C91409105041D
:1026200050910604452B09F49CC0913F08F071C0FD
:102630002CE1290F2D3008F48BC02DE2290F203119
:1026400008F489C0903C21F48150823008F483C0A2
:1026500088E3890F8B3008F481C090E1C92E92E1A4
:10266000D92EEAEFF1E16D817E81AE014F5F5F4FC0
:1026700089859A8519955C01C114D104A1F18980DD
:102680009A808114910479F18B819C818815990538
:1026900008F487C010E000E04B815C8170E060E0EE
:1026A000C7010E943A3701151105E9F449815A81A1
:1026B00069857A858D819E81680F791FC501F60134
:1026C0001995E980FA800D811E812F813885498511
:1026D0005A856FEF7FEF81E090E00E9439228C01F4
:1026E000892B09F056C0C8012A960FB6F894DEBFB0
:1026F0000FBECDBFDF91CF911F910F91FF90EF9053
:10270000DF90CF90BF90AF909F908F90089580E022
:1027100085CF30E020E0220F331FF901E750FC4F56
:102720000190F081E02D309709F497CF892F90E048
:102730001995009709F491CFDC011296ED91FC9167
:1027400013971496CD90DC90309709F08CCF1FC072
:1027500021E030E0E0CF22E030E0DDCF23E030E0E8
:10276000DACFD12CC12CE2E0F2E19F3F09F07BCF20
:10277000E091F903F091FA03309721F4C90104EFD5
:102780001FEF0CC08FEF90E019950097A9F604EFAA
:102790001FEF89859A85009709F4A5CF0E948D24A3
:1027A000A2CF0E9468238C0189859A850E948D247E
:1027B00070E060E0C4010E94012398878F830E942B
:1027C00036229E838D836F8178856115710559F05E
:1027D000C8010E9419269A87898706EF1FEF892B67
:1027E00009F058CF59CF08EF1FEF56CF08EF1FEF72
:1027F000D0CF20910704222319F020E00C94B01CC4
:1028000087EF9FEF08958091050490910604089545
:102810000E9426210E948020F5D0E9EFF3E088E0B5
:10282000DF011D928A95E9F71092070490E080E09D
:1028300008950C94DE1E21E040E050E0BA010C94B3
:10284000B01C86E090E0FA019183808390E080E004
:10285000089547E050E06CE772E049CEDF92EF92D6
:10286000FF920F931F93CF93DF938A01EC01C60F62
:10287000D71FE0900B04F0900C04D9800E945023E5
:10288000D816190678F082E090E0F80191838083F1
:102890008EEF9FEFDF91CF911F910F91FF90EF90FF
:1028A000DF900895EF2841F482E090E0F8019183F1
:1028B000808384EF9FEFEECF898180930A0490E0BC
:1028C0000196F8019183808390E080E0E3CFCF937D
:1028D000DF93EA010E948F1F882321F00E945D236D
:1028E0000E94901F82E090E0998388838BEF9FEF96
:1028F000DF91CF910895CF93DF93EB0186E0FB0149
:1029000011928A95E9F78FEF8883D8DD8983E7DD17
:102910008A83E8DD9D838C83DF91CF910895CF93E7
:10292000DF93EA010E94921F811109C082E090E0CA
:102930009983888385EF9FEFDF91CF91089590E091
:1029400080E0B7DD81E090E09983888390E080E0CB
:10295000F3CF0F931F93CF93DF93EA018C01060F00
:10296000171F0E94921F81110BC082E090E0998393
:10297000888385EF9FEFDF91CF911F910F9108958D
:10298000F8018181823038F082E090E09983888379
:102990008EEF9FEFF0CF81E090E08BDD88E090E05C
:1029A0009983888390E080E0E6CFCF93DF93009710
:1029B000D1F4EB01FB01329686E0DF011D928A958E
:1029C000E9F78FEF888385E089831A820E9450237C
:1029D0008B830E944F239D838C8381E08E838F8322
:1029E000DF91CF910895DF91CF911ACD89E294E1E3
:1029F00090930904809308040895809108049091AD
:102A00000904089510920904109208040895809111
:102A10000B0490910C040895411105C061157105D6
:102A20008105910561F060930B0470930C04809311
:102A30000D0490930E0440930F0481E0089580E00C
:102A40000895FF920F931F93CF93DF938A01EC01B8
:102A5000C60FD71FF9800E945023F816190668F098
:102A600082E090E0F801918380838EEF9FEFDF9109
:102A7000CF911F910F91FF9008956C817D818E8180
:102A80009F814B81C9DF811108C082E090E0F8018D
:102A90009183808384EF9FEFEACF898180930A043A
:102AA00090E00196F8019183808390E080E0DFCF91
:102AB000CF93DF93EA01FC01E60FF71F6481758174
:102AC000868197814381A8DF811109C082E090E06F
:102AD0009983888384EF9FEFDF91CF91089581E000
:102AE00090E09983888390E080E0F6CFEBE0F4E01B
:102AF0004081518162817381480F511D611D711D9B
:102B000040835183628373830895CF93C0910A04F5
:102B10004C2F50E060910B0470910C0401960E94C0
:102B200031378C2FE3DF10920A04CF91089500977C
:102B300099F480910B0490910C042FEFFB012083FA
:102B4000892B59F020910A0430E02F5F3F4F241762
:102B5000350719F4CB01D9CF63CC0895009799F4C8
:102B600080910B0490910C042FEFFB012083892BA3
:102B700059F020910A0430E02F5F3F4F24173507AA
:102B800019F4CB01C2CF4CCC089523E1AC01249FB2
:102B9000C001259F900D1124E0911404F0911504BB
:102BA000E80FF91F238134812250310981E022305E
:102BB000310508F080E008950F931F93CF93DF93C2
:102BC0000091160410911704D0E0C0E080E00C17CB
:102BD0001D0749F491E0811190E0892FDF91CF9199
:102BE0001F910F9108958111F5CFCE01CEDF21966F
:102BF000EECFA0911404B0911504109729F1209103
:102C000016043091170482179307F0F453E1589F8C
:102C10009001599F300D1124A20FB31FED91FC912B
:102C20001197309789F012968C91681768F48BE0B1
:102C3000689FE00DF11D112480819181892B21F085
:102C400081E09281491708F080E008959C0143E1FA
:102C5000429FC001439F900D1124E0911404F09114
:102C60001504E80FF91F8385823091F481E090E02C
:102C70006581768140914802509149026417750739
:102C800011F490E080E0892B19F081E0232B09F00A
:102C900080E00895EF92FF920F931F93CF93DF93FD
:102CA000EA01FC01E60FF71F02811381E480F58041
:102CB0004F2D6E2DC8019DDF81110DC082E090E087
:102CC000998388838EEF9FEFDF91CF911F910F91B2
:102CD000FF90EF900895C80158DF882339F082E013
:102CE00090E09983888388EF9FEFEECF10934F0297
:102CF00000934E02E0925002F092510281E090E087
:102D00009983888390E080E0DFCFCF92DF92EF92CB
:102D1000FF920F931F93CF93DF937A01EC01C60FBD
:102D2000D71FC0904E02D0904F02009150021091D8
:102D30005102412F602FC6015CDF811110C082E07B
:102D400090E0F701918380838AEF9FEFDF91CF912D
:102D50001F910F91FF90EF90DF90CF900895C601E3
:102D600014DF882341F082E090E0F70191838083B3
:102D700088EF9FEFEBCF4C815D816E817F819A81DF
:102D800089818F3F41F082E090E0F7019183808359
:102D90008EEF9FEFDBCFE3E1EC9D9001ED9D300DD9
:102DA0001124E0911404F0911504E20FF31F019037
:102DB000F081E02D2BE0029FE00DF11D1124019028
:102DC000F081E02D27E0129FE00DF11D112480839A
:102DD00091838B81828343835483658376831F5FD2
:102DE0001093510281E090E0F7019183808390E09D
:102DF00080E0ACCFEF92FF920F931F93CF93DF93BE
:102E00007A018C01060F171FC0911404D09115048C
:102E1000209781F021E030E0F80182819381409198
:102E20001604509117048417950710F030E020E045
:102E3000232B71F482E090E0F701918380838EEF81
:102E40009FEFDF91CF911F910F91FF90EF90089529
:102E500043E1489F9001499F300D1124C20FD31FB9
:102E600094DE882341F082E090E0F7019183808333
:102E700088EF9FEFE6CFF8012481358120383105B6
:102E8000C8F687818111D6CF4181842F90E08F7E53
:102E9000009741F082E090E0F7019183808386EF14
:102EA0009FEFCFCF4F833E832D83268128871986BE
:102EB000223010F421E0288721E030E0F70131834F
:102EC0002083BFCF88E090E0FA019183808390E077
:102ED00080E00895FB018FEF808381E181838FEF94
:102EE0009FEF9383828380E890E0958384831682AA
:102EF00017820895FB018FEF808391E09183828395
:102F00009383848384E3858381E090E09783868341
:102F10000895DF92EF92FF920F931F93CF93DF9369
:102F2000EA01FC01E60FF71F8181813071F082E038
:102F300090E0998388838FEF9FEFDF91CF911F916E
:102F40000F91FF90EF90DF90089582819381D4805C
:102F50002581E680F7800091140410911504011575
:102F6000110539F482E090E0998388838CEF9FEF1C
:102F7000E4CF40911604509117048417950738F058
:102F800082E090E0998388838EEF9FEFD6CF892BE4
:102F900039F082E090E09983888386EF9FEFCDCF70
:102FA0008D2D8D7FB1F72130A1F781E0D11006C0C2
:102FB00091E0E916F10431F080E004C0E2E0EE16A1
:102FC000F104D0F3882329F390E080E0DEDD88234C
:102FD00039F082E090E09983888388EF9FEFADCF4E
:102FE000F801D38681E08487F686E586108A178605
:102FF00081E090E09983888390E080E09ECF4CE070
:1030000050E066EA72E073CA8F929F92BF92CF92AD
:10301000DF92EF92FF920F931F93CF93DF93EA011A
:10302000FC01E60FF71F828193810481B580E09156
:103030001404F0911504309791F482E090E09983A4
:1030400088838CEF9FEFDF91CF911F910F91FF90BD
:10305000EF90DF90CF90BF909F908F900895209138
:103060001604309117048217930738F082E090E03D
:10307000998388838EEF9FEFE6CF23E1289F60013D
:10308000299FD00C1124EC0DFD1DE080F180E1148E
:10309000F10499F28281081748F78BE0089F8001BC
:1030A0001124E00EF11EF70180819181892B29F610
:1030B000BB20E1F2F7E0BF9E40011124C4010E9451
:1030C0005424F70191838083E0911404F091150456
:1030D000EC0DFD1D0190F081E02DE00FF11F8081CE
:1030E0009181009739F482E090E0998388838DEF95
:1030F0009FEFA9CFA40170E060E00E943A37809171
:10310000140490911504C80ED91EF6018081918196
:10311000080F191FF801B28281E090E0998388833B
:1031200090E080E090CFAF92BF92CF92DF92FF927B
:103130000F931F93CF93DF93EA01FC01E60FF71F74
:1031400082819381F480009114041091150401157B
:10315000110581F482E090E0998388838CEF9FEFE2
:10316000DF91CF911F910F91FF90DF90CF90BF9093
:10317000AF90089520911604309117048217930799
:1031800038F082E090E0998388838EEF9FEFE8CF5C
:103190002FEF2F0D2C3FA8F723E1289F6001299FD7
:1031A000D00C11240C0D1D1DF80180819181892BFB
:1031B00089F6FBE0FF9E50011124C5010E945424B2
:1031C000F80191838083E0911404F0911504EC0DD3
:1031D000FD1D80819181009739F482E090E0998310
:1031E00088838DEF9FEFBCCFA50170E060E00E9467
:1031F0003A37E0911404F0911504EC0DFD1DF282B4
:1032000081E090E09983888390E080E0A9CFCF921D
:10321000DF92EF92FF920F931F93CF93DF93860F6E
:10322000971FFC0102811381809114049091150471
:10323000892B81F082E090E0FA01918380838CEF0A
:103240009FEFDF91CF911F910F91FF90EF90DF9053
:10325000CF900895C801B0E0A0E00197A109B1099D
:103260008F3F9F4FA105B10540F082E090E0FA0149
:10327000918380838EEF9FEFE4CF7A0183E1809F7B
:103280006001819FD00C1124C6010E945424EC01DE
:10329000009741F482E090E0F701918380838DEF05
:1032A0009FEFCFCFA60170E060E00E943A37D09345
:1032B0001504C0931404109317040093160490E0AF
:1032C00080E02FEF3FEF41E061E070E08017910771
:1032D00041F481E090E0F7019183808390E080E009
:1032E000B0CF3A8B298B1B864C877E876D87188AD7
:1032F0001F8601966396EACFCF92DF92EF92FF92FC
:103300000F931F93CF93DF93EC01D12CC12C10E0CE
:1033100000E0F12CE12C6A816017110609F0CCF471
:1033200083E0689FB0011124AE014F5E5F4FC7017B
:103330000E94B924009721F02FEF3FEF3A8B298BA1
:10334000DF91CF911F910F91FF90EF90DF90CF9081
:103350000895E881F981EC0DFD1D438154818D852F
:103360009E85489F9001499F300D589F300D112434
:10337000C90101960115110519F44F8144FD049608
:1033800061E070E00E940123E816F90608F47C0170
:103390000F5F1F4F8BE0C80ED11CBDCFF89420915A
:1033A00012043091130481E02115310509F080E009
:1033B000232B09F0789408952F923F924F925F92B9
:1033C0006F927F928F929F92AF92BF92CF92DF9235
:1033D000EF92FF920F931F93CF93DF933C01660E02
:1033E000771EF301828193814C01B12CA12CC091F5
:1033F0001404D0911504209769F021E030E0609129
:103400001604709117048617970710F030E020E03B
:10341000232BD1F482E090E0FA01918380838EEF38
:103420009FEFDF91CF911F910F91FF90EF90DF9071
:10343000CF90BF90AF909F908F907F906F905F9054
:103440004F903F902F900895809252029092530295
:10345000A0925402B092550263E1689F9001699F67
:10346000300D1124C20FD31FF3018181833040F04E
:1034700082E090E0FA019183808386EF9FEFD1CFC5
:103480002A012B813C81232BF1F4288139819F81F2
:1034900091FF2EC0232B09F46FC0209119049A814B
:1034A000422F490F5527551FBA0141E050E06138BE
:1034B000710514F050E040E0452B09F45DC02A8707
:1034C000920F909319048150823008F481C066DF16
:1034D000882309F4D8C0F3018181813009F48DC0BB
:1034E00008F47BC0823009F4C6C090E080E0ADC033
:1034F000232B09F441C0209118049A81E22FE90F8F
:10350000FF27FF1F41E050E0ED3FF10514F050E0D0
:1035100040E0452B89F12A87920F90931804D3CF6E
:10352000A081B181A20FB31F11966C91060F111DDE
:103530000196295F3F4F8417950794F38D859E85EB
:10354000089F1001099F300C189F300C1124C114E2
:10355000D104D1F48F8184FF17C00E944F23F5E07E
:103560002F0E311C21E08215930508F420E0A701FD
:10357000455F5F4F21110EC082E090E0F201918320
:10358000808387EF9FEF4DCF0E944F232FEF221AAA
:10359000320AE8CF88819981E80EF91EF701148379
:1035A0000383FFEFCF1ADF0A7A018A818C151D048D
:1035B00009F00CF48CCFE881F981EE0DFF1D4281FA
:1035C00050E030E020E010E000E090E080E0B3CF99
:1035D000F12CE12CD12CC12CE8CF81E090E09C8330
:1035E0008B83EADA882309F480CF81E090E00E949F
:1035F000591280E40E94671278CF89899A890196CE
:1036000061F083E090E09C838B8382E090E00E94F5
:10361000591280E40E94611268CF8D819E812091B1
:1036200048023091490282179307D1F460914C020D
:1036300070914D02AE014F5E5F4F80914A029091B2
:103640004B020E94D8250097E1F2789422E030E006
:10365000F20131832083892B99F08DEF9FEFE1CE2A
:1036600089288A288B2869F6049758F6CE0144DE0B
:10367000188A1F86E8CF82E090E09C838B8335CF49
:1036800090E080E0CECE82E090E0F20191838083F2
:1036900085EF9FEFC6CE8F929F92AF92BF92CF924F
:1036A000DF92EF92FF920F931F93CF93DF93EA0184
:1036B0008C01060F171FF8018181833098F082E09A
:1036C00090E09983888386EF9FEFDF91CF911F91E0
:1036D0000F91FF90EF90DF90CF90BF90AF909F90B1
:1036E0008F9008958091140490911504892B61F0B6
:1036F00081E090E02091160430911704232B11F4FF
:1037000090E080E0892B39F482E090E0998388830F
:103710008EEF9FEFDACF42DE882309F4E0C0F80194
:103720008181813009F496C0E8F0823099F42091CB
:10373000160430911704E0911404F091150490E000
:1037400080E041E050E02817390709F0BEC034DAC4
:10375000811117C0789481E090E09983888390E08C
:1037600080E0B3CF2091160430911704E091140447
:10377000F091150490E080E041E050E0281739070F
:1037800041F481E090E00E94591280E40E946712A7
:10379000E1CF63817481672B11F0548343830196D9
:1037A0007396ECCFE0911404F0911504E00FF11F33
:1037B0002381348122303105D9F4218932892F3F88
:1037C0003F4FB1F425813681409148025091490222
:1037D0002417350761F5AF014F5E5F4F60914C02D2
:1037E00070914D0280914A0290914B020E94D8251F
:1037F000EFEFCE1ADE0AEE0AFE0A0D5E1F4F409171
:1038000016045091170470E060E0C416D506E60671
:10381000F70644F5009731F27894892B09F49BCF91
:1038200082E090E0998388838DEF9FEF4ECFC114A3
:10383000D104E104F104E1F624303105C8F6CF01EA
:103840005BDDE0911404F0911504E00FF11F108A84
:103850001786CECF10E000E090E080E0C12CD12CA4
:103860007601CDCF0097C1F610E000E0812C912CBD
:10387000540183E0E82EF12C1AC0E0911404F09179
:103880001504E00FF11F83819481029749F4F482BB
:10389000E38282E090E00E94591280E40E9461126B
:1038A000FFEF8F1A9F0AAF0ABF0A0D5E1F4F80916C
:1038B000160490911704B0E0A0E088169906AA06B5
:1038C000BB06DCF290E080E0A7CF638174816230B8
:1038D000710511F4548343830196739634CF82E0CB
:1038E00090E09983888385EF9FEFEFCE0097B9F43E
:1038F0008FEFFB018083209152023091530243E10C
:10390000429FC001439F900D1124E0911404F09157
:103910001504E80FF91F8285FB01818308950C943B
:10392000101288E090E0FA019183808390E080E0BB
:1039300008951092130410921204E4E1F4E086E07A
:10394000DF011D928A95E9F78FEF97E190931104BB
:1039500080931004089580911004909111040895AB
:103960002F923F924F925F926F927F928F929F928F
:10397000AF92BF92CF92DF92EF92FF920F931F937D
:10398000CF93DF93CDB7DEB760970FB6F894DEBF65
:103990000FBECDBFF894E0911204F091130431965C
:1039A000F0931304E09312047894A0911404B0915E
:1039B0001504BA83A983109709F4FAC1E09116049B
:1039C000F0911704EF2B09F4F3C128874B875C872C
:1039D0006D877E879A878987B88BAF87312C212C9A
:1039E000F12C512C412C809116049091170428162B
:1039F000390610F4FF2029F1F89480911204909177
:103A00001304019790931304809312047894C201D5
:103A100060960FB6F894DEBF0FBECDBFDF91CF9199
:103A20001F910F91FF90EF90DF90CF90BF90AF90DC
:103A30009F908F907F906F905F904F903F902F90CE
:103A40000895B10190E080E088D4682EEF85F88970
:103A5000878181FD3DC0838194810397C9F52581CC
:103A600036813C832B8389859A852817390781F510
:103A7000C101ECD8782E8823A9F1AF85B8891F96AB
:103A80008D919C915097019621E01D964D915C91EE
:103A90008417950709F020E02F83B12CA12CEF8526
:103AA000F88982818A151B0419F014F0FF20E9F0CF
:103AB000F885FF2309F46CC1AF85B88950961C9234
:103AC0001E921F97662021F0B10190E080E047D45C
:103AD000FFEF2F1A3F0A2F8538892D5E3F4F388B15
:103AE0002F8781CFB1E0BF83D8CFC0D49E838D8391
:103AF000E885EE23E9F0772009F43CC1AF85B88969
:103B00001F968D919C91892B79F0BBE0BA9DC001E5
:103B1000BB9D900D1124AF85B889ED91FC91E80F04
:103B2000F91F85819681F9D6BFEFAB1ABB0AB7CFD3
:103B300081E0772039F0EF85F88927853089232BBC
:103B400009F080E0F82EE12CA114B10439F4AF851E
:103B5000B8891796EC90E4FAEE24E0F8BBE0BA9D41
:103B60006001BB9DD00C1124882309F424C1AF85CA
:103B7000B889ED91FC911197EC0DFD1D43815481A5
:103B80001D962D913C91429FC001439F900D529FE5
:103B9000900D1124E1105DC001969087878361E04C
:103BA00070E0878190852DD5EF85F889218932894C
:103BB000008111810C0D1D1D2F3F320709F44BC0F0
:103BC000BC01C9010E941926D80116969C938E93B8
:103BD0001597AF85B889ED91FC911197EC0DFD1DFE
:103BE000058116810115110509F4CDC0ED81FE8115
:103BF0000E0F1F1F1A968C918A0DD8018C93E1101D
:103C00002FC00F5F1F4FAF85B889ED91FC91EC0D70
:103C1000FD1D12870187AF85B889ED91FC91EC0DF0
:103C2000FD1D85819681892B09F4A4C080914802ED
:103C3000909149022B813C812817390709F465C00E
:103C4000772011F001851285912C812C1A8219821E
:103C50004AC00596A2CF28D6F80196838583B9CFAE
:103C60008B859C85AD85BE85F80181839283A38376
:103C7000B4830B5F1F4FC7CFE080F180E80CF91CC5
:103C8000D70113966D917C9114978C918F3F09F415
:103C900073C0E1E0F0E002C0EE0FFF1F8A95E2F78B
:103CA000CF01092E000CAA0BBB0BFB0140815181F7
:103CB0006281738184239523A623B72321E0892B76
:103CC0008A2B8B2B09F420E0D8012C93D701119675
:103CD0008C91080F111DE981FA813196FA83E983ED
:103CE000F7E08F0E911CAF85B889ED91FC91EC0D3A
:103CF000FD1D828129813A818217130611F00CF093
:103D0000BBCF772011F0128701873F81332391F1D8
:103D1000AF85B889ED91FC91EC0DFD1D61E070E07F
:103D2000878190856ED4AF85B889ED91FC91EC0DBB
:103D3000FD1DE780F08445815681E1E0F0E06620DA
:103D400011F0F0E0E0E00D811E819C01B1018827B7
:103D500099278E1B9F0B8DD32C01892B59F0EF8552
:103D6000F88980819181C80ED91ED60115968D9152
:103D70009C91D3D5F12CD8CEF701418150E0C801F8
:103D80000E943137A3CF86EF482E55245A94CCCECB
:103D9000EF85F889878590890196908B878725859F
:103DA00036858217930709F08DCE108A17868ACE42
:103DB000512C412C21CE10E000E02DCF2F923F92CC
:103DC0004F925F926F927F928F929F92AF92BF922B
:103DD000CF92DF92EF92FF920F931F93CF93DF93D7
:103DE000809114049091150410E000E0892BA9F053
:103DF000D5DA0AEF1FEF882381F020901604309067
:103E00001704C0911404D0911504D12CC12C10E0DA
:103E100000E02C143D04A9F47894C801DF91CF91FF
:103E20001F910F91FF90EF90DF90CF90BF90AF90D8
:103E30009F908F907F906F905F904F903F902F90CA
:103E40000895C6010E942616882309F18B819C8162
:103E50000397E9F48F859889892BC9F0B60190E022
:103E600080E07BD221E030E0882311F030E020E0D8
:103E700044245524421A530AB12CA12C912C812C94
:103E80008A818815190409F038F4188A1F864FEFC3
:103E9000C41AD40A6396BDCFE881F981EA0DFB1DEF
:103EA00085819681892BA1F161E070E08781908501
:103EB000A8D33C01DBD28C01E881F981EA0DFB1D1E
:103EC0008185928525813681200F311FAC01421BEF
:103ED000530B9A0147815085421B530B70E060E001
:103EE0000E943A37E881F981EA0DFB1DE780F084F2
:103EF000458156819301B601C201BBD28C01892B49
:103F000039F0E881F981EA0DFB1D8581968105D59F
:103F10005FEF851A950A8BE0A80EB11CB1CF3ECA9F
:103F2000789408952F923F924F925F926F927F9272
:103F30009F92AF92BF92CF92DF92EF92FF920F9338
:103F40001F93CF93DF9300D000D0CDB7DEB70091A1
:103F5000140410911504992493940115110509F482
:103F60003EC0A0901604B090170418DA982E88234B
:103F7000B1F11092150410921404109217041092CB
:103F8000160410921804109219048FEF9FEFDC01B1
:103F90008093520290935302A0935402B09355021F
:103FA00078947FD31E830D83C12CD12C7601C5015B
:103FB000B0E0A0E089839A83AB83BC8322242A9457
:103FC000322C89819A81AB81BC81C816D906EA0658
:103FD000FB06F4F0C801A1D480E40E946712892D89
:103FE00026960FB6F894DEBF0FBECDBFDF91CF91FE
:103FF0001F910F91FF90EF90DF90CF90BF90AF9007
:104000009F907F906F905F904F903F902F9008957A
:10401000AD81BE8115968D919C9116972091480295
:104020003091490282179307D1F451968D919C915A
:10403000EED5ED81FE8180819181B12CA12C412CA6
:10404000512C3201892B89F5BFEFCB1ADB0AEB0A21
:10405000FB0AED81FE817396FE83ED83B2CFC1141E
:10406000D104E104F10429F7049718F7ED81FE81EA
:10407000818992898F3F980709F029D5AD81BE814A
:1040800052963C922E925197D4CF8A0D9B1DDC0103
:104090008D919C91009709F040D4BFEF4B1A5B0AB9
:1040A0006B0A7B0AEBE0AE0EB11CAD81BE818D9137
:1040B0009C91119712964C9150E070E060E044168C
:1040C0005506660677060CF328D4BECFCF93DF9350
:1040D000EA0128DF811109C082E090E0998388839A
:1040E00085EF9FEFDF91CF91089581E090E00E94EE
:1040F000591281E090E09983888390E080E0F2CFCC
:1041000011DF1092110410921004089542E050E063
:104110006EEE72E00C947712FF920F931F93CF9381
:10412000DF938A01EC01C60FD71FF980B9D2089737
:10413000F816190671F068F082E090E0F8019183BA
:1041400080838EEF9FEFDF91CF911F910F91FF90B2
:1041500008956C817D818E819F814B810E940C1519
:10416000811108C082E090E0F8019183808384EFA0
:104170009FEFE9CFF9800E9407154F2D50E0BE0157
:10418000685F7F4F0E94313789810E94761581E0F8
:1041900090E0F8019183808390E080E0D4CFDF92BB
:1041A000EF92FF920F931F93CF93DF938A01EC015D
:1041B000C60FD71F0E9407157C01D98071D2DD2060
:1041C00059F0029721E030E0D816190619F010F0E6
:1041D00030E020E0232B79F482E090E0F801918335
:1041E00080838EEF9FEFDF91CF911F910F91FF9012
:1041F000EF90DF900895EF2841F482E090E0F8011D
:104200009183808384EF9FEFEECFF9800E940715A2
:104210004F2D50E0BE016E5F7F4F0E943137898184
:104220000E94761581E090E0F8019183808390E010
:1042300080E0D9CF86E890E290931B0480931A0423
:10424000089580911A0490911B0408950895FC012B
:1042500011821082938382830895DB011D921C9248
:10426000DC011296ED91FC91139771836083139694
:104270007C936E9312970895FC0180819181DB01FC
:104280008D939C93A081B181109741F08D919C9169
:1042900091838083892B11F4F383E2830895FC01D9
:1042A00080819181DB018D939C93892B11F4738321
:1042B0006283718360830895FC011182108293836D
:1042C00082830895CF93DF931F921F92CDB7DEB7FD
:1042D0001A821982F894BE016F5F7F4F81E294E0E9
:1042E000CBDF89819A81009709F017D389819A8160
:1042F000892B89F7BE016F5F7F4F85E294E0BCDFB9
:1043000089819A81009709F008D389819A81892B44
:1043100089F778940F900F90DF91CF910895CF9304
:10432000DF931F921F92CDB7DEB71A821982F894DD
:10433000BE016F5F7F4F8DE194E09EDF89819A819E
:10434000009709F0EAD289819A81892B89F77894BC
:104350000F900F90DF91CF91089581E0089590E044
:1043600080E00895EF92FF920F931F93CF93DF9316
:104370001F921F92CDB7DEB71A82198280911C045A
:1043800007EF1FEF8823A1F1F894BE016F5F7F4F05
:1043900085E294E071DF789489819A81EE24E39438
:1043A000F12C892B51F4F894BE016F5F7F4F81E2AD
:1043B00094E062DF7894F12CE12C89819A810EEFF0
:1043C0001FEF0097A9F0FC014281538164E070E087
:1043D00076D68C01892B61F0F89469817A81C701C6
:1043E000880F991F880F991F8F5D9B4F58DF789416
:1043F000C8010F900F90DF91CF911F910F91FF9007
:10440000EF9008950F931F93CF93DF9300D01F92E7
:10441000CDB7DEB71C821B821A82198280911C04E0
:1044200007EF1FEF8823C1F0AE014D5F5F4F64E0DF
:1044300070E0CE010196B6D68C01892B69F4E98132
:10444000FA818B819C8193838283F89469817A813C
:104450008DE194E002DF7894C8010F900F900F90E7
:104460000F90DF91CF911F910F910895BBD70496C4
:1044700008958F929F92AF92BF92CF92DF92EF9268
:10448000FF920F931F93CF93DF931F921F92CDB78D
:10449000DEB71A821982BC016F5F7F4F63307105EE
:1044A00098F0AA24AA94BA2CC5010F900F90DF911E
:1044B000CF911F910F91FF90EF90DF90CF90BF9021
:1044C000AF909F908F9008954115510551F3480189
:1044D00059018A016C01CADF8815990511F7E114A9
:1044E000F104F9F28E0D9F1DA816B906D0F2809145
:1044F0001C048823F1F0F894B50164507109970108
:10450000AE014F5F5F4FC8010496E1D65C01892B75
:1045100071F489819A81F80193838283C601880F9F
:10452000991F880F991FB8018F5D9B4F96DE789475
:10453000BBCF87EFA82EBB24BA94B6CFAF92BF9261
:10454000CF92DF92EF92FF920F931F93CF93DF935F
:104550001F921F92CDB7DEB71A821982892B09F0FC
:1045600047C06115710509F443C04115510509F4AF
:104570003FC02115310509F43BC001151105C1F1FA
:1045800080911C048823B9F179016A015B01F894D8
:10459000BE016F5F7F4F8DE194E06EDE789489817C
:1045A0009A81009759F1DC0112966D917C91A801D6
:1045B0000496A6D68C01E981FA81D501ED93FC938E
:1045C000828193810496F601918380834FDFD70126
:1045D0008D939C93C8010F900F90DF91CF911F9105
:1045E0000F91FF90EF90DF90CF90BF90AF90089524
:1045F0000FEF1FEFEFCF07EF1FEFECCF0EEF1FEF27
:10460000E9CFCF93DF93EC01672B71F4F4D68C17CD
:104610009D0760F0E7D62496C80FD91FE6D68C0F09
:104620009D1FDF91CF910895E3D6F1CF90E080E018
:10463000F8CF0F931F93CF93DF9320911C04211188
:104640002BC08B01EC0181E294E001DE85E294E075
:10465000FEDD8DE194E0FBDD97D00097C1F4CBD671
:1046600070E060E0CEDF46E552E062E070E081D1CC
:10467000009769F48091560290915702CED6B80106
:10468000CE0103D5009719F421E020931C04DF919B
:10469000CF911F910F91089584EF9FEFF8CFA8C697
:1046A000AAC6CF93DF93AAD6EC01892B11F40ADEB8
:1046B00036DECE01DF91CF910895CF93DF939ED662
:1046C000EC01892B09F4FEDDCE01DF91CF91089535
:1046D00080915602909157020895CF93DF93809175
:1046E0001C04D0E0C0E08823D1F09CD6EC01892BDB
:1046F000B1F4E8DD14DE8091560290915702E7D1C3
:10470000E8D2EC01892B59F481E294E0D5DD85E211
:1047100094E0D2DD8DE194E0CFDD10921C04CE0157
:10472000DF91CF910895EF92FF920F931F93CF9354
:10473000DF93EC017A018B010F5F1F4F0E9DA001EB
:104740000F9D500D1E9D500D112470E060E00E94E1
:104750003A3790E080E0F0E0E0E02FEFE816F9066D
:1047600039F4DF91CF911F910F91FF90EF90089551
:104770001A8219822883309711F0D283C18301965F
:10478000FE01C00FD11FEACFCF92DF92EF92FF92CE
:104790000F931F93CF93DF930BE515E00C7F43E05E
:1047A00050E068E572E08EE592E01CD488E5E82EE2
:1047B00082E0F82E9EE5C92E92E0D92EC2EFD5E018
:1047C000D7014D915D917D01F601619171916F016C
:1047D000198308835D834C835B834A837F836E8365
:1047E0009B012F5F3F4F249FC001259F900D349F59
:1047F000900D1124998788870115110511F0C801C2
:1048000092DF88859985080F191F2A96FEE5EF1615
:10481000F2E0FF06A9F6EBE2F4E08DE291E0DF01C1
:104820009C011D9221503040E1F710922A04109211
:10483000290410921106109210061092150610927B
:104840001406109213061092120610921706109278
:104850001606109219061092180610921B06109256
:104860001A0610921F0610921E0610921D06109234
:104870001C06109221061092200610922306109218
:1048800022061092EF051092EE051092F10510929B
:10489000F00590E080E0DF91CF911F910F91FF90A4
:1048A000EF90DF90CF9008950097F1F0F894AEE587
:1048B000B2E0E2EFF5E030E020E04D915D91481785
:1048C0005907A8F0428153814115510581F08AE0D2
:1048D000829FF001839FF00D1124EE50FA4F8081EA
:1048E0009181009759F4789490E080E008952F5FCB
:1048F0003F4F3A962330310501F7F5CFDC01119691
:104900006D917C917183608341505109538342833F
:10491000FC012193CF0178940895009749F1DC01BF
:104920008E91853041F4E091F005F091F1053097DA
:10493000F9F0CD0119948530D8F4282F30E0F8949F
:104940008FEF8C938AE0829FF001839FF00D1124FA
:10495000EE50FA4F8081918112969C938E9311971D
:10496000B183A0838281938101969383828378941B
:104970000895CF92DF92EF92FF920F931F93CF9300
:10498000DF939C018EE294E08C7F4115510509F480
:104990009BC02115310509F497C06115710509F413
:1049A00093C07A01AB01B9016D5F7F4F6C7F9B01B2
:1049B0002F5F3F4F249F8001259F100D349F100DC6
:1049C0001124F8942091100630911106232B59F4EC
:1049D00020911806309119062115310569F120172B
:1049E000310708F058C020911A0630911B06232B7E
:1049F00091F42091180630911906820F931F20918F
:104A00002206309123062115310509F441C02017F3
:104A1000310708F056C07894CFEFDFEF86EF9FEFB5
:104A2000F701D183C083DF91CF911F910F91FF9048
:104A3000EF90DF90CF900895C3E0D0E0C0902904BC
:104A4000D0902A042AE231E02C193D0920173107C1
:104A500010F32AE02C9FF0012D9FF00D1124EE5051
:104A6000FA4F9183808355834483538342837783B2
:104A7000668311870087009709F055DE0C0D1D1D18
:104A800010932A0400932904789490E080E0C8CF22
:104A9000C4E0D0E0D3CFC3E0D0E02AE02C9FF00107
:104AA0002D9FF00D1124EE50FA4F91838083558392
:104AB00044835383428377836683009729F333DEED
:104AC000E3CFC4E0D0E0E9CF8FEF9FEFACCF9C0104
:104AD0000397029708F069C0F89484E09AE0482FA1
:104AE00050E0241735070CF44DC091E08AE0829F16
:104AF000F001839FF00D1124EE50FA4F11821082C5
:104B00001582148213821282178216829923B1F1C0
:104B10008091100690911106892BA9F42091180616
:104B2000309119062115310571F080912904909179
:104B30002A04821B930B90932A04809329041092D9
:104B400019061092180680911A0690911B06892B5F
:104B5000A9F420912206309123062115310571F028
:104B60008091290490912A04821B930B90932A042C
:104B7000809329041092230610922206789490E0E4
:104B800080E00895949FF001959FF00D1124EE5060
:104B9000FA4F40815181452B31F440855185452B99
:104BA00011F481509CCF90E0A1CF8FEF9FEF08953B
:104BB0004115510549F1009739F16115710521F150
:104BC000F8942091EE053091EF05232BB9F4209154
:104BD000F0053091F105232B89F49093EF05809334
:104BE000EE057093F1056093F005789425E030E0D0
:104BF00090E080E0FA0131832083089578942FEFCC
:104C00003FEF86EF9FEFF6CF8FEF9FEF0895059769
:104C100069F4F8941092EF051092EE051092F105E8
:104C20001092F005789490E080E008958FEF9FEF68
:104C300008956115710519F4F0E0E0E011C08530C8
:104C4000910581F4E091EE05F091EF053097A1F325
:104C5000CB0101961995009779F3FC0185E08193CA
:104C6000CF0108959C01235031092230310520F7EE
:104C70002AE0289FD001299FB00D1124AE50BA4FD1
:104C80002D913C911197232BB9F216962D913C91C1
:104C900017972617370780F2F89412962D913C91BA
:104CA00013972115310529F0ED91FC91119730975B
:104CB00011F47894C1CF4181528111965C934E9347
:104CC0002150310913963C932E9312978193789437
:104CD000C7CFE8E5F5E086E9DF011D928A95E9F79F
:104CE000EBE2F4E08DE291E0DF019C011D922150A6
:104CF0003040E1F710922A0410922904E2EFF5E027
:104D000082E3DF011D928A95E9F7EEEEF5E084E09B
:104D1000DF011D928A95E9F790E080E00895CF9336
:104D2000DF93C0916402D0916502CF3FDC0759F454
:104D300023D4909365028093640297FF09C0D093B7
:104D40006502C093640284EF9FEFDF91CF910895D5
:104D500090E080E0FACF8230910528F48093240619
:104D600090E080E008958FEF9FEF08954F925F925B
:104D70006F927F92AF92BF92CF92DF92EF92FF92AB
:104D80000F931F93CF93DF931F921F92CDB7DEB780
:104D90001A821982009709F479C06115710509F426
:104DA00075C0209164023091650207EF1FEF2F3F1D
:104DB0003F4F09F445C06B015C01412C512C32017D
:104DC000F12CE12C10E000E09E012F5F3F4FA60187
:104DD0004E195F09B5016E0D7F1D8091640290919F
:104DE00065022ED4892B09F04BC089819A810097E6
:104DF00041F4E114F10429F420912406222309F45A
:104E000042C0E80EF91EEC14FD04D0F480E8481608
:104E100084E858068EE16806710420F560E070E0D1
:104E2000CB010E94E0302AE0420E511C611C711C33
:104E30000A3F4FEF140721F0043F8FEF1807A1F44A
:104E4000C8010F900F90DF91CF911F910F91FF90AC
:104E5000EF90DF90CF90BF90AF907F906F905F907A
:104E60004F90089501EF1FEF81E090E0013F2FEF99
:104E7000120711F090E080E0892B09F4A5CFE0CF74
:104E800004EF1FEFDDCF0AEF1FEFDACF0FEF1FEFB9
:104E9000D7CF4F925F926F927F92AF92BF92CF9295
:104EA000DF92EF92FF920F931F93CF93DF931F92A6
:104EB0001F92CDB7DEB71A821982009709F479C024
:104EC0006115710509F475C0209164023091650285
:104ED00007EF1FEF2F3F3F4F09F445C06B015C0107
:104EE000412C512C3201F12CE12C10E000E09E010C
:104EF0002F5F3F4FA6014E195F09B5016E0D7F1D53
:104F000080916402909165024ED3892B09F04BC0C9
:104F100089819A81009741F4E114F10429F42091E8
:104F20002406222309F442C0E80EF91EEC14FD0405
:104F3000D0F480E8481686E9580688E968067104C6
:104F400020F560E070E0CB010E94E0302AE0420EE4
:104F5000511C611C711C0E3F4FEF140721F0043FE0
:104F60008FEF1807A1F4C8010F900F90DF91CF9138
:104F70001F910F91FF90EF90DF90CF90BF90AF9077
:104F80007F906F905F904F90089502EF1FEF81E048
:104F900090E0023F2FEF120711F090E080E0892BA4
:104FA00009F4A5CFE0CF04EF1FEFDDCF0EEF1FEF29
:104FB000DACF0FEF1FEFD7CF809164029091650297
:104FC0008F3F980749F0D0D2892B49F48FEF9FEF9C
:104FD000909365028093640290E080E0089584EFEE
:104FE0009FEF0895CF92DF92EF92FF920F931F935E
:104FF000CF93DF9321E04115510509F020E04150A6
:10500000510921112CC0DC01FB01D12CC12C21E064
:1050100022C03FEFC31AD30A7D010D911D91E70114
:10502000EA80FB80E016F106A8F420813181E2805D
:10503000F380F182E08233832283ED90FC9011971C
:105040009D0122503109E901F982E88211961C93F1
:105050000E9320E03296C416D506D8F2D2CFDF9157
:10506000CF911F910F91FF90EF90DF90CF90089517
:10507000FC01680F791F90E080E0E617F70709F45C
:1050800008952191820F911DF8CF209125062111BD
:1050900013C045DE009791F410922B0610922A0659
:1050A00010922906109228061092270610922606C2
:1050B00021E020932506089584EF9FEF0895AF9295
:1050C000BF92CF92DF92EF92FF920F931F93CF93F5
:1050D000DF93009709F460C04630510508F45CC0C6
:1050E00020912506C7EFDFEF222309F449C08C0188
:1050F000060F171FF801C080D180C114D10409F434
:105100004EC096012A5F3F4F4217530708F447C02D
:105110007C0180912A0690912B0693838283B601AD
:105120006C5F7F4F5801A60EB71EC801A1DFF501C5
:105130009183808364E070E0C80118DEEC01892B64
:10514000F9F481E090E007DEB601C80104960EDEB6
:10515000EC01892B91F462E070E0C50107DEEC01FF
:10516000892B59F4C701D9DB80912A0690912B062F
:10517000019690932B0680932A0690E080E0EBDD69
:10518000CE01DF91CF911F910F91FF90EF90DF90B3
:10519000CF90BF90AF900895CFEFDFEFF1CFC9EF81
:1051A000DFEFEECF6F927F928F929F92AF92BF927E
:1051B000CF92DF92EF92FF920F931F93CF93DF93E3
:1051C00000D01F92CDB7DEB7009709F47AC0411521
:1051D000510509F476C02091250607EF1FEF222321
:1051E00009F44DC03A017B015C0164E070E0CE013E
:1051F00001964FDE8C01892B09F041C009811A818B
:105200000115110509F45AC0480186E0880E911C69
:10521000B701680D791D809166029091670209DDE2
:105220006C01009709F450C0A70170E060E00E9493
:105230003A3789819A81AB81BC81EC0CFD1CF70166
:1052400081939193A193B1937F0181E090E083DDFD
:10525000B801C7011EDE892B31F562E070E0C7019D
:10526000800F911F16DE8C01892BE9F490E080E01D
:1052700072DDF501D182C082F30191828082C80182
:105280000F900F900F900F90DF91CF911F910F9182
:10529000FF90EF90DF90CF90BF90AF909F908F9056
:1052A0007F906F90089590E080E055DDF5011182C8
:1052B0001082F30111821082C6012FDB09EF1FEF6C
:1052C000DECF0FEF1FEFDBCF06EF1FEFD8CF00973A
:1052D000A1F04115510589F02115310571F0F90151
:1052E00036966E177F0748F0DC012D933C93DA0168
:1052F000ED93FC9390E080E008958FEF9FEF089589
:10530000AF92BF92CF92DF92EF92FF920F931F93D3
:10531000CF93DF93009709F45FC04115510509F45D
:105320005BC06530710508F457C020912506C7EFB2
:10533000DFEF222391F1DC01CD90DC9011971296E2
:10534000ED91FC9196012A5F3F4FC9EFDFEF2617E1
:10535000370719F5C0912606D0912706209749F501
:1053600021E030E030932706209326067A018C0155
:10537000F0932906E09328065601B4E0AB0EB11C69
:10538000B50176DE0A0D1B1DF801208131818217DF
:10539000930729F5D701CD92DC92CE01DF91CF9111
:1053A0001F910F91FF90EF90DF90CF90BF90AF9043
:1053B000089520912806309129062F5F3F4FCCEFAA
:1053C000DFEFE217F30790F2CBEFDFEF2E173F0787
:1053D00068F2D0E0C0E0CACFCFEFDFEFDECFC3EF9F
:1053E000DFEFDBCF84E090E0089582E090E0089565
:1053F0008CEF9FEF089580E290E0089510922B06C5
:1054000010922A061092290610922806109227065A
:105410001092260690E080E00895909367028093B2
:105420006602089580912506882391F0C5DD0097D6
:1054300089F410922B0610922A06109229061092D7
:105440002806109227061092260610922506089527
:1054500090E080E00895009749F06115710531F002
:10546000FC0111821082FB01118210820895F3CF9A
:1054700026E030E040E855E260E070E090E080E057
:1054800000C08130910571F01CF4892B39F008952A
:105490008230910551F0039759F008958CE396E01E
:1054A0000C94303489ED96E0FBCF86E797E0F8CF97
:1054B00083E198E0F5CF1F920F920FB60F9211245F
:1054C0000BB60F922F933F934F935F936F937F93FE
:1054D0008F939F93AF93BF93EF93FF9386E09FEFDC
:1054E0009093250180932401BFD0FF91EF91BF914C
:1054F000AF919F918F917F916F915F914F913F916C
:105500002F910F900BBE0F900FBE0F901F9018950C
:1055100086E09FEF9093250180932401A3E7B0E0FC
:105520008C918E7F8C93E0E2F1E080818C7F808390
:10553000E1E2F1E08081877E8083808183608083E7
:1055400080818B7F80838C9181608C930895E3E7C9
:10555000F0E0808190819E7F90838170089581E04A
:10556000089510922C06089568EE73E080E090E0B4
:1055700027D690E080E0089526E030E040E050E15A
:105580006EE070E090E080E07CDF8CE396E00E94CB
:105590006633892B29F08CE396E00E948033F5CFA7
:1055A00090E080E00895CF92DF92EF92FF920F9308
:1055B0001F93CF93DF936B017A01E901198218825F
:1055C0008CE396E00E946633892B79F18601CC2426
:1055D000C39482E0D82E80912C06811111C08CE3F7
:1055E00096E00E9480330297B1F7C0922C06F80132
:1055F000D1928F0188819981019699838883EBCF1D
:10560000888199818E159F0580F48CE396E00E9435
:1056100080338F3F9807A1F3F80181938F01888130
:105620009981019699838883EBCF90E080E0DF91A8
:10563000CF911F910F91FF90EF90DF90CF90089541
:105640000F931F93CF93DF93EA0189018CE396E0D8
:105650000E94C036F801D183C08390E080E0DF91E2
:10566000CF911F910F910895CF92DF92EF92FF9209
:105670000F931F93CF93DF931F921F92CDB7DEB787
:1056800080912F0691E0980F90932F06882399F030
:1056900021E030E0309332062093310680932F06CC
:1056A0000F900F90DF91CF911F910F91FF90EF908E
:1056B000DF90CF900895CE0101960E94AB067894BA
:1056C00000917A0210917B02F801C28CD38CE48C99
:1056D000F58C0E94B306B701A60190E080E00E941D
:1056E0009905F89480912F06815080932F068A8126
:1056F000882389F080912E0691E0980F90932E06D2
:10570000882349F021E030E03093320620933106BF
:1057100080932E06C5CF80912E06882309F4C0CF32
:10572000809130068111BCCF81E08093300678945F
:10573000F80122A133A144A155A1A4E6B0E00E9442
:1057400027376B017C010E943B07B701A60181E06E
:1057500090E00E949905F89480912E0681508093E4
:105760002E068091300681508093300699CF0F939A
:105770001F93CF93DF93109211091092100956D501
:1057800077DEC0917A02D0917B02198218826FEF86
:105790007FEFCB010E941C0670E060E090E080E0AB
:1057A0000E949B04009709F042C00E945C09F89493
:1057B0007894BE016A5B7F4F8A819B810E949E0420
:1057C000892B71F46FEF7FEFCB010E942F050E94B0
:1057D0001606882329F081E0FE01E65BFF4F8083F7
:1057E000F89496DE0E941906882311F080E00BC021
:1057F0000E9416068111FACF81E0FE01E65BFF4FA1
:1058000090819111F3CF8093100978940E945412E3
:105810008C017894C65BDF4F8091100981110CC018
:105820000E94090B0E94FB05F89490E080E0DF9154
:10583000CF911F910F9108950E94F9050E941906BA
:105840008823D9F081E0809311099091110981E0BA
:10585000911180E08093100980911109811177DE08
:105860000130110529F40E945412892B09F479DEC4
:105870000E9454128C0173DECFCF0E941606811154
:10588000E1CF81E098819111DECF80E0DCCF3AD189
:1058900008F481E008950CD099C191D140F088D1ED
:1058A00030F021F45F3F19F051C15111DAC17DC1CF
:1058B0009ED198F39923C9F35523B1F3951B550B4A
:1058C000BB27AA2762177307840738F09F5F5F4FD3
:1058D000220F331F441FAA1FA9F333D00E2E3AF014
:1058E000E0E830D091505040E695001CCAF729D02E
:1058F000FE2F27D0660F771F881FBB1F261737077D
:105900004807AB07B0E809F0BB0B802DBF01FF27AC
:1059100093585F4F2AF09E3F510568F017C1A1C10F
:105920005F3FECF3983EDCF3869577956795B795E6
:10593000F7959F5FC9F7880F911D9695879597F901
:105940000895E1E0660F771F881FBB1F621773077A
:105950008407BA0720F0621B730B840BBA0BEE1F8F
:1059600088F7E095089504D06894B1117AC108953C
:1059700046D188F09F5790F0B92F9927B751A0F0E2
:10598000D1F0660F771F881F991F1AF0BA95C9F7D3
:1059900012C0B13081F064D1B1E0089561C1672FC8
:1059A000782F8827B85F39F0B93FCCF38695779583
:1059B0006795B395D9F73EF490958095709561956C
:1059C0007F4F8F4F9F4F0895E89409C097FB3EF497
:1059D00090958095709561957F4F8F4F9F4F99233C
:1059E000A9F0F92F96E9BB279395F69587957795BA
:1059F0006795B795F111F8CFFAF4BB0F11F460FF7A
:105A00001BC06F5F7F4F8F4F9F4F16C0882311F0D1
:105A100096E911C0772321F09EE8872F762F05C0E5
:105A2000662371F096E8862F70E060E02AF09A9580
:105A3000660F771F881FDAF7880F9695879597F975
:105A40000895F7D080F09F3740F491110EF009C10E
:105A500060E070E080E89FEB089526F41B16611D5E
:105A6000711D811D79C093C0A3D018F011F0A7D08B
:105A700038F49BC0F6C0E92FBAD0B0F35523C9F370
:105A8000E7FB6217730784079507A8F199F3E92FDD
:105A9000FF2788232AF03197660F771F881FDAF7D0
:105AA000952F5527442332F091505040220F331F39
:105AB000441FD2F7BB27E91BF50B621B730B840B4A
:105AC000B109C1F222F4620F731F841FB11D319717
:105AD0002AF0660F771F881FBB1FEFCF91505040F1
