:1000000005C100000C94872C0C94B22C0C94DD2CB0
:100010000C94082D0C94332D0C945E2D0C94892D8A
:100020000C94B42D24C1000022C1000020C10000A6
:100030001EC100001CC100001AC1000018C1000050
:1000400016C1000014C1000012C1000010C1000060
:100050000EC100000CC100000AC100000C94DF2D8D
:1000600006C100000C94DB310C94113200C1000079
:10007000FEC00000FCC00000FAC00000F8C0000094
:10008000F6C00000F4C00000F2C00000F0C00000A4
:100090000C9467320C949D32EAC00000E8C0000066
:1000A000E6C00000E4C00000E2C00000E0C00000C4
:1000B000DEC00000DCC00000DAC00000D8C00000D4
:1000C000D6C00000D4C000000C943C280C94F3323D
:1000D0000C942933CCC000000C947F330C94B533BE
:1000E000C6C0000000000A0B02090C0D0E08070331
:1000F00004010000000000000000000000000000FB
:1001000000000000000000000000000000000000EF
:1001100012111000000000000000000000000000AC
:100120000000000000000000000001021020200874
:100130000810204010204080020102010804020142
:1001400001020408102040808040201008040201B1
:10015000800402018040201008040201080402010A
:100160000102040810204080010204081020408091
:1001700005050505070508080808020202020A0A23
:100180000808040404040101010101010101030341
:10019000030303030303040707070C0C0C0C0C0CEC
:1001A0000C0C0202020206060606060606060B0BE9
:1001B0000B0B0B0B0B0B000020002300260029006B
:1001C0002C002F003200000100000301060109018C
:1001D00000002200250028002B002E0031003400F2
:1001E00002010000050108010B01000021002400AC
:1001F00027002A002D003000330001010000040117
:1002000007010A013A32C6325233DE3311241FBECF
:10021000CFEFD1E2DEBFCDBF00E00CBF12E0A0E027
:10022000B2E0ECE1F9E600E00BBF02C007900D92EE
:10023000AE3FB107D9F728E0AEEFB2E001C01D92A2
:10024000A23AB207E1F711E0C6E0D1E000E006C053
:1002500021970109802FFE010E945B34C230D10733
:1002600080E00807A9F70E9495290C948C34C8CE29
:10027000CF92DF92EF92FF920F931F93E82FF92F07
:1002800005C0015011092109310961F190819623BE
:100290009417B9F305C0015011092109310911F171
:1002A000908196239413F7CFC12CD12CE12CF12C03
:1002B0000AC08FEFC81AD80AE80AF80A0C151D05FB
:1002C0002E053F0579F080818623841791F36C2DEC
:1002D0007D2D8E2D9F2D1F910F91FF90EF90DF9020
:1002E000CF90089560E070E080E090E01F910F9162
:1002F000FF90EF90DF90CF900895611102C00C94B1
:1003000020306130E1F362E0FACF662319F061E05A
:100310000C945C3060E0FCCFCF92DF92EF92FF92C2
:10032000CF93882351F16A017B01CFEFC80F20E002
:1003300030E0A901CB01B6010E941D2A87FF11C040
:10034000C701B60190580E94262A9B01AC016C2F70
:1003500070E090E080E0CF91FF90EF90DF90CF9041
:10036000B2C0C701B6010E94212A8C2FCF91FF9005
:10037000EF90DF90CF900C94E62ECF91FF90EF900E
:10038000DF90CF9008950F931F938B019C0183E022
:1003900036952795179507958A95D1F702501D4FE9
:1003A000462F477021E030E0F90102C0EE0FFF1F39
:1003B0004A95E2F7AF01F80120812423CB01019691
:1003C000211102C090E080E01F910F9108950F93DA
:1003D0001F938B019C0183E0369527951795079510
:1003E0008A95D1F7677081E090E001C0880F6A9527
:1003F000EAF7F801E250FD4F2081452B31F480955A
:10040000822380831F910F910895822BFACF2F9220
:100410003F924F925F926F927F928F929F92AF9294
:10042000BF92CF92DF92EF92FF920F931F93CF93E1
:10043000DF93D62EC72E782E692E49015A01280146
:1004400061E08D2D0E942030CD2DDC2D8E010F5FBF
:100450001F4FA8016D2D7C2D872D962DB8DF20E034
:1004600030E0A901C201B7010E948E2B181664F476
:10047000C201B7010E94262A2B01C501B4010E94C6
:10048000262AA201CE0123D0C801DF91CF911F916E
:100490000F91FF90EF90DF90CF90BF90AF909F9023
:1004A0008F907F906F905F904F903F902F90089526
:1004B000882341F08150682F70E090E080E050E0A8
:1004C00040E085CF0895862FB9010C94E62E9C015B
:1004D000FC01EC51FF4FE491E150E231E0F4F0E037
:1004E0008827EA58FD4F8F4F0C945B3488028F02A7
:1004F0009202A902BE028B02D302DF02E302FA02D9
:100500000F0324033B0350038B0265037C03910319
:1005100084B5806884BD60E0822F0C945C3084B523
:100520008062F8CF809180008C7F82608093800011
:1005300080918100807E8061682B60938100509360
:1005400087004093860080918000806880938000BF
:10055000E2CF809180008C7F8260809380008091C8
:100560008100807E8061682B6093810050938700BA
:1005700040938600809180008062E8CF8091800067
:100580008C7F82608093800080918100807E80617A
:10059000682B609381005093870040938600809180
:1005A00080008860D3CF8091B00080688093B000D5
:1005B0008091B100887F682B6093B100ACCF8091AF
:1005C000B0008062F3CF809190008C7F8260809336
:1005D000900080919100807E8061682B60939100F3
:1005E000509397004093960080919000806880938C
:1005F000900091CF809190008C7F826080939000DA
:1006000080919100807E8061682B6093910050936F
:10061000970040939600809190008062E8CF80918F
:1006200090008C7F82608093900080919100807E0A
:100630008061682B609391005093970040939600DF
:10064000809190008860D3CF8091A0008C7F8260E1
:100650008093A0008091A100807E8061682B6093D0
:10066000A1005093A7004093A6008091A00080684D
:100670008093A00050CF8091A0008C7F82608093F7
:10068000A0008091A100807E8061682B6093A10012
:100690005093A7004093A6008091A0008062E8CF0D
:1006A0008091A0008C7F82608093A0008091A10047
:1006B000807E8061682B6093A1005093A7004093D7
:1006C000A6008091A0008860D3CF809120018C7F0C
:1006D00082608093200180912101807E8061682B5F
:1006E00060932101509327014093260180912001BE
:1006F0008068809320010FCF809120018C7F8260E1
:100700008093200180912101807E8061682B60931D
:10071000210150932701409326018091200180629E
:10072000E8CF809120018C7F8260809320018091AE
:100730002101807E8061682B609321015093270105
:1007400040932601809120018860D3CFCF93C62F9C
:1007500061E00E94203060E08C2FCF910C9420301B
:100760004F925F926F927F92AF92BF92CF92DF9241
:10077000EF92FF920F931F93CF93DF935C01162F9D
:10078000C42FD22F611104C061E0842F0E94203059
:1007900060E08C2F0E945C300E94292E2B013C01CE
:1007A0000E94292E6419750986099709663071051A
:1007B00081059105A8F361E08C2F0E945C300E94B6
:1007C000292E2B013C01C02ED12CF12CE12C0E94B2
:1007D000292E6419750986099709C616D706E806F1
:1007E000F906A8F760E08C2F0E945C30111104C05C
:1007F00060E08D2F0E94203020E432E44FE050E092
:1008000061E08D2F0E948930F501608371838283BE
:100810009383DF91CF911F910F91FF90EF90DF9025
:10082000CF90BF90AF907F906F905F904F90089562
:1008300090E080E008950F931F93009709F487C01C
:100840006115710509F483C00091320210913302E1
:1008500020913402309135020E3F1F4F2F4F3F4FF2
:1008600009F066C04FEF5FEFBA0140933202509338
:1008700033026093340270933502409132025091FA
:1008800033026091340270913502DC011296ED91D1
:10089000FC9180819181A281B38180939C0390938C
:1008A0009D03A0939E03B0939F0384819581A681AD
:1008B000B7818093980390939903A0939A03B09380
:1008C0009B0380859185A285B38580939403909343
:1008D0009503A0939603B093970384859585A68589
:1008E000B7858093900390939103A0939203B09364
:1008F000930310928C0310928D0310928E0310922A
:100900008F03A6D78DE49CE09093080380930703A0
:1009100090930A03809309038AD6009731F421E06B
:1009200030E03093A1032093A0031F910F9108950D
:10093000009132021091330220913402309135023D
:10094000DB010D931D932D933C93139796CF8FEF5F
:100950009FEFEBCF8F929F92AF92BF92CF92DF9299
:10096000EF92FF921F93CF93DF934B015C011091A5
:10097000A30382E090E09093A1038093A0038114ED
:100980009104A104B10441F48091A303811104C036
:100990008091A203C1E08111C0E0C12CD12C76016D
:1009A0008091A303811106C08091A203811102C02E
:1009B000CC23D9F083E090E09093A1038093A0032F
:1009C000CC2379F1CCE9DFEF111102C00E94B10F05
:1009D000CE01DF91CF911F91FF90EF90DF90CF90EC
:1009E000BF90AF909F908F9008956AE070E080E094
:1009F00090E00E944E2E80E1C80E87E2D81EE11CD6
:100A0000F11C8FEF88169806A806B80631F0C1E0F1
:100A10008C149D04AE04BF0408F0C0E080E03BD617
:100A2000BFCFD0E0C0E0D0CFCF92DF92EF92FF9265
:100A30000F931F93CF93DF938F3F910511F008F031
:100A400050C02091A0033091A1032330310539F02B
:100A50002091A0033091A1032130310531F424E02D
:100A600030E03093A1032093A0036A017B01EC01E5
:100A700082309105A0F011E0AE01C701B601D6D5D4
:100A8000AB01BC01CE011123F9F0DF91CF911F9191
:100A90000F91FF90EF90DF90CF900C94DA118C01C2
:100AA000000F111F095F1C4FD8018D919C91892B5C
:100AB00011F30E94E4110297F1F6D801ED91FC9137
:100AC000CE011995182FD8CF0E94FC1190E080E03C
:100AD000DF91CF911F910F91FF90EF90DF90CF901A
:100AE00008958FEF9FEFF4CF80E0D5C5CF93DF93CC
:100AF00086E090E09093A1038093A00325D6EC01BB
:100B0000E7E0F3E084E0DF011D928A95E9F70E94B7
:100B1000490F1092A1031092A003CE01DF91CF9153
:100B200008958091A203089580918B0308956093A6
:100B3000320270933302809334029093350290E036
:100B400080E00895CF9380915E03882329F081305F
:100B500039F080915F0301C081E080935D0302C0A2
:100B600010925D03E0915D0384E0E89FF0011124A1
:100B7000ED5CFC4F85A596A5A7A5B0A98093590368
:100B800090935A03A0935B03B0935C038FEF809321
:100B90005D03C1E020E030E0A901609100027091A6
:100BA000010280910202909103020E941D2A81118C
:100BB00001C0C0E080917008C827C093700884E02D
:100BC00080937108CF910895FC0191E080916903B1
:100BD000811190E091830895CF92DF92EF92FF927E
:100BE000809169038F5F8436E0F580936903C0903C
:100BF0004D03D0904E03E0904F03F09050038FEFE1
:100C0000C81AD80AE80AF80AC0924D03D0924E03D7
:100C1000E0924F03F0925003C701B6010E94522A9E
:100C20009B01AC0160915103709152038091530379
:100C3000909154030E94922B6093490370934A034E
:100C400080934B0390934C0380915D03882361F064
:100C5000813071F081E090915F03992331F080E061
:100C600004C010926903C3CF81E080935E0302C089
:100C700010925E0380915E0394E0899FF00111243D
:100C8000ED5CFC4FC5A6D6A6E7A6F0AA80935F034D
:100C90008FEF80935E03FF90EF90DF90CF900895E9
:100CA000CF92DF92EF92FF920F93CF93DF9300D01A
:100CB0001F92CDB7DEB7809179088150823008F05D
:100CC00026C183E08093790880916F08811110928A
:100CD0006F080AE023E342E361E0CE01019640DDC4
:100CE00069817A818B819C810E94522A2EEA34ED9F
:100CF00043EB59E30E94922B20E030E040E05FE3B9
:100D00000E94922B2091040230910502409106022C
:100D1000509107020E94922B6B017C01C0927A08CD
:100D2000D0927B08E0927C08F0927D0820E030E0D1
:100D300048E452E40E948E2B18160CF0EAC0809111
:100D4000260290912702A0912802B0912902809357
:100D50007E0890937F08A0938008B093810820912B
:100D600008023091090240910A0250910B026091F1
:100D70007E0870917F0880918008909181080E9480
:100D8000922B6093820870938308809384089093D9
:100D900085080E948F2A6B017C0146D3811136C1E0
:100DA000C701B601FCD2811131C120E030E040E83A
:100DB00053E4C701B6010E94A92A6B017C0120E01F
:100DC00030E0A9010E941D2A87FF23C1C701B60197
:100DD00090580E94262A6195609386086BE070E027
:100DE00080E090E0D0DA7C0190936A0880936908F3
:100DF0006091860870E090E080E00E94522AAB018A
:100E0000BC01C70189DAC0907E08D0907F08E090CD
:100E10008008F090810820E030E0A901C701B60108
:100E20000E941D2A882309F4F9C02AE939E949E119
:100E30005FE3C701B6010E941D2A882309F4EEC0B2
:100E4000C0902E02D0902F02E0903002F09031023C
:100E500065E070E080E090E096DA9093620880931D
:100E60006108C701B6010E948F2A6B017C01DCD2A8
:100E70008111DDC0C701B60192D28111D8C020E036
:100E800030E040E853E4C701B6010E94A92A6B0193
:100E90007C0120E030E0A9010E941D2A87FFCAC022
:100EA000C701B60190580E94262A619570E090E033
:100EB00080E00E94542AAB01BC01809161089091AE
:100EC00062082ADA60917008609387088DE01DDA65
:100ED0008091550390915603A0915703B091580308
:100EE0000196A11DB11D8093550390935603A093C5
:100EF0005703B09358030F900F900F900F90DF910E
:100F0000CF910F91FF90EF90DF90CF90089580E008
:100F1000D9CE20E030E048E452E4C701B6010E9497
:100F20001D2A18169CF020E030E040E252E4C70190
:100F3000B6010E948E2B18164CF4809122029091DB
:100F40002302A0912402B091250201CF20E030E0DD
:100F500040E252E4C701B6010E941D2A18169CF017
:100F600020E030E040EF51E4C701B6010E948E2B33
:100F700018164CF480911E0290911F02A09120023D
:100F8000B0912102E4CE20E030E040EF51E4C7010F
:100F9000B6010E941D2A18169CF020E030E040EABD
:100FA00051E4C701B6010E948E2B18164CF48091B3
:100FB0001A0290911B02A0911C02B0911D02C7CE93
:100FC00020E030E040EA51E4C701B6010E941D2A4A
:100FD00018169CF020E030E040E251E4C701B60171
:100FE0000E948E2B18164CF48091160290911702D5
:100FF000A0911802B0911902AACE8091120290918C
:101000001302A0911402B0911502A1CEC12CD12CD3
:101010007601C701B6010E94262ADECEC0902A02C0
:10102000D0902B02E0902C02F0902D0211CFC12C19
:10103000D12C7601C701B6010E94262A37CF8F92A4
:101040009F92AF92BF92DF92EF92FF920F931F9306
:10105000CF93DF9384E090E06BD1A3E3B3E040E073
:1010600050E060E87FEBD7964D935D936D937C9352
:10107000DA974FE652E163E87AE35E964D935D932B
:101080006D937C93919743E15EEC62ED73E7149668
:101090004D935D936D937C93179746E65EED63E009
:1010A00070EA18964D935D936D937C931B974AE479
:1010B00052EA69E47BEE1C964D935D936D937C93AD
:1010C0001F9749EE51E86AE674E250964D935D939E
:1010D0006D937C935397C7E2D3E01396DC93CE9342
:1010E0001297EBE0F3E0F983E8838BE692E09183DB
:1010F00080839383828321E738E03583248329E743
:1011000038E03783268328E738E0318720879387C4
:1011100082879587848723E738E03787268722E709
:1011200038E0318B208B27E738E0338B228B26E7A2
:1011300038E0358B248B25E738E0378B268B24E786
:1011400038E0318F208F938F828F87E493E09D83E7
:101150008C8387E393E09B838A8389E493E09F8376
:101160008E838FEF9B968C939B979C961C929C975B
:101170009D964D915D916D917C91D09796964D93F2
:101180005D936D937C9399979A968C93C3E5D8E081
:10119000809110028D8F42E050E062EA75E080E0BD
:1011A0000E940D2C812C912C54018394888E998E51
:1011B000AA8EBB8E63E382E3C9DA1C8E188A898A01
:1011C0009A8AAB8ABC8AE12CF12C8701A80197018D
:1011D0006BE070E080E090E01AD99F8B8E8BDD246D
:1011E000D394DD8A188689869A86AB86BC86A80148
:1011F000970165E070E080E090E009D99F878E87D5
:10120000DD86188289829A82AB82BC8261E08DE0A1
:1012100074D8DD82DF91CF911F910F91FF90EF90F5
:10122000DF90BF90AF909F908F900895809163085A
:1012300081112AC081E080936308809164089091B5
:101240006508A0916608B09167080197A105B105EE
:10125000D9F4809168088823B9F06BE070E080E0F1
:1012600090E091D890936A088093690840E050E03C
:10127000BA0152D86BE070E080E090E084D890939F
:101280006A088093690814D980915B0881112AC08B
:1012900081E080935B0880915C0890915D08A0914B
:1012A0005E08B0915F080197A105B105D9F480915E
:1012B00060088823B9F065E070E080E090E063D8D2
:1012C000909362088093610840E050E0BA0124D80E
:1012D00065E070E080E090E056D8909362088093DB
:1012E0006108E6D880915308811103C081E08093A2
:1012F0005308089560E070E080E89FE7089560E09B
:1013000070E080E89FE7089560E070E080E89FEF7C
:10131000089560E070E080E89FEF089560E070E07D
:1013200080EC9FEF089560E070E080EC9FEF0895FF
:10133000F5DF6093940870939508809396089093D6
:101340009708F1DF609388087093890880938A0872
:1013500090938B08CFDF60939008709391088093EF
:10136000920890939308CBDF60938C0870938D085C
:1013700080938E0890938F08C7DF609398087093CE
:10138000990880939A0890939B08C3DF60939C0808
:1013900070939D0880939E0890939F080895CF9224
:1013A000DF92EF92FF92CF936B017C01AC019B0126
:1013B00060919008709191088091920890919308A3
:1013C0000E941D2AC1E0882371F0A7019601609157
:1013D00098087091990880919A0890919B080E94B2
:1013E0001D2A8111C0E08C2FCF91FF90EF90DF90EC
:1013F000CF9008950F931F938B019C010027112715
:1014000020783F770115110520483F4749F4AB018B
:10141000BC016F77772781E0452B462B472B09F4DA
:1014200080E01F910F910895E5CF4F925F926F92E8
:101430007F928F929F92AF92BF92CF92DF92EF9264
:10144000FF920F931F93F89440907B0350907C037E
:1014500060907D0370907E03C0906F03D090700306
:10146000E0907103F0907203452B09F0A4C09B013A
:10147000AC01241935094609570929013A0100919F
:101480007703109178032091790330917A03480112
:101490005901840C951CA61CB71C80169106A20647
:1014A000B306A0F4009173031091740320917503A7
:1014B000309176030F5F1F4F2F4F3F4F0093730301
:1014C000109374032093750330937603809277030F
:1014D00090927803A0927903B0927A0300917303FB
:1014E00010917403209175033091760380927F03ED
:1014F00090928003A0928103B092820300938303B1
:1015000010938403209385033093860360937B03B9
:1015100070937C0380937D0390937E03A8EEB3E0E9
:10152000A30192010E9463346C0D7D1D8E1D9F1DD1
:1015300060936F03709370038093710390937203B1
:101540000091320210913302209134023091350221
:101550000F3F1F4F2F4F3F4FF1F00091320210917C
:10156000330220913402309135020E3F1F4F2F4F2E
:101570003F4F89F0C0903202D0903302E0903402A5
:10158000F090350221E08C149D04AE04BF0408F4F1
:1015900020E020938B0378941F910F91FF90EF90A0
:1015A000DF90CF90BF90AF909F908F907F906F9083
:1015B0005F904F9008954B015C0184189508A60830
:1015C000B708A3019201261B370B480B590B641572
:1015D000750586059705D0F082169306A406B50614
:1015E00040F420E030E0A90181149104A104B10489
:1015F00091F4A8EEB3E00E946334A7019601261B84
:10160000370B480B590BCA01B901C5CF8216930697
:10161000A406B50670F7A8EEB3E0A50194010E94F8
:1016200063346C0D7D1D8E1D9F1DB5CFFECECF93F7
:10163000DF9300D01F92CDB7DEB71C821B821A82C7
:1016400019821092870310928803109289031092D6
:101650008A03BE016F5F7F4FCE0103960E940C2864
:1016600069817A818B819C810E94FA20009761F4C4
:10167000BE016F5F7F4FCE0103960E9418286981DB
:101680007A818B819C812ED50F900F900F900F90B7
:10169000DF91CF910895FF920F931F93CF93DF9324
:1016A000082F60E070E0CB010E944E2EFF24F394DF
:1016B0000E94E31FEC01892B89F010E0CE3F8FEFF1
:1016C000D80769F0002361F160E070E0CB010E946F
:1016D0004E2E81E090E0892B59F322C011E025D5F0
:1016E000EC01892B21F0CE3F8FEFD80759F711116C
:1016F0001EC011E0229609F410E00E94931FEC0135
:10170000892B21F0CE3F8FEFD807E1F6111111C0E0
:1017100011E0CE3F8FEFD80709F410E001110BC0A4
:10172000CE01DF91CF911F910F91FF90089511E0AD
:10173000E4CF11E0F3CF60E070E0CB010E944E2EC9
:101740001F25812F90E0C7CFCF93DF9380918B032C
:10175000882321F060E070E0CB014CD635D6D0E094
:10176000C0E0892B71F06AE070E080E090E00E94B8
:101770004E2E81E090DF28D62196C03D27E0D2078B
:1017800081F727D60E944E211092A3031092A20344
:1017900010929C0310929D0310929E0310929F033F
:1017A000109298031092990310929A0310929B033F
:1017B000109294031092950310929603109297033F
:1017C000109290031092910310929203109293033F
:1017D00010928C0310928D0310928E0310928F033F
:1017E0004EEF5FEF6FEF7FEF409332025093330283
:1017F000609334027093350210928B03EFE7F3E0AD
:1018000028E0DF011D922A95E9F710927B031092E0
:101810007C0310927D0310927E0310927703109246
:1018200078031092790310927A0310927303109246
:101830007403109275031092760310926F03109246
:1018400070031092710310927203DF91CF9108958B
:101850001092AF031092B0031092B1031092B20332
:101860001092AE038091B7039091B8039093AD03AB
:101870008093AC031092AB031092AA031092A603BC
:101880001092A7031092A8031092A9031092B40318
:101890001092B30390E080E00895CF92DF92EF9230
:1018A000FF920F931F93CF938C01892B09F055C0A2
:1018B0002091B7033091B8038091AC039091AD03B0
:1018C0004091B7035091B8035093AD034093AC03DC
:1018D0002817390781F01092AB031092AA031092D7
:1018E000A6031092A7031092A8031092A9031092C6
:1018F000B4031092B3038091B7039091B80301979A
:1019000061F58091B3039091B403892B21F4809108
:101910003602811112C08091B3039091B4030197F4
:10192000E1F48091A6039091A703A091A803B09140
:10193000A9030197A105B10581F41092A6031092A5
:10194000A7031092A8031092A9031092360282E016
:1019500090E09093B4038093B3038091B703909188
:10196000B803019709F01CC18091CD039091CE037B
:101970008017910709F014C18091C9039091CA039F
:10198000A091CB03B091CC03009709F409C1209139
:10199000C80321110DC04091C9035091CA03609141
:1019A000CB037091CC03452B462B472B09F4F8C091
:1019B0002091B3033091B4032230310509F0F0C017
:1019C0002091AA032111ECC0FC01C080D180E280EB
:1019D000F3808091AE03882309F4D3C08091BA03C9
:1019E0009091BB03892B09F4FDC02091BA0330917B
:1019F000BB0381E02230310509F080E02091BA0379
:101A00003091BB03C1E02130310549F02091BA0388
:101A10003091BB03C1E02230310509F0C0E08823DA
:101A200009F456C02091C4033091C5034091C60308
:101A30005091C703C701B6010E948E2B87FD14C0C9
:101A40002091C4033091C5034091C6035091C70350
:101A50006091AF037091B0038091B1039091B20394
:101A60000E941D2A87FD22C02091C4033091C50326
:101A70004091C6035091C703C701B6010E948E2B47
:101A8000181634F52091C4033091C5034091C60364
:101A90005091C7036091AF037091B0038091B1037F
:101AA0009091B2030E941D2A811112C08091BC0343
:101AB0009091BD03A091BE03B091BF03892B8A2BE7
:101AC0008B2B19F481E08093AB0381E08093AA0310
:101AD000CC2309F456C02091C4033091C503409132
:101AE000C6035091C703C701B6010E941D2A87FF94
:101AF00014C02091C4033091C5034091C603509196
:101B0000C7036091AF037091B0038091B1039091CE
:101B1000B2030E948E2B87FF22C02091C403309114
:101B2000C5034091C6035091C703C701B6010E9487
:101B30001D2A811126C02091C4033091C503409114
:101B4000C6035091C7036091AF037091B0038091B9
:101B5000B1039091B2030E948E2B181694F48091D9
:101B6000BC039091BD03A091BE03B091BF03892B2C
:101B70008A2B8B2B19F481E08093AB0381E0809357
:101B8000AA0381E09091AA03911180E08093AE03B3
:101B9000C092AF03D092B003E092B103F092B203CF
:101BA000012B09F067C18091B3039091B403892B95
:101BB000D9F41092B9031092AA03809136028823B7
:101BC00079F082E090E09093B4038093B303109295
:101BD00036022091B7033091B80381E0232BE9F05E
:101BE00080E01BC081E00ACF109236028091B903D9
:101BF000882349F01092AB031092B4031092B30300
:101C00001092B903EDCF8091B7039091B803892B5F
:101C1000E1F08091AA031092AA032091B3033091BE
:101C2000B4032230310509F45EC088F42115310572
:101C300009F448C02130310509F4F3C01092AB0318
:101C40001092AA031092B90338C081E0E6CF233086
:101C5000310509F4B1C02430310581F74091A60364
:101C60005091A7036091A8037091A90341155105F4
:101C70006105710561F04150510961097109409395
:101C8000A6035093A7036093A8037093A903409100
:101C9000A6035091A7036091A8037091A903452B57
:101CA000462B472BD9F42091B5033091B603213050
:101CB000310509F046C01092AB031092B4031092A4
:101CC000B3030CC080913602882341F082E090E09B
:101CD0009093B4038093B303109236021092A4033E
:101CE0008091AB03CEC08823C9F38091BC0390914F
:101CF000BD03A091BE03B091BF03181619061A06C2
:101D00001B060CF07DC08091B7039091B80301973A
:101D100009F076C08091BC039091BD03A091BE03F1
:101D2000B091BF038093A6039093A703A093A80349
:101D3000B093A90383E090E09093B4038093B3033E
:101D4000CDCF4091C0035091C1036091C203709107
:101D5000C303452B462B472BA9F01092AB03809170
:101D6000C0039091C103A091C203B091C3038093BB
:101D7000A6039093A703A093A803B093A90381E0BF
:101D800090E0DACF882399F0809137029091380261
:101D9000A0913902B0913A028093A6039093A703D1
:101DA000A093A803B093A90384E090E0C5CF10925C
:101DB000AB0382E090E0C0CF8091A6039091A7038F
:101DC000A091A803B091A9030097A105B10559F00E
:101DD0000197A109B1098093A6039093A703A0934B
:101DE000A803B093A9038091A6039091A703A091A3
:101DF000A803B091A903892B8A2B8B2B09F06ECFF6
:101E00008091370290913802A0913902B0913A0244
:101E1000892B8A2B8B2B09F44ECF81E08093AB0367
:101E2000B3CF4091A6035091A7036091A80370918E
:101E3000A903411551056105710561F04150510932
:101E4000610971094093A6035093A7036093A80307
:101E50007093A9034091A6035091A7036091A80332
:101E60007091A903452B462B472B09F037CF8111E1
:101E7000C7CF9FCF8091A403882309F431CF8091ED
:101E8000A503CF911F910F91FF90EF90DF90CF901E
:101E900008951092AF031092B0031092B103109204
:101EA000B2031092AE031092B4031092B3031092D7
:101EB000AD031092AC031092CE031092CD0310929A
:101EC000AB031092AA031092A6031092A7031092DC
:101ED000A8031092A9031092A5031092A4031092D4
:101EE000C9031092CA031092CB031092CC03109234
:101EF000C8031092C4031092C5031092C603109237
:101F0000C70388EE93E0A0E0B0E08093370290939F
:101F10003802A0933902B0933A021092C003109293
:101F2000C1031092C2031092C3031092BC0310921B
:101F3000BD031092BE031092BF031092BB03109218
:101F4000BA0381E0809336021092B9031092B8036D
:101F50001092B7031092B6031092B50390E080E0A0
:101F600008958091B7039091B803892B19F580915A
:101F70003602882351F08091B903811106C081E0B7
:101F80008093A5038093A40308952091B903309111
:101F9000360281E090E0332311F090E080E030E001
:101FA00082239323892B21F01092A50381E0EACFAD
:101FB0001092A403089582E090E0FA019183808357
:101FC0008FEF9FEF0895CF93DF93EA01009711F011
:101FD0000E946E221982188290E080E0DF91CF91FA
:101FE0000895DB01009719F48FEF8C9308952EEF7D
:101FF0002C93FC013F96EF30F10508F034C08827A0
:10200000EB5FFF4E8F4F0C945B3431102F102D106F
:102010002B10291025102710231021101F101C1021
:10202000181014101A10331080E311968C93089531
:1020300089E2FBCF82E2F9CF11961C92089583E2E8
:10204000F4CF81E2F2CF81E1F0CF87E2EECF8AE2F6
:10205000ECCF80E1EACF84E2E8CF88E2E6CF86E207
:10206000E4CF81E3E2CF80E2E0CF8091DB03909187
:10207000DC0308959093DC038093DB030895809143
:10208000DA0308959091DA03892B8093DA03089597
:10209000982F90958091DA0389238093DA0308952D
:1020A0008091D90308958091D7039091D803089522
:1020B0006115710559F0FB0130E020E070E060E04F
:1020C0002417350719F06115710511F0CB0108953A
:1020D000A081B181A817B90709F4BF012F5F3F4F55
:1020E0003696EECF8091DD0381111CC060D266D29E
:1020F0009093D0038093CF030E947A1A0E948C1A87
:102100009093D4038093D3030E94FB1E0E94021F6E
:102110009093D2038093D10381E08093DD0390E01C
:1021200080E0089584EF9FEF08958F929F92AF9281
:10213000BF92CF92DF92EF92FF920F931F93CF93B4
:10214000DF9300D000D000D01F92CDB7DEB71A8643
:10215000198618861F821E821D821C821B821A828B
:1021600019828091DD0307EF1FEF882309F49CC0DB
:102170008E010D5F1F4F9E012B5F3F4FAE01495FE8
:102180005F4FBE01675F7F4F90E080E00E947F203D
:102190008C01009721F00596029708F0DBC0298595
:1021A0003A852115310509F402C1ED80FE804B818D
:1021B0005C81B701640F751F8F819885861797071B
:1021C00008F4F5C0E20EF31ED7019C91903C09F093
:1021D0007FC04230510508F47BC011968C9140912C
:1021E000DB035091DC03452B09F49CC0913F08F0C0
:1021F00071C02CE1290F2D3008F48BC02DE2290F7E
:10220000203108F489C0903C21F48150823008F4D8
:1022100083C088E3890F8B3008F481C091EFC92E09
:102220009FE0D92EEBEDFFE06D817E81AE014F5F27
:102230005F4F89859A8519955C01C114D104A1F17C
:1022400089809A808114910479F18B819C81881511
:10225000990508F487C010E000E04B815C8170E0D4
:1022600060E0C7010E94853401151105E9F4498138
:102270005A8169857A858D819E81680F791FC50194
:10228000F6011995E980FA800D811E812F8138852C
:1022900049855A856FEF7FEF81E090E00E941A2018
:1022A0008C01892B09F056C0C8012A960FB6F89404
:1022B000DEBF0FBECDBFDF91CF911F910F91FF9079
:1022C000EF90DF90CF90BF90AF909F908F90089548
:1022D00080E085CF30E020E0220F331FF901E15389
:1022E000FC4F0190F081E02D309709F497CF892FB2
:1022F00090E01995009709F491CFDC011296ED91C9
:10230000FC9113971496CD90DC90309709F08CCF08
:102310001FC021E030E0E0CF22E030E0DDCF23E05D
:1023200030E0DACFD12CC12CE3EEFFE09F3F09F083
:102330007BCFE091CF03F091D003309721F4C90116
:1023400004EF1FEF0CC08FEF90E019950097A9F6EE
:1023500004EF1FEF89859A85009709F4A5CF0E94A5
:102360006E22A2CF0E9449218C0189859A850E9404
:102370006E2270E060E0C4010E94E22098878F83A3
:102380000E9417209E838D836F817885611571056A
:1023900059F0C8010E94FA239A87898706EF1FEF38
:1023A000892B09F058CF59CF08EF1FEF56CF08EF10
:1023B0001FEFD0CF2091DD03222319F020E00C94F1
:1023C000911A87EF9FEF08958091DB039091DC03D2
:1023D00008950E94071F0E94611EF5D0EFECF3E004
:1023E00088E0DF011D928A95E9F71092DD0390E005
:1023F00080E008950C94BF1C21E040E050E0BA0159
:102400000C94911A86E090E0FA019183808390E029
:1024100080E0089547E050E06EE672E049CEDF923A
:10242000EF92FF920F931F93CF93DF938A01EC01FA
:10243000C60FD71FE090E103F090E203D9800E941D
:102440003121D816190678F082E090E0F8019183E6
:1024500080838EEF9FEFDF91CF911F910F91FF90BF
:10246000EF90DF900895EF2841F482E090E0F801CA
:102470009183808384EF9FEFEECF89818093E00387
:1024800090E00196F8019183808390E080E0E3CFB3
:10249000CF93DF93EA010E94701D882321F00E94F0
:1024A0003E210E94711D82E090E0998388838BEF2A
:1024B0009FEFDF91CF910895CF93DF93EB0186E0FB
:1024C000FB0111928A95E9F78FEF8883D8DD898324
:1024D000E7DD8A83E8DD9D838C83DF91CF910895CA
:1024E000CF93DF93EA010E94731D811109C082E03E
:1024F00090E09983888385EF9FEFDF91CF910895D6
:1025000090E080E0B7DD81E090E09983888390E0FF
:1025100080E0F3CF0F931F93CF93DF93EA018C01F9
:10252000060F171F0E94731D81110BC082E090E0FF
:102530009983888385EF9FEFDF91CF911F910F9152
:102540000895F8018181823038F082E090E099832B
:1025500088838EEF9FEFF0CF81E090E08BDD88E005
:1025600090E09983888390E080E0E6CFCF93DF937B
:102570000097D1F4EB01FB01329686E0DF011D925A
:102580008A95E9F78FEF888385E089831A820E9414
:1025900031218B830E9430219D838C8381E08E8347
:1025A0008F83DF91CF910895DF91CF911ACD8AE08B
:1025B00092E19093DF038093DE0308958091DE0320
:1025C0009091DF0308951092DF031092DE030895C7
:1025D0008091E1039091E2030895411105C06115D6
:1025E00071058105910561F06093E1037093E20349
:1025F0008093E3039093E4034093E50381E008951F
:1026000080E00895FF920F931F93CF93DF938A0189
:10261000EC01C60FD71FF9800E943121F816190668
:1026200068F082E090E0F801918380838EEF9FEF65
:10263000DF91CF911F910F91FF9008956C817D8163
:102640008E819F814B81C9DF811108C082E090E0BB
:10265000F8019183808384EF9FEFEACF8981809393
:10266000E00390E00196F8019183808390E080E0A0
:10267000DFCFCF93DF93EA01FC01E60FF71F648100
:102680007581868197814381A8DF811109C082E02D
:1026900090E09983888384EF9FEFDF91CF91089535
:1026A00081E090E09983888390E080E0F6CFE1EECE
:1026B000F3E04081518162817381480F511D611D9A
:1026C000711D40835183628373830895CF93C091BA
:1026D000E0034C2F50E06091E1037091E20301961A
:1026E0000E947C348C2FE3DF1092E003CF91089599
:1026F000009799F48091E1039091E2032FEFFB01A1
:102700002083892B59F02091E00330E02F5F3F4F69
:102710002417350719F4CB01D9CF63CC089500975E
:1027200099F48091E1039091E2032FEFFB01208364
:10273000892B59F02091E00330E02F5F3F4F2417A1
:10274000350719F4CB01C2CF4CCC089523E1AC017D
:10275000249FC001259F900D1124E091EA03F09180
:10276000EB03E80FF91F238134812250310981E006
:102770002230310508F080E008950F931F93CF9326
:10278000DF930091EC031091ED03D0E0C0E080E016
:102790000C171D0749F491E0811190E0892FDF911A
:1027A000CF911F910F9108958111F5CFCE01CEDF0A
:1027B0002196EECFA091EA03B091EB03109729F197
:1027C0002091EC033091ED0382179307F0F453E16D
:1027D000589F9001599F300D1124A20FB31FED9106
:1027E000FC911197309789F012968C91681768F4D4
:1027F0008BE0689FE00DF11D112480819181892B70
:1028000021F081E09281491708F080E008959C0151
:1028100043E1429FC001439F900D1124E091EA03E0
:10282000F091EB03E80FF91F8385823091F481E08A
:1028300090E06581768140913B0250913C026417A3
:10284000750711F490E080E0892B19F081E0232BCB
:1028500009F080E00895EF92FF920F931F93CF93BA
:10286000DF93EA01FC01E60FF71F02811381E48088
:10287000F5804F2D6E2DC8019DDF81110DC082E0C6
:1028800090E0998388838EEF9FEFDF91CF911F9126
:102890000F91FF90EF900895C80158DF882339F019
:1028A00082E090E09983888388EF9FEFEECF1093CA
:1028B000420200934102E0924302F092440281E01E
:1028C00090E09983888390E080E0DFCFCF92DF9221
:1028D000EF92FF920F931F93CF93DF937A01EC0156
:1028E000C60FD71FC0904102D09042020091430210
:1028F00010914402412F602FC6015CDF811110C08E
:1029000082E090E0F701918380838AEF9FEFDF916F
:10291000CF911F910F91FF90EF90DF90CF9008958E
:10292000C60114DF882341F082E090E0F701918333
:10293000808388EF9FEFEBCF4C815D816E817F813B
:102940009A8189818F3F41F082E090E0F701918385
:1029500080838EEF9FEFDBCFE3E1EC9D9001ED9D57
:10296000300D1124E091EA03F091EB03E20FF31F25
:102970000190F081E02D2BE0029FE00DF11D11246C
:102980000190F081E02D27E0129FE00DF11D112450
:10299000808391838B818283438354836583768391
:1029A0001F5F1093440281E090E0F70191838083E0
:1029B00090E080E0ACCFEF92FF920F931F93CF9304
:1029C000DF937A018C01060F171FC091EA03D091A3
:1029D000EB03209781F021E030E0F80182819381C0
:1029E0004091EC035091ED038417950710F030E00F
:1029F00020E0232B71F482E090E0F7019183808343
:102A00008EEF9FEFDF91CF911F910F91FF90EF908D
:102A1000089543E1489F9001499F300D1124C20F52
:102A2000D31F94DE882341F082E090E0F701918388
:102A3000808388EF9FEFE6CFF8012481358120382D
:102A40003105C8F687818111D6CF4181842F90E06E
:102A50008F7E009741F082E090E0F70191838083C0
:102A600086EF9FEFCFCF4F833E832D83268128872C
:102A70001986223010F421E0288721E030E0F701A8
:102A800031832083BFCF88E090E0FA019183808377
:102A900090E080E00895FB018FEF808381E18183E6
:102AA0008FEF9FEF9383828380E890E09583848308
:102AB000168217820895FB018FEF808391E0918346
:102AC00082839383848384E3858381E090E097838A
:102AD00086830895DF92EF92FF920F931F93CF9317
:102AE000DF93EA01FC01E60FF71F8181813071F06D
:102AF00082E090E0998388838FEF9FEFDF91CF9101
:102B00001F910F91FF90EF90DF9008958281938144
:102B1000D4802581E680F7800091EA031091EB03D1
:102B20000115110539F482E090E0998388838CEFD8
:102B30009FEFE4CF4091EC035091ED03841795078C
:102B400038F082E090E0998388838EEF9FEFD6CFB4
:102B5000892B39F082E090E09983888386EF9FEF9C
:102B6000CDCF8D2D8D7FB1F72130A1F781E0D11030
:102B700006C091E0E916F10431F080E004C0E2E023
:102B8000EE16F104D0F3882329F390E080E0DEDD37
:102B9000882339F082E090E09983888388EF9FEF63
:102BA000ADCFF801D38681E08487F686E586108A6A
:102BB000178681E090E09983888390E080E09ECF43
:102BC0004CE050E068E972E073CA8F929F92BF9226
:102BD000CF92DF92EF92FF920F931F93CF93DF93E9
:102BE000EA01FC01E60FF71F828193810481B58021
:102BF000E091EA03F091EB03309791F482E090E0EA
:102C0000998388838CEF9FEFDF91CF911F910F9174
:102C1000FF90EF90DF90CF90BF909F908F9008959E
:102C20002091EC033091ED038217930738F082E096
:102C300090E0998388838EEF9FEFE6CF23E1289F72
:102C40006001299FD00C1124EC0DFD1DE080F18066
:102C5000E114F10499F28281081748F78BE0089F8C
:102C600080011124E00EF11EF70180819181892BF2
:102C700029F6BB20E1F2F7E0BF9E40011124C40118
:102C80000E943522F70191838083E091EA03F0915D
:102C9000EB03EC0DFD1D0190F081E02DE00FF11F25
:102CA00080819181009739F482E090E09983888354
:102CB0008DEF9FEFA9CFA40170E060E00E94853402
:102CC0008091EA039091EB03C80ED91EF601808132
:102CD0009181080F191FF801B28281E090E0998379
:102CE000888390E080E090CFAF92BF92CF92DF9246
:102CF000FF920F931F93CF93DF93EA01FC01E60F3E
:102D0000F71F82819381F4800091EA031091EB0315
:102D10000115110581F482E090E0998388838CEF9E
:102D20009FEFDF91CF911F910F91FF90DF90CF9098
:102D3000BF90AF9008952091EC033091ED0382177E
:102D4000930738F082E090E0998388838EEF9FEFBD
:102D5000E8CF2FEF2F0D2C3FA8F723E1289F60012C
:102D6000299FD00C11240C0D1D1DF801808191812B
:102D7000892B89F6FBE0FF9E50011124C5010E94BA
:102D80003522F80191838083E091EA03F091EB030F
:102D9000EC0DFD1D80819181009739F482E090E077
:102DA000998388838DEF9FEFBCCFA50170E060E031
:102DB0000E948534E091EA03F091EB03EC0DFD1DD8
:102DC000F28281E090E09983888390E080E0A9CF4F
:102DD000CF92DF92EF92FF920F931F93CF93DF93E7
:102DE000860F971FFC01028113818091EA03909165
:102DF000EB03892B81F082E090E0FA0191838083DC
:102E00008CEF9FEFDF91CF911F910F91FF90EF908B
:102E1000DF90CF900895C801B0E0A0E00197A1092C
:102E2000B1098F3F9F4FA105B10540F082E090E0CE
:102E3000FA01918380838EEF9FEFE4CF7A0183E1E3
:102E4000809F6001819FD00C1124C6010E94352211
:102E5000EC01009741F482E090E0F70191838083D8
:102E60008DEF9FEFCFCFA60170E060E00E94853428
:102E7000D093EB03C093EA031093ED030093EC03AC
:102E800090E080E02FEF3FEF41E061E070E08017DD
:102E9000910741F481E090E0F7019183808390E015
:102EA00080E0B0CF3A8B298B1B864C877E876D875D
:102EB000188A1F8601966396EACFCF92DF92EF922F
:102EC000FF920F931F93CF93DF93EC01D12CC12C72
:102ED00010E000E0F12CE12C6A816017110609F086
:102EE000CCF483E0689FB0011124AE014F5E5F4FC8
:102EF000C7010E949A22009721F02FEF3FEF3A8BF3
:102F0000298BDF91CF911F910F91FF90EF90DF9070
:102F1000CF900895E881F981EC0DFD1D4381548126
:102F20008D859E85489F9001499F300D589F300D9B
:102F30001124C90101960115110519F44F8144FDB1
:102F4000049661E070E00E94E220E816F90608F4B9
:102F50007C010F5F1F4F8BE0C80ED11CBDCFF894D2
:102F60002091E8033091E90381E02115310509F052
:102F700080E0232B09F0789408952F923F924F928E
:102F80005F926F927F928F929F92AF92BF92CF92F9
:102F9000DF92EF92FF920F931F93CF93DF933C0149
:102FA000660E771EF301828193814C01B12CA12C16
:102FB000C091EA03D091EB03209769F021E030E063
:102FC0006091EC037091ED038617970710F030E0E5
:102FD00020E0232BD1F482E090E0FA0191838083FA
:102FE0008EEF9FEFDF91CF911F910F91FF90EF90A8
:102FF000DF90CF90BF90AF909F908F907F906F9019
:103000005F904F903F902F9008958092450290924C
:103010004602A0924702B092480263E1689F900185
:10302000699F300D1124C20FD31FF30181818330BA
:1030300040F082E090E0FA019183808386EF9FEF79
:10304000D1CF2A012B813C81232BF1F428813981B6
:103050009F8191FF2EC0232B09F46FC02091EF03B5
:103060009A81422F490F5527551FBA0141E050E080
:103070006138710514F050E040E0452B09F45DC063
:103080002A87920F9093EF038150823008F481C019
:1030900066DF882309F4D8C0F3018181813009F407
:1030A0008DC008F47BC0823009F4C6C090E080E097
:1030B000ADC0232B09F441C02091EE039A81E22F89
:1030C000E90FFF27FF1F41E050E0ED3FF10514F04D
:1030D00050E040E0452B89F12A87920F9093EE0350
:1030E000D3CFA081B181A20FB31F11966C91060FAF
:1030F000111D0196295F3F4F8417950794F38D8525
:103100009E85089F1001099F300C189F300C1124D8
:10311000C114D104D1F48F8184FF17C00E943021E3
:10312000F5E02F0E311C21E08215930508F420E014
:10313000A701455F5F4F21110EC082E090E0F201D0
:103140009183808387EF9FEF4DCF0E9430212FEF37
:10315000221A320AE8CF88819981E80EF91EF70118
:1031600014830383FFEFCF1ADF0A7A018A818C155B
:103170001D0409F00CF48CCFE881F981EE0DFF1DE0
:10318000428150E030E020E010E000E090E080E09C
:10319000B3CFF12CE12CD12CC12CE8CF81E090E011
:1031A0009C838B83EADA882309F480CF81E090E066
:1031B0000E943A1080E40E94481078CF89899A8949
:1031C000019661F083E090E09C838B8382E090E045
:1031D0000E943A1080E40E94421068CF8D819E8147
:1031E00020913B0230913C0282179307D1F4609109
:1031F0003F0270914002AE014F5E5F4F80913D02F1
:1032000090913E020E94B9230097E1F2789422E067
:1032100030E0F20131832083892B99F08DEF9FEF0D
:10322000E1CE89288A288B2869F6039758F6CE01C3
:1032300044DE188A1F86E8CF82E090E09C838B836F
:1032400035CF90E080E0CECE82E090E0F201918335
:10325000808385EF9FEFC6CE8F929F92AF92BF92F1
:10326000CF92DF92EF92FF920F931F93CF93DF9352
:10327000EA018C01060F171FF8018181833098F055
:1032800082E090E09983888386EF9FEFDF91CF9172
:103290001F910F91FF90EF90DF90CF90BF90AF9074
:1032A0009F908F9008958091EA039091EB03892B72
:1032B00061F081E090E02091EC033091ED03232B4D
:1032C00011F490E080E0892B39F482E090E099835A
:1032D00088838EEF9FEFDACF42DE882309F4E0C0C7
:1032E000F8018181813009F496C0E8F0823099F4C8
:1032F0002091EC033091ED03E091EA03F091EB03B0
:1033000090E080E041E050E02817390709F0BEC0A6
:1033100034DA811117C0789481E090E09983888332
:1033200090E080E0B3CF2091EC033091ED03E09189
:10333000EA03F091EB0390E080E041E050E02817D1
:10334000390741F481E090E00E943A1080E40E9445
:103350004810E1CF63817481672B11F0548343835C
:1033600001967396ECCFE091EA03F091EB03E00F46
:10337000F11F2381348122303105D9F4218932892A
:103380002F3F3F4FB1F42581368140913B02509150
:103390003C022417350761F5AF014F5E5F4F609126
:1033A0003F027091400280913D0290913E020E9446
:1033B000B923EFEFCE1ADE0AEE0AFE0A0D5E1F4FAA
:1033C0004091EC035091ED0370E060E0C416D50627
:1033D000E606F70644F5009731F27894892B09F454
:1033E0009BCF82E090E0998388838DEF9FEF4ECF53
:1033F000C114D104E104F104E1F623303105C8F62B
:10340000CF015BDDE091EA03F091EB03E00FF11FE8
:10341000108A1786CECF10E000E090E080E0C12C4B
:10342000D12C7601CDCF0097C1F610E000E0812CC1
:10343000912C540183E0E82EF12C1AC0E091EA03AC
:10344000F091EB03E00FF11F83819481029749F41F
:10345000F482E38282E090E00E943A1080E40E94CD
:103460004210FFEF8F1A9F0AAF0ABF0A0D5E1F4F6F
:103470008091EC039091ED03B0E0A0E088169906EE
:10348000AA06BB06DCF290E080E0A7CF63817481DE
:103490006230710511F4548343830196739634CFDF
:1034A00082E090E09983888385EF9FEFEFCE0097CD
:1034B000B9F48FEFFB0180832091450230914602E1
:1034C00043E1429FC001439F900D1124E091EA0324
:1034D000F091EB03E80FF91F8285FB0181830895CA
:1034E0000C94F10F88E090E0FA019183808390E0E2
:1034F00080E008951092E9031092E803EAEEF3E009
:1035000086E0DF011D928A95E9F780EE95E19093C0
:10351000E7038093E60308958091E6039091E70323
:1035200008952F923F924F925F926F927F928F9267
:103530009F92AF92BF92CF92DF92EF92FF920F9342
:103540001F93CF93DF93CDB7DEB760970FB6F89494
:10355000DEBF0FBECDBFF894E091E803F091E90320
:103560003196F093E903E093E8037894A091EA039D
:10357000B091EB03BA83A983109709F4FAC1E091E3
:10358000EC03F091ED03EF2B09F4F3C128874B878F
:103590005C876D877E879A878987B88BAF87312C48
:1035A000212CF12C512C412C8091EC039091ED03B6
:1035B0002816390610F4FF2029F1F8948091E803C9
:1035C0009091E90301979093E9038093E80378943D
:1035D000C20160960FB6F894DEBF0FBECDBFDF917B
:1035E000CF911F910F91FF90EF90DF90CF90BF9000
:1035F000AF909F908F907F906F905F904F903F9093
:103600002F900895B10190E080E088D4682EEF8576
:10361000F889878181FD3DC0838194810397C9F535
:10362000258136813C832B8389859A852817390724
:1036300081F5C101ECD8782E8823A9F1AF85B8892E
:103640001F968D919C915097019621E01D964D916A
:103650005C918417950709F020E02F83B12CA12CF1
:10366000EF85F88982818A151B0419F014F0FF2078
:10367000E9F0F885FF2309F46CC1AF85B88950964D
:103680001C921E921F97662021F0B10190E080E00D
:1036900047D4FFEF2F1A3F0A2F8538892D5E3F4F01
:1036A000388B2F8781CFB1E0BF83D8CFC0D49E8322
:1036B0008D83E885EE23E9F0772009F43CC1AF85DE
:1036C000B8891F968D919C91892B79F0BBE0BA9DAA
:1036D000C001BB9D900D1124AF85B889ED91FC917F
:1036E000E80FF91F85819681F9D6BFEFAB1ABB0AA7
:1036F000B7CF81E0772039F0EF85F88927853089C9
:10370000232B09F080E0F82EE12CA114B10439F448
:10371000AF85B8891796EC90E4FAEE24E0F8BBE0A8
:10372000BA9D6001BB9DD00C1124882309F424C1EB
:10373000AF85B889ED91FC911197EC0DFD1D43818A
:1037400054811D962D913C91429FC001439F900D45
:10375000529F900D1124E1105DC0019690878783E0
:1037600061E070E0878190852DD5EF85F88921890A
:103770003289008111810C0D1D1D2F3F320709F484
:103780004BC0BC01C9010E94FA23D80116969C9334
:103790008E931597AF85B889ED91FC911197EC0D3B
:1037A000FD1D058116810115110509F4CDC0ED81BE
:1037B000FE810E0F1F1F1A968C918A0DD8018C93D3
:1037C000E1102FC00F5F1F4FAF85B889ED91FC91BD
:1037D000EC0DFD1D12870187AF85B889ED91FC9135
:1037E000EC0DFD1D85819681892B09F4A4C0809183
:1037F0003B0290913C022B813C812817390709F448
:1038000065C0772011F001851285912C812C1A82D8
:1038100019824AC00596A2CF28D6F80196838583DF
:10382000B9CF8B859C85AD85BE85F8018183928358
:10383000A383B4830B5F1F4FC7CFE080F180E80CF8
:10384000F91CD70113966D917C9114978C918F3F41
:1038500009F473C0E1E0F0E002C0EE0FFF1F8A95AB
:10386000E2F7CF01092E000CAA0BBB0BFB01408134
:1038700051816281738184239523A623B72321E09C
:10388000892B8A2B8B2B09F420E0D8012C93D701AC
:1038900011968C91080F111DE981FA813196FA83F6
:1038A000E983F7E08F0E911CAF85B889ED91FC910B
:1038B000EC0DFD1D828129813A818217130611F0DA
:1038C0000CF0BBCF772011F0128701873F813323A3
:1038D00091F1AF85B889ED91FC91EC0DFD1D61E092
:1038E00070E0878190856ED4AF85B889ED91FC91A9
:1038F000EC0DFD1DE780F08445815681E1E0F0E0AC
:10390000662011F0F0E0E0E00D811E819C01B10124
:10391000882799278E1B9F0B8DD32C01892B59F05B
:10392000EF85F88980819181C80ED91ED601159640
:103930008D919C91D3D5F12CD8CEF701418150E0E7
:10394000C8010E947C34A3CF86EF482E55245A9498
:10395000CCCEEF85F889878590890196908B8787F3
:10396000258536858217930709F08DCE108A178634
:103970008ACE512C412C21CE10E000E02DCF2F9289
:103980003F924F925F926F927F928F929F92AF92EF
:10399000BF92CF92DF92EF92FF920F931F93CF933C
:1039A000DF938091EA039091EB0310E000E0892B14
:1039B000A9F0D5DA0AEF1FEF882381F02090EC03FD
:1039C0003090ED03C091EA03D091EB03D12CC12CD0
:1039D00010E000E02C143D04A9F47894C801DF91B4
:1039E000CF911F910F91FF90EF90DF90CF90BF90FC
:1039F000AF909F908F907F906F905F904F903F908F
:103A00002F900895C6010E940714882309F18B8125
:103A10009C810397E9F48F859889892BC9F0B601B9
:103A200090E080E07BD221E030E0882311F030E0AC
:103A300020E044245524421A530AB12CA12C912C85
:103A4000812C8A818815190409F038F4188A1F8698
:103A50004FEFC41AD40A6396BDCFE881F981EA0D0D
:103A6000FB1D85819681892BA1F161E070E0878142
:103A70009085A8D33C01DBD28C01E881F981EA0D65
:103A8000FB1D8185928525813681200F311FAC0178
:103A9000421B530B9A0147815085421B530B70E028
:103AA00060E00E948534E881F981EA0DFB1DE78022
:103AB000F084458156819301B601C201BBD28C01CD
:103AC000892B39F0E881F981EA0DFB1D858196810A
:103AD00005D55FEF851A950A8BE0A80EB11CB1CF12
:103AE0003ECA789408952F923F924F925F926F92C0
:103AF0007F929F92AF92BF92CF92DF92EF92FF920E
:103B00000F931F93CF93DF9300D000D0CDB7DEB7D4
:103B10000091EA031091EB03992493940115110588
:103B200009F43EC0A090EC03B090ED0318DA982E93
:103B30008823B1F11092EB031092EA031092ED0387
:103B40001092EC031092EE031092EF038FEF9FEFB1
:103B5000DC018093450290934602A0934702B09304
:103B6000480278947FD31E830D83C12CD12C76011B
:103B7000C501B0E0A0E089839A83AB83BC83222493
:103B80002A94322C89819A81AB81BC81C816D906CE
:103B9000EA06FB06F4F0C801A1D480E40E944810B4
:103BA000892D26960FB6F894DEBF0FBECDBFDF91EC
:103BB000CF911F910F91FF90EF90DF90CF90BF902A
:103BC000AF909F907F906F905F904F903F902F901D
:103BD0000895AD81BE8115968D919C911697209187
:103BE0003B0230913C0282179307D1F451968D919C
:103BF0009C91EED5ED81FE8180819181B12CA12C2B
:103C0000412C512C3201892B89F5BFEFCB1ADB0AED
:103C1000EB0AFB0AED81FE817396FE83ED83B2CF42
:103C2000C114D104E104F10429F7039718F7ED81D9
:103C3000FE81818992898F3F980709F029D5AD814E
:103C4000BE8152963C922E925197D4CF8A0D9B1DE5
:103C5000DC018D919C91009709F040D4BFEF4B1A85
:103C60005B0A6B0A7B0AEBE0AE0EB11CAD81BE8134
:103C70008D919C91119712964C9150E070E060E00C
:103C800044165506660677060CF328D4BECFCF93AC
:103C9000DF93EA0128DF811109C082E090E0998377
:103CA000888385EF9FEFDF91CF91089581E090E0C9
:103CB0000E943A1081E090E09983888390E080E050
:103CC000F2CF11DF1092E7031092E603089542E06D
:103CD00050E060EE72E00C945810FF920F931F9327
:103CE000CF93DF938A01EC01C60FD71FF980B9D2B9
:103CF0000897F816190671F068F082E090E0F80174
:103D0000918380838EEF9FEFDF91CF911F910F9171
:103D1000FF9008956C817D818E819F814B810E94EF
:103D2000ED12811108C082E090E0F8019183808358
:103D300084EF9FEFE9CFF9800E94E8124F2D50E009
:103D4000BE01685F7F4F0E947C3489810E945713B7
:103D500081E090E0F8019183808390E080E0D4CF0F
:103D6000DF92EF92FF920F931F93CF93DF938A011D
:103D7000EC01C60FD71F0E94E8127C01D98071D2D6
:103D8000DD2059F0029721E030E0D816190619F02D
:103D900010F030E020E0232B79F482E090E0F8018D
:103DA000918380838EEF9FEFDF91CF911F910F91D1
:103DB000FF90EF90DF900895EF2841F482E090E0CB
:103DC000F8019183808384EF9FEFEECFF9800E940A
:103DD000E8124F2D50E0BE016E5F7F4F0E947C3491
:103DE00089810E94571381E090E0F80191838083DC
:103DF00090E080E0D9CF87E69EE19093F103809335
:103E0000F00308958091F0039091F10308950895CF
:103E1000FC0111821082938382830895DB011D923D
:103E20001C92DC011296ED91FC91139771836083D3
:103E300013967C936E9312970895FC018081918173
:103E4000DB018D939C93A081B181109741F08D91FE
:103E50009C9191838083892B11F4F383E2830895ED
:103E6000FC0180819181DB018D939C93892B11F45E
:103E700073836283718360830895FC0111821082D1
:103E8000938382830895CF93DF931F921F92CDB7C0
:103E9000DEB71A821982F894BE016F5F7F4F87EFF9
:103EA00093E0CBDF89819A81009709F017D389814C
:103EB0009A81892B89F7BE016F5F7F4F8BEF93E06B
:103EC000BCDF89819A81009709F008D389819A81A2
:103ED000892B89F778940F900F90DF91CF910895F7
:103EE000CF93DF931F921F92CDB7DEB71A8219824C
:103EF000F894BE016F5F7F4F83EF93E09EDF89816F
:103F00009A81009709F0EAD289819A81892B89F7F1
:103F100078940F900F90DF91CF91089581E00895EC
:103F200090E080E00895EF92FF920F931F93CF935C
:103F3000DF931F921F92CDB7DEB71A82198280914C
:103F4000F20307EF1FEF8823A1F1F894BE016F5F22
:103F50007F4F8BEF93E071DF789489819A81EE2413
:103F6000E394F12C892B51F4F894BE016F5F7F4FDD
:103F700087EF93E062DF7894F12CE12C89819A81BC
:103F80000EEF1FEF0097A9F0FC014281538164E01E
:103F900070E076D68C01892B61F0F89469817A8182
:103FA000C701880F991F880F991F89509C4F58DFB0
:103FB0007894C8010F900F90DF91CF911F910F91CE
:103FC000FF90EF9008950F931F93CF93DF9300D04E
:103FD0001F92CDB7DEB71C821B821A821982809194
:103FE000F20307EF1FEF8823C1F0AE014D5F5F4F73
:103FF00064E070E0CE010196B6D68C01892B69F49D
:10400000E981FA818B819C8193838283F894698111
:104010007A8183EF93E002DF7894C8010F900F90CC
:104020000F900F90DF91CF911F910F910895BBD703
:10403000049608958F929F92AF92BF92CF92DF9293
:10404000EF92FF920F931F93CF93DF931F921F92D4
:10405000CDB7DEB71A821982BC016F5F7F4F633024
:10406000710598F0AA24AA94BA2CC5010F900F905C
:10407000DF91CF911F910F91FF90EF90DF90CF9044
:10408000BF90AF909F908F9008954115510551F3C7
:10409000480159018A016C01CADF8815990511F799
:1040A000E114F104F9F28E0D9F1DA816B906D0F2A5
:1040B0008091F2038823F1F0F894B50164507109FE
:1040C0009701AE014F5F5F4FC8010496E1D65C01D6
:1040D000892B71F489819A81F80193838283C601C7
:1040E000880F991F880F991FB80189509C4F96DE41
:1040F0007894BBCF87EFA82EBB24BA94B6CFAF92EB
:10410000BF92CF92DF92EF92FF920F931F93CF93C4
:10411000DF931F921F92CDB7DEB71A821982892BC7
:1041200009F047C06115710509F443C041155105F7
:1041300009F43FC02115310509F43BC001151105F3
:10414000C1F18091F2038823B9F179016A015B0121
:10415000F894BE016F5F7F4F83EF93E06EDE78943B
:1041600089819A81009759F1DC0112966D917C91B9
:10417000A8010496A6D68C01E981FA81D501ED93B8
:10418000FC93828193810496F601918380834FDFB3
:10419000D7018D939C93C8010F900F90DF91CF9121
:1041A0001F910F91FF90EF90DF90CF90BF90AF9055
:1041B00008950FEF1FEFEFCF07EF1FEFECCF0EEFDC
:1041C0001FEFE9CFCF93DF93EC01672B71F4F4D6A7
:1041D0008C179D0760F0E7D62496C80FD91FE6D646
:1041E0008C0F9D1FDF91CF910895E3D6F1CF90E022
:1041F00080E0F8CF0F931F93CF93DF932091F203CA
:1042000021112BC08B01EC0187EF93E001DE8BEFD6
:1042100093E0FEDD83EF93E0FBDD97D00097C1F4E0
:10422000CBD670E060E0CEDF49E452E062E070E0BF
:1042300081D1009769F48091490290914A02CED6CB
:10424000B801CE0103D5009719F421E02093F203C1
:10425000DF91CF911F910F91089584EF9FEFF8CFD9
:10426000A8C6AAC6CF93DF93AAD6EC01892B11F476
:104270000ADE36DECE01DF91CF910895CF93DF9332
:104280009ED6EC01892B09F4FEDDCE01DF91CF91A2
:1042900008958091490290914A020895CF93DF9347
:1042A0008091F203D0E0C0E08823D1F09CD6EC01ED
:1042B000892BB1F4E8DD14DE8091490290914A0225
:1042C000E7D1E8D2EC01892B59F487EF93E0D5DDF3
:1042D0008BEF93E0D2DD83EF93E0CFDD1092F2031A
:1042E000CE01DF91CF910895EF92FF920F931F932C
:1042F000CF93DF93EC017A018B010F5F1F4F0E9D6F
:10430000A0010F9D500D1E9D500D112470E060E026
:104310000E94853490E080E0F0E0E0E02FEFE816C6
:10432000F90639F4DF91CF911F910F91FF90EF9033
:1043300008951A8219822883309711F0D283C1839D
:104340000196FE01C00FD11FEACFCF92DF92EF920C
:10435000FF920F931F93CF93DF9306E115E00C7F3D
:1043600043E050E06BE472E081E592E01CD48BE422
:10437000E82E82E0F82E91E5C92E92E0D92EC5E90B
:10438000D5E0D7014D915D917D01F601619171916B
:104390006F01198308835D834C835B834A837F832A
:1043A0006E839B012F5F3F4F249FC001259F900D7F
:1043B000349F900D1124998788870115110511F0FC
:1043C000C80192DF88859985080F191F2A96F1E5A3
:1043D000EF16F2E0FF06A9F6E1E0F4E082E191E0F9
:1043E000DF019C011D9221503040E1F71092000442
:1043F0001092FF031092B4051092B3051092B80505
:104400001092B7051092B6051092B5051092BA0534
:104410001092B9051092BC051092BB051092BE0512
:104420001092BD051092C2051092C1051092C005F0
:104430001092BF051092C4051092C3051092C605D4
:104440001092C50510929205109291051092940554
:104450001092930590E080E0DF91CF911F910F9132
:10446000FF90EF90DF90CF9008950097F1F0F894CF
:10447000A1E5B2E0E5E9F5E030E020E04D915D91A5
:1044800048175907A8F0428153814115510581F021
:104490008AE0829FF001839FF00D1124EB56FA4FC2
:1044A00080819181009759F4789490E080E008959C
:1044B0002F5F3F4F3A962330310501F7F5CFDC01EE
:1044C00011966D917C9171836083415051095383A2
:1044D0004283FC012193CF0178940895009749F11C
:1044E000DC018E91853041F4E0919305F0919405C3
:1044F0003097F9F0CD0119948530D8F4282F30E0A9
:10450000F8948FEF8C938AE0829FF001839FF00DE7
:104510001124EB56FA4F8081918112969C938E93D1
:104520001197B183A08382819381019693838283C3
:1045300078940895CF92DF92EF92FF920F931F939A
:10454000CF93DF939C0184E094E08C7F411551056B
:1045500009F49BC02115310509F497C06115710557
:1045600009F493C07A01AB01B9016D5F7F4F6C7F95
:104570009B012F5F3F4F249F8001259F100D349F8B
:10458000100D1124F8942091B3053091B405232B1C
:1045900059F42091BB053091BC052115310569F115
:1045A0002017310708F058C02091BD053091BE0595
:1045B000232B91F42091BB053091BC05820F931FF2
:1045C0002091C5053091C6052115310509F441C07A
:1045D0002017310708F056C07894CFEFDFEF86EF51
:1045E0009FEFF701D183C083DF91CF911F910F918E
:1045F000FF90EF90DF90CF900895C3E0D0E0C0909F
:10460000FF03D09000042FE031E02C193D09201762
:10461000310710F32AE02C9FF0012D9FF00D11249B
:10462000EB56FA4F918380835583448353834283AF
:104630007783668311870087009709F055DE0C0D9C
:104640001D1D109300040093FF03789490E080E018
:10465000C8CFC4E0D0E0D3CFC3E0D0E02AE02C9FA5
:10466000F0012D9FF00D1124EB56FA4F91838083BA
:10467000558344835383428377836683009729F36A
:1046800033DEE3CFC4E0D0E0E9CF8FEF9FEFACCFD4
:104690009C010397029708F069C0F89484E09AE0BF
:1046A000482F50E0241735070CF44DC091E08AE004
:1046B000829FF001839FF00D1124EB56FA4F118277
:1046C0001082158214821382128217821682992315
:1046D000B1F18091B3059091B405892BA9F4209193
:1046E000BB053091BC052115310571F08091FF03A8
:1046F00090910004821B930B909300048093FF031E
:104700001092BC051092BB058091BD059091BE052D
:10471000892BA9F42091C5053091C60521153105D5
:1047200071F08091FF0390910004821B930B909392
:1047300000048093FF031092C6051092C50578947B
:1047400090E080E00895949FF001959FF00D112472
:10475000EB56FA4F40815181452B31F4408551850C
:10476000452B11F481509CCF90E0A1CF8FEF9FEFAC
:1047700008954115510549F1009739F16115710509
:1047800021F1F8942091910530919205232BB9F4F1
:104790002091930530919405232B89F490939205F1
:1047A000809391057093940560939305789425E028
:1047B00030E090E080E0FA0131832083089578941E
:1047C0002FEF3FEF86EF9FEFF6CF8FEF9FEF08952C
:1047D000059769F4F8941092920510929105109241
:1047E000940510929305789490E080E008958FEFFF
:1047F0009FEF08956115710519F4F0E0E0E011C034
:104800008530910581F4E0919105F0919205309702
:10481000A1F3CB0101961995009779F3FC0185E08E
:104820008193CF0108959C01235031092230310535
:1048300020F72AE0289FD001299FB00D1124AB5604
:10484000BA4F2D913C911197232BB9F216962D91C9
:104850003C9117972617370780F2F89412962D91FE
:104860003C9113972115310529F0ED91FC91119799
:10487000309711F47894C1CF4181528111965C93A5
:104880004E932150310913963C932E9312978193A6
:104890007894C7CFE3E1F5E08EE7DF011D928A95BA
:1048A000E9F7E1E0F4E082E191E0DF019C011D9293
:1048B00021503040E1F7109200041092FF03E5E927
:1048C000F5E082E3DF011D928A95E9F7E1E9F5E081
:1048D00084E0DF011D928A95E9F790E080E0089579
:1048E000CF93DF93C0915702D0915802CF3FDC079E
:1048F00059F423D4909358028093570297FF09C02C
:10490000D0935802C093570284EF9FEFDF91CF916D
:10491000089590E080E0FACF8230910528F48093EA
:10492000C70590E080E008958FEF9FEF08954F92C4
:104930005F926F927F92AF92BF92CF92DF92EF928F
:10494000FF920F931F93CF93DF931F921F92CDB7C8
:10495000DEB71A821982009709F479C061157105D2
:1049600009F475C0209157023091580207EF1FEFEC
:104970002F3F3F4F09F445C06B015C01412C512C86
:104980003201F12CE12C10E000E09E012F5F3F4F3F
:10499000A6014E195F09B5016E0D7F1D809157026A
:1049A000909158022BD4892B09F04BC089819A81B0
:1049B000009741F4E114F10429F42091C705222362
:1049C00009F442C0E80EF91EEC14FD04D0F480E8AE
:1049D000481684E858068EE16806710420F560E008
:1049E00070E0CB010E944E2E2AE0420E511C611C49
:1049F000711C0A3F4FEF140721F0043F8FEF180797
:104A0000A1F4C8010F900F90DF91CF911F910F91EA
:104A1000FF90EF90DF90CF90BF90AF907F906F901E
:104A20005F904F90089501EF1FEF81E090E0013F0C
:104A30002FEF120711F090E080E0892B09F4A5CF49
:104A4000E0CF04EF1FEFDDCF0AEF1FEFDACF0FEF5C
:104A50001FEFD7CF4F925F926F927F92AF92BF922C
:104A6000CF92DF92EF92FF920F931F93CF93DF933A
:104A70001F921F92CDB7DEB71A821982009709F4F0
:104A800079C06115710509F475C020915702309104
:104A9000580207EF1FEF2F3F3F4F09F445C06B014E
:104AA0005C01412C512C3201F12CE12C10E000E092
:104AB0009E012F5F3F4FA6014E195F09B5016E0D94
:104AC0007F1D80915702909158024ED3892B09F097
:104AD0004BC089819A81009741F4E114F10429F4D3
:104AE0002091C705222309F442C0E80EF91EEC14F8
:104AF000FD04D0F480E8481686E9580688E968067F
:104B0000710420F560E070E0CB010E944E2E2AE097
:104B1000420E511C611C711C0E3F4FEF140721F017
:104B2000043F8FEF1807A1F4C8010F900F90DF9199
:104B3000CF911F910F91FF90EF90DF90CF90BF909A
:104B4000AF907F906F905F904F90089502EF1FEFAE
:104B500081E090E0023F2FEF120711F090E080E03B
:104B6000892B09F4A5CFE0CF04EF1FEFDDCF0EEFC7
:104B70001FEFDACF0FEF1FEFD7CF80915702909141
:104B800058028F3F980749F0D0D2892B49F48FEF14
:104B90009FEF909358028093570290E080E0089531
:104BA00084EF9FEF0895CF92DF92EF92FF920F93E1
:104BB0001F93CF93DF9321E04115510509F020E0C9
:104BC0004150510921112CC0DC01FB01D12CC12C19
:104BD00021E022C03FEFC31AD30A7D010D911D9140
:104BE000E701EA80FB80E016F106A8F4208131811C
:104BF000E280F380F182E08233832283ED90FC90A7
:104C000011979D0122503109E901F982E88211963C
:104C10001C930E9320E03296C416D506D8F2D2CF5C
:104C2000DF91CF911F910F91FF90EF90DF90CF9088
:104C30000895FC01680F791F90E080E0E617F70700
:104C400009F408952191820F911DF8CF2091C80594
:104C5000211113C045DE009791F41092CE051092F9
:104C6000CD051092CC051092CB051092CA0510927A
:104C7000C90521E02093C805089584EF9FEF0895AA
:104C8000AF92BF92CF92DF92EF92FF920F931F935A
:104C9000CF93DF93009709F460C04630510508F4C4
:104CA0005CC02091C805C7EFDFEF222309F449C09B
:104CB0008C01060F171FF801C080D180C114D104E8
:104CC00009F44EC096012A5F3F4F4217530708F47C
:104CD00047C07C018091CD059091CE05938382835E
:104CE000B6016C5F7F4F5801A60EB71EC801A1DF49
:104CF000F5019183808364E070E0C80118DEEC0167
:104D0000892BF9F481E090E007DEB601C801049632
:104D10000EDEEC01892B91F462E070E0C50107DE44
:104D2000EC01892B59F4C701D9DB8091CD05909115
:104D3000CE0501969093CE058093CD0590E080E05E
:104D4000EBDDCE01DF91CF911F910F91FF90EF909E
:104D5000DF90CF90BF90AF900895CFEFDFEFF1CF0E
:104D6000C9EFDFEFEECF6F927F928F929F92AF925B
:104D7000BF92CF92DF92EF92FF920F931F93CF9348
:104D8000DF9300D01F92CDB7DEB7009709F47AC049
:104D90004115510509F476C02091C80507EF1FEFB2
:104DA000222309F44DC03A017B015C0164E070E00C
:104DB000CE0101964FDE8C01892B09F041C009819B
:104DC0001A810115110509F45AC0480186E0880EC0
:104DD000911CB701680D791D8091590290915A027A
:104DE00009DD6C01009709F450C0A70170E060E094
:104DF0000E94853489819A81AB81BC81EC0CFD1CB9
:104E0000F70181939193A193B1937F0181E090E0A9
:104E100083DDB801C7011EDE892B31F562E070E049
:104E2000C701800F911F16DE8C01892BE9F490E0F9
:104E300080E072DDF501D182C082F301918280822F
:104E4000C8010F900F900F900F90DF91CF911F919D
:104E50000F91FF90EF90DF90CF90BF90AF909F9019
:104E60008F907F906F90089590E080E055DDF50180
:104E700011821082F30111821082C6012FDB09EF2B
:104E80001FEFDECF0FEF1FEFDBCF06EF1FEFD8CF07
:104E90000097A1F04115510589F02115310571F0F8
:104EA000F90136966E177F0748F0DC012D933C938D
:104EB000DA01ED93FC9390E080E008958FEF9FEF8F
:104EC0000895AF92BF92CF92DF92EF92FF920F932D
:104ED0001F93CF93DF93009709F45FC041155105ED
:104EE00009F45BC06530710508F457C02091C8050E
:104EF000C7EFDFEF222391F1DC01CD90DC90119719
:104F00001296ED91FC9196012A5F3F4FC9EFDFEFBA
:104F10002617370719F5C091C905D091CA05209702
:104F200049F521E030E03093CA052093C9057A01A4
:104F30008C01F093CC05E093CB055601B4E0AB0EA9
:104F4000B11CB50176DE0A0D1B1DF80120813181EF
:104F50008217930729F5D701CD92DC92CE01DF911C
:104F6000CF911F910F91FF90EF90DF90CF90BF9066
:104F7000AF9008952091CB053091CC052F5F3F4F26
:104F8000CCEFDFEFE217F30790F2CBEFDFEF2E1756
:104F90003F0768F2D0E0C0E0CACFCFEFDFEFDECF4F
:104FA000C3EFDFEFDBCF84E090E0089582E090E094
:104FB00008958CEF9FEF089580E290E0089510929D
:104FC000CE051092CD051092CC051092CB05109213
:104FD000CA051092C90590E080E0089590935A02A6
:104FE0008093590208958091C805882391F0C5DD0A
:104FF000009789F41092CE051092CD051092CC0541
:105000001092CB051092CA051092C9051092C805DE
:10501000089590E080E00895009749F061157105CA
:1050200031F0FC0111821082FB011182108208957F
:10503000F3CF26E030E040E855E260E070E090E039
:1050400080E000C08130910571F01CF4892B39F0AB
:1050500008958230910551F0039759F008958FED2E
:1050600095E00C947B318CE796E0FBCF89E197E0EB
:10507000F8CF86EB97E0F5CF1F920F920FB60F9205
:1050800011240BB60F922F933F934F935F936F931F
:105090007F938F939F93AF93BF93EF93FF9386E09C
:1050A0009FEF9093250180932401BCD0FF91EF9155
:1050B000BF91AF919F918F917F916F915F914F9130
:1050C0003F912F910F900BBE0F900FBE0F901F902E
:1050D000189586E09FEF9093250180932401A3E724
:1050E000B0E08C918E7F8C93E0E2F1E080818C7F48
:1050F0008083E1E2F1E08081877E8083808183602C
:10510000808380818B7F80838C9181608C930895D4
:10511000E3E7F0E0808190819E7F90838170089525
:1051200081E008951092CF05089568EE73E080E065
:1051300090E0B4D590E080E0089526E030E040E0D3
:1051400050E16EE070E090E080E07CDF8FED95E074
:105150000E94B130892B29F08FED95E00E94CB3071
:10516000F5CF90E080E00895CF92DF92EF92FF922A
:105170000F931F93CF93DF936B017A01E90119829B
:1051800018828FED95E0EDD7892B69F18601CC244B
:10519000C39482E0D82E8091CF05811110C08FED8D
:1051A00095E0F9D70297B9F7C092CF05F801D192EF
:1051B0008F0188819981019699838883ECCF8881BA
:1051C00099818E159F0578F48FED95E0E4D78F3F98
:1051D0009807A9F3F80181938F018881998101963D
:1051E00099838883ECCF90E080E0DF91CF911F918D
:1051F0000F91FF90EF90DF90CF9008950F931F9342
:10520000CF93DF93EA0189018FED95E00E940B3483
:10521000F801D183C08390E080E0DF91CF911F91AE
:105220000F910895CF92DF92EF92FF920F931F9309
:10523000CF93DF931F921F92CDB7DEB78091D20537
:1052400091E0980F9093D205882399F021E030E007
:105250003093D5052093D4058093D2050F900F90FD
:10526000DF91CF911F910F91FF90EF90DF90CF9042
:105270000895CE0101960E94E405789400916C0295
:1052800010916D02F801C28CD38CE48CF58C0E94D5
:10529000EC05B701A60190E080E00E941405F894A7
:1052A0008091D20581508093D2058A81882389F02C
:1052B0008091D10591E0980F9093D105882349F012
:1052C00021E030E03093D5052093D4058093D105BB
:1052D000C5CF8091D105882309F4C0CF8091D30533
:1052E0008111BCCF81E08093D3057894F80122A18D
:1052F00033A144A155A1A4E6B0E00E9463346B0140
:105300007C010E945006B701A60181E090E00E9456
:105310001405F8948091D10581508093D105809136
:10532000D30581508093D30599CF0F931F93CF93CB
:10533000DF931092A1081092A008E6D47ADEC09103
:105340006C02D0916D02198218826FEF7FEFCB0152
:105350000E94970570E060E090E080E00E941804F1
:10536000009709F03AC00E941F08F8947894BE0193
:10537000695C7F4F8A819B810E941B04892B59F4B1
:105380006FEF7FEFCB010E94AA040E949105882352
:1053900011F081E08BAFF8949CDE0E949405882385
:1053A00011F080E008C00E9491058111FACF81E0E0
:1053B0009BAD9111F6CF8093A00878940E94351090
:1053C0008C0178948091A00881110CC00E9416096C
:1053D0000E947605F89490E080E0DF91CF911F91D4
:1053E0000F9108950E9474050E9494058823D9F0B6
:1053F00081E08093A1089091A10881E0911180E063
:105400008093A0088091A108811182DE01301105EE
:1054100029F40E943510892B09F484DE0E9435108E
:105420008C017EDECFCF0E9491058111E1CF81E01A
:105430009BAD9111DECF80E0DCCFD2D008F481E0CB
:10544000089504D06894B11163C108952FD188F0F4
:105450009F5790F0B92F9927B751A0F0D1F0660F60
:10546000771F881F991F1AF0BA95C9F712C0B1307B
:1054700081F04DD1B1E008954AC1672F782F882778
:10548000B85F39F0B93FCCF3869577956795B395BA
:10549000D9F73EF490958095709561957F4F8F4F29
:1054A0009F4F0895E89409C097FB3EF4909580952E
:1054B000709561957F4F8F4F9F4F9923A9F0F92FDA
:1054C00096E9BB279395F695879577956795B79558
:1054D000F111F8CFFAF4BB0F11F460FF1BC06F5F3E
:1054E0007F4F8F4F9F4F16C0882311F096E911C050
:1054F000772321F09EE8872F762F05C0662371F071
:1055000096E8862F70E060E02AF09A95660F771F84
:10551000881FDAF7880F9695879597F90895E0D058
:1055200080F09F3740F491110EF0F2C060E070E01F
:1055300080E89FEB089526F41B16611D711D811DE7
:1055400073C08DC09DD018F011F0A1D038F495C073
:10555000DFC0E92FA3D0B0F35523C9F3E7FB6217EF
:10556000730784079507A8F199F3E92FFF2788238C
:105570002AF03197660F771F881FDAF7952F552786
:10558000442332F091505040220F331F441FD2F772
:10559000BB27E91BF50B621B730B840BB109C1F22E
:1055A00022F4620F731F841FB11D31972AF0660F1A
:1055B000771F881FBB1FEFCF915050405AF041F02A
:1055C000882332F0660F771F881F91505040C1F733
:1055D000939545C08695779567959F5FD9F7F8CFE6
:1055E000990F0008550FAA0BE0E8FEEF16161706F4
:1055F000E807F907C0F012161306E407F50798F05C
:10560000621B730B840B950B39F40A2661F0232B74
:10561000242B252B21F408950A2609F4A140A695F0
:105620008FEF811D811D0895882371F4772321F068
:105630009850872B762F07C0662311F499270DC049
:105640009051862B70E060E02AF09A95660F771FE4
:10565000881FDAF7880F9695879597F908959F3FE9
:1056600031F0915020F4879577956795B795880F1D
:10567000911D9695879597F908959FEF80EC089571
:1056800000240A9416161706180609060895002421
:105690000A941216130614060506089557FD90582D
:1056A000440F551F59F05F3F71F04795880F97FBE6
:1056B000991F61F09F3F79F08795089512161306A0
:1056C0001406551FF2CF4695F1DF08C016161706CF
:1056D0001806991FF1CF8695710561050894089504
:1056E000E5DFA0F0BEE7B91788F4BB279F3860F468
:1056F0001616B11D672F782F8827985FF7CF8695EC
:1057000077956795B11D93959639C8F30895E894F8
:10571000BB2766277727CB0197F9089561DF08F447
:105720008FEF08950BD067C0ABDF28F0B0DF18F023
:10573000952309F05AC0A1CF1124EACFAFDFA0F31F
:10574000959FD1F3950F50E0551F629FF001729F16
:10575000BB27F00DB11D639FAA27F00DB11DAA1F35
:10576000649F6627B00DA11D661F829F2227B00D82
:10577000A11D621F739FB00DA11D621F839FA00D0D
:10578000611D221F749F3327A00D611D231F849F5D
:10579000600D211D822F762F6A2F11249F575040B4
:1057A0008AF0E1F088234AF0EE0FFF1FBB1F661F4F
:1057B000771F881F91505040A9F79E3F510570F008
:1057C00014C0A6CF5F3FECF3983EDCF38695779547
:1057D0006795B795F795E7959F5FC1F7FE2B880F03
:1057E000911D9695879597F9089597F99F6780E899
:1057F00070E060E00895092E0394000C11F48823F2
:1058000052F0BB0F40F4BF2B11F460FF04C06F5F78
:105810007F4F8F4F9F4F08950895883008F076C0CE
:10582000E82FF0E0EE0FFF1FE55AFD4F7183608314
:105830008150873008F03DC0E82FF0E08827EC5D0C
:10584000F34D8F4F0C945B34612C2B2C332C3F2C5D
:105850004C2C6D2C7A2C809169008C7F482B4093C6
:105860006900E89A089580916900837F440F551F6D
:10587000440F551F482B40936900E99A0895809181
:1058800069008F7C74E0440F551F7A95E1F7482B2F
:1058900040936900EA9A0895809169008F7366E0E9
:1058A000440F551F6A95E1F7482B40936900EB9A26
:1058B000089580916A008C7F482B40936A00EC9A8F
:1058C000089580916A00837F440F551F440F551F30
:1058D000482B40936A00ED9A089580916A008F7C6E
:1058E00024E0440F551F2A95E1F7482B40936A00A6
:1058F000EE9A089580916A008F7396E0440F551FC9
:105900009A95E1F7482B40936A00EF9A08951F9209
:105910000F920FB60F9211240BB60F922F933F9355
:105920004F935F936F937F938F939F93AF93BF93A7
:10593000EF93FF93E0915F02F09160021995FF9160
:10594000EF91BF91AF919F918F917F916F915F91F7
:105950004F913F912F910F900BBE0F900FBE0F9064
:105960001F9018951F920F920FB60F9211240BB62D
:105970000F922F933F934F935F936F937F938F93E8
:105980009F93AF93BF93EF93FF93E0916102F091E8
:1059900062021995FF91EF91BF91AF919F918F9105
:1059A0007F916F915F914F913F912F910F900BBE1F
:1059B0000F900FBE0F901F9018951F920F920FB669
:1059C0000F9211240BB60F922F933F934F935F9337
:1059D0006F937F938F939F93AF93BF93EF93FF93B7
:1059E000E0916302F09164021995FF91EF91BF91EC
:1059F000AF919F918F917F916F915F914F913F9167
:105A00002F910F900BBE0F900FBE0F901F90189507
:105A10001F920F920FB60F9211240BB60F922F9375
:105A20003F934F935F936F937F938F939F93AF9326
:105A3000BF93EF93FF93E0916502F0916602199591
:105A4000FF91EF91BF91AF919F918F917F916F9156
:105A50005F914F913F912F910F900BBE0F900FBE12
:105A60000F901F9018951F920F920FB60F9211244E
:105A70000BB60F922F933F934F935F936F937F9348
:105A80008F939F93AF93BF93EF93FF93E0915B024C
:105A9000F0915C021995FF91EF91BF91AF919F91A9
:105AA0008F917F916F915F914F913F912F910F90C7
:105AB0000BBE0F900FBE0F901F9018951F920F9264
:105AC0000FB60F9211240BB60F922F933F934F9363
:105AD0005F936F937F938F939F93AF93BF93EF9356
