:1000000005C1000034C1000032C1000030C1000051
:100010002EC100002CC100002AC1000028C1000030
:1000200026C1000024C1000022C1000020C1000040
:100030001EC100001CC100001AC1000018C1000050
:1000400016C1000014C1000012C1000010C1000060
:100050000EC100000CC100000AC100000C947B25F9
:1000600006C100000C94A3280C94D92800C10000FC
:10007000FEC00000FCC00000FAC00000F8C0000094
:10008000F6C00000F4C00000F2C00000F0C00000A4
:100090000C942F290C946529EAC00000E8C00000E8
:1000A000E6C00000E4C00000E2C00000E0C00000C4
:1000B000DEC00000DCC00000DAC00000D8C00000D4
:1000C000D6C00000D4C000000C9481220C94BB293F
:1000D0000C94F129CCC000000C94472A0C947D2A82
:1000E000C6C0000000000A0B02090C0D0E08070331
:1000F00004010000000000000000000000000000FB
:1001000000000000000000000000000000000000EF
:1001100012111000000000000000000000000000AC
:100120000000000000000000000001021020200874
:100130000810204010204080020102010804020142
:1001400001020408102040808040201008040201B1
:10015000800402018040201008040201080402010A
:100160000102040810204080010204081020408091
:1001700005050505070508080808020202020A0A23
:100180000808040404040101010101010101030341
:10019000030303030303040707070C0C0C0C0C0CEC
:1001A0000C0C0202020206060606060606060B0BE9
:1001B0000B0B0B0B0B0B000020002300260029006B
:1001C0002C002F003200000100000301060109018C
:1001D00000002200250028002B002E0031003400F2
:1001E00002010000050108010B01000021002400AC
:1001F00027002A002D003000330001010000040117
:1002000007010A0102298E291A2AA62A11241FBED3
:10021000CFEFD1E2DEBFCDBF00E00CBF12E0A0E027
:10022000B2E0ECEAF6E500E00BBF02C007900D92E9
:10023000AC3BB107D9F727E0ACEBB2E001C01D92AF
:10024000AE3AB207E1F711E0C6E0D1E000E006C047
:1002500021970109802FFE010E94232BC230D10774
:1002600080E00807A9F70E94D6230C94542BC8CE2F
:10027000CF92DF92EF92FF920F931F93E82FF92F07
:1002800005C0015011092109310961F190819623BE
:100290009417B9F305C0015011092109310911F171
:1002A000908196239413F7CFC12CD12CE12CF12C03
:1002B0000AC08FEFC81AD80AE80AF80A0C151D05FB
:1002C0002E053F0579F080818623841791F36C2DEC
:1002D0007D2D8E2D9F2D1F910F91FF90EF90DF9020
:1002E000CF90089560E070E080E090E01F910F9162
:1002F000FF90EF90DF90CF900895CF93C62F61E0ED
:100300000E94E82660E08C2FCF910C94E8264F9253
:100310005F926F927F92AF92BF92CF92DF92EF92F5
:10032000FF920F931F93CF93DF935C01162FC42F7F
:10033000D22F611104C061E0842F0E94E82660E0A2
:100340008C2F0E9424270E94C5252B013C010E946E
:10035000C5256419750986099709663071058105F7
:100360009105A8F361E08C2F0E9424270E94C525E7
:100370002B013C01C02ED12CF12CE12C0E94C52573
:100380006419750986099709C616D706E806F9069D
:10039000A8F760E08C2F0E942427111104C060E0B0
:1003A0008D2F0E94E82620E432E44FE050E061E027
:1003B0008D2F0E945127F50160837183828393837F
:1003C000DF91CF911F910F91FF90EF90DF90CF9031
:1003D000BF90AF907F906F905F904F90089590E0A6
:1003E00080E008950F931F93009709F487C061156B
:1003F000710509F483C0009100021091010220915F
:100400000202309103020E3F1F4F2F4F3F4F09F062
:1004100066C04FEF5FEFBA014093000250930102B4
:100420006093020270930302409100025091010216
:100430006091020270910302DC011296ED91FC9131
:1004400080819181A281B38180932A0390932B03B1
:10045000A0932C03B0932D0384819581A681B7814D
:100460008093260390932703A0932803B093290336
:1004700080859185A285B385809322039093230381
:10048000A0932403B093250384859585A685B7851D
:1004900080931E0390931F03A0932003B093210326
:1004A00010921A0310921B0310921C0310921D034A
:1004B0001DD48BE996E09093BD028093BC0290938B
:1004C000BF028093BE0201D3009731F421E030E0F7
:1004D00030932F0320932E031F910F9108950091C5
:1004E0000002109101022091020230910302DB010F
:1004F0000D931D932D933C93139796CF8FEF9FEF02
:10050000EBCF8F929F92AF92BF92CF92DF92EF92FA
:10051000FF921F93CF93DF934B015C011091310346
:1005200082E090E090932F0380932E038114910436
:10053000A104B10441F480913103811104C0809180
:100540003003C1E08111C0E0C12CD12C7601809133
:100550003103811106C080913003811102C0CC2388
:10056000D1F083E090E090932F0380932E03CC236F
:1005700071F1CCE9DFEF111101C041D7CE01DF915C
:10058000CF911F91FF90EF90DF90CF90BF90AF90F1
:100590009F908F9008956AE070E080E090E00E9464
:1005A000EA2580E1C80E87E2D81EE11CF11C8FEF1E
:1005B00088169806A806B80631F0C1E08C149D0490
:1005C000AE04BF0408F0C0E080E0B3D2C0CFD0E0FA
:1005D000C0E0D1CFCF92DF92EF92FF920F931F93A3
:1005E000CF93DF938F3F910511F008F050C0209119
:1005F0002E0330912F032330310539F020912E0343
:1006000030912F032130310531F424E030E0309374
:100610002F0320932E036A017B01EC0182309105A8
:10062000A0F011E0AE01C701B6014ED2AB01BC0192
:10063000CE011123F9F0DF91CF911F910F91FF901F
:10064000EF90DF90CF900C94280C8C01000F111FBD
:1006500004541D4FD8018D919C91892B11F30E9458
:10066000320C0297F1F6D801ED91FC91CE0119956B
:10067000182FD8CF0E944A0C90E080E0DF91CF91F4
:100680001F910F91FF90EF90DF90CF9008958FEF23
:100690009FEFF4CF80E04DC2CF93DF9386E090E0F0
:1006A00090932F0380932E039DD2EC01ECEBF2E0AC
:1006B00084E0DF011D928A95E9F739D610922F0365
:1006C00010922E03CE01DF91CF91089580913003D7
:1006D00008958091190308956093000270930102B8
:1006E000809302029093030290E080E00895FC0161
:1006F00091E08091F702811190E0918308958091BB
:10070000F7028F5F8A3068F58093F7026091EA0202
:100710007091EB028091EC029091ED026F5F7F4F40
:100720008F4F9F4F6093EA027093EB028093EC022D
:100730009093ED020E9462249B01AC016091EE0255
:100740007091EF028091F0029091F1020E94C72413
:100750006093E6027093E7028093E8029093E902C7
:1007600008951092F702D2CF0F93CF93DF9300D06A
:100770001F92CDB7DEB78091A70781111092A7070E
:100780000AE023E342E361E0CE010196C0DD698126
:100790007A818B819C810E9462242EEA34ED43EBA6
:1007A00059E30E94C72420E030E040E05FE30E946C
:1007B000C7246093A8077093A9078093AA07909312
:1007C000AB078091F2029091F302A091F402B091F4
:1007D000F5020196A11DB11D8093F2029093F302E0
:1007E000A093F402B093F5020F900F900F900F902A
:1007F000DF91CF910F910895CF93DF93E0EDF2E079
:1008000080E090E0A0E8BFEB80A791A7A2A7B3A7E4
:100810008AE097EDA3E2BCE3868F978FA0A3B1A3F4
:100820008FE297E4ABECB3E684839583A683B7832A
:1008300088EB9BE8A2E6BFE980879187A287B38710
:100840008FE392E3A0ECBBEE84879587A687B787FA
:1008500080EB99EAA9ECB6E4808B918BA28BB38BE9
:10086000A4ECB2E0B383A283E0ECF2E01196FC9337
:10087000EE9389E292E0918380839383828384EE76
:1008800092E015969C938E93149784ED92E01396C4
:100890009C938E93129786EE92E017969C938E937C
:1008A0001697C3EAD7E081E090E0A0E0B0E088834B
:1008B0009983AA83BB8363E382E31FDD1C82DF91FC
:1008C000CF91089508954F925F926F927F928F9289
:1008D0009F92AF92BF92CF92DF92EF92FF920F93CF
:1008E0001F93F8944090090350900A0360900B0303
:1008F00070900C03C090FD02D090FE02E090FF02C9
:10090000F0900003452B09F0A4C09B01AC01241911
:1009100035094609570929013A010091050310914B
:100920000603209107033091080348015901840C04
:10093000951CA61CB71C80169106A206B306A0F44F
:1009400000910103109102032091030330910403ED
:100950000F5F1F4F2F4F3F4F009301031093020370
:1009600020930303309304038092050390920603BF
:10097000A0920703B09208030091010310910203B3
:10098000209103033091040380920D0390920E0393
:10099000A0920F03B092100300931103109312035F
:1009A00020931303309314036093090370930A0395
:1009B00080930B0390930C03A0E1B7E2A301920193
:1009C0000E942B2B6C0D7D1D8E1D9F1D6093FD02C3
:1009D0007093FE028093FF02909300030091000247
:1009E0001091010220910202309103020F3F1F4F2C
:1009F0002F4F3F4FF1F00091000210910102209122
:100A00000202309103020E3F1F4F2F4F3F4F89F0DC
:100A1000C0900002D0900102E0900202F090030228
:100A200021E08C149D04AE04BF0408F420E0209360
:100A3000190378941F910F91FF90EF90DF90CF9062
:100A4000BF90AF909F908F907F906F905F904F90EE
:100A500008954B015C0184189508A608B708A30106
:100A60009201261B370B480B590B6415750586053B
:100A70009705D0F082169306A406B50640F420E050
:100A800030E0A90181149104A104B10491F4A0E122
:100A9000B7E20E942B2BA7019601261B370B480BB0
:100AA000590BCA01B901C5CF82169306A406B50633
:100AB00070F7A0E1B7E2A50194010E942B2B6C0D09
:100AC0007D1D8E1D9F1DB5CFFECECF93DF9300D031
:100AD0001F92CDB7DEB71C821B821A821982109238
:100AE0001503109216031092170310921803BE01FB
:100AF0006F5F7F4FCE0103960E94522269817A81F7
:100B00008B819C810E94481B009761F4BE016F5F3E
:100B10007F4FCE0103960E945E2269817A818B818C
:100B20009C812ED50F900F900F900F90DF91CF9159
:100B30000895FF920F931F93CF93DF93082F60E0E8
:100B400070E0CB010E94EA25FF24F3940E94311A41
:100B5000EC01892B89F010E0CE3F8FEFD80769F0C8
:100B6000002361F160E070E0CB010E94EA2581E0A2
:100B700090E0892B59F322C011E025D5EC01892B97
:100B800021F0CE3F8FEFD80759F711111EC011E0A9
:100B9000229609F410E00E94E119EC01892B21F062
:100BA000CE3F8FEFD807E1F6111111C011E0CE3F13
:100BB0008FEFD80709F410E001110BC0CE01DF91CF
:100BC000CF911F910F91FF90089511E0E4CF11E0B4
:100BD000F3CF60E070E0CB010E94EA251F25812F52
:100BE00090E0C7CFCF93DF9380911903882321F042
:100BF00060E070E0CB014CD635D6D0E0C0E0892B68
:100C000071F06AE070E080E090E00E94EA2581E007
:100C100090DF28D62196C03D27E0D20781F727D65E
:100C20000E949C1B109231031092300310922A03F1
:100C300010922B0310922C0310922D031092260376
:100C40001092270310922803109229031092220376
:100C500010922303109224031092250310921E0376
:100C600010921F03109220031092210310921A0376
:100C700010921B0310921C0310921D034EEF5FEFA6
:100C80006FEF7FEF409300025093010260930202E6
:100C90007093030210921903EDE0F3E028E0DF0106
:100CA0001D922A95E9F71092090310920A031092F7
:100CB0000B0310920C03109205031092060310927E
:100CC000070310920803109201031092020310927E
:100CD0000303109204031092FD021092FE02109280
:100CE000FF0210920003DF91CF91089510923D030F
:100CF00010923E0310923F031092400310923C0367
:100D0000809145039091460390933B0380933A036F
:100D10001092390310923803109234031092350365
:100D2000109236031092370310924203109241033F
:100D300090E080E00895CF92DF92EF92FF920F93C0
:100D40001F93CF938C01892B09F055C02091450347
:100D50003091460380913A0390913B0340914503C3
:100D60005091460350933B0340933A0328173907A9
:100D700081F01092390310923803109234031092CC
:100D800035031092360310923703109242031092EB
:100D900041038091450390914603019761F580914D
:100DA000410390914203892B21F480910402811127
:100DB00012C080914103909142030197E1F4809128
:100DC000340390913503A0913603B0913703019716
:100DD000A105B10581F410923403109235031092ED
:100DE0003603109237031092040282E090E0909351
:100DF00042038093410380914503909146030197FC
:100E000009F01CC180915B0390915C0380179107EE
:100E100009F014C18091570390915803A091590390
:100E2000B0915A03009709F409C12091560321118A
:100E30000DC0409157035091580360915903709130
:100E40005A03452B462B472B09F4F8C02091410348
:100E5000309142032230310509F0F0C0209138036F
:100E60002111ECC0FC01C080D180E280F380809130
:100E70003C03882309F4D3C080914803909149032F
:100E8000892B09F4FDC0209148033091490381E08A
:100E90002230310509F080E0209148033091490368
:100EA000C1E02130310549F02091480330914903D8
:100EB000C1E02230310509F0C0E0882309F456C0B2
:100EC00020915203309153034091540350915503A4
:100ED000C701B6010E94C32487FD14C020915203AC
:100EE00030915303409154035091550360913D0359
:100EF00070913E0380913F03909140030E945E24D5
:100F000087FD22C020915203309153034091540336
:100F100050915503C701B6010E94C324181634F539
:100F20002091520330915303409154035091550343
:100F300060913D0370913E0380913F039091400387
:100F40000E945E24811112C080914A0390914B034C
:100F5000A0914C03B0914D03892B8A2B8B2B19F454
:100F600081E08093390381E080933803CC2309F436
:100F700056C0209152033091530340915403509135
:100F80005503C701B6010E945E2487FF14C020915B
:100F90005203309153034091540350915503609193
:100FA0003D0370913E0380913F03909140030E9466
:100FB000C32487FF22C020915203309153034091F4
:100FC000540350915503C701B6010E945E2481115C
:100FD00026C0209152033091530340915403509105
:100FE000550360913D0370913E0380913F039091C2
:100FF00040030E94C324181694F480914A039091F0
:101000004B03A0914C03B0914D03892B8A2B8B2B62
:1010100019F481E08093390381E08093380381E003
:1010200090913803911180E080933C03C0923D037E
:10103000D0923E03E0923F03F0924003012B09F06F
:1010400067C18091410390914203892BD9F410929A
:1010500047031092380380910402882379F082E0DC
:1010600090E09093420380934103109204022091F8
:1010700045033091460381E0232BE9F080E01BC05B
:1010800081E00ACF1092040280914703882349F03F
:1010900010923903109242031092410310924703B9
:1010A000EDCF8091450390914603892BE1F080912B
:1010B00038031092380320914103309142032230CB
:1010C000310509F45EC088F42115310509F448C0E2
:1010D0002130310509F4F3C010923903109238031E
:1010E0001092470338C081E0E6CF2330310509F480
:1010F000B1C02430310581F740913403509135035C
:1011000060913603709137034115510561057105F2
:1011100061F04150510961097109409334035093C2
:101120003503609336037093370340913403509135
:1011300035036091360370913703452B462B472BBF
:10114000D9F420914303309144032130310509F053
:1011500046C01092390310924203109241030CC012
:1011600080910402882341F082E090E09093420352
:10117000809341031092040210923203809139034C
:10118000CEC08823C9F380914A0390914B03A0916C
:101190004C03B0914D03181619061A061B060CF0E5
:1011A0007DC08091450390914603019709F076C078
:1011B00080914A0390914B03A0914C03B0914D0351
:1011C0008093340390933503A0933603B093370391
:1011D00083E090E09093420380934103CDCF409110
:1011E0004E0350914F036091500370915103452B72
:1011F000462B472BA9F01092390380914E03909112
:101200004F03A0915003B091510380933403909306
:101210003503A0933603B093370381E090E0DACF33
:10122000882399F08091050290910602A09107020F
:10123000B09108028093340390933503A093360352
:10124000B093370384E090E0C5CF1092390382E079
:1012500090E0C0CF8091340390913503A091360384
:10126000B09137030097A105B10559F00197A10985
:10127000B1098093340390933503A0933603B09360
:1012800037038091340390913503A0913603B091D8
:101290003703892B8A2B8B2B09F06ECF80910502A7
:1012A00090910602A0910702B0910802892B8A2B27
:1012B0008B2B09F44ECF81E080933903B3CF40915B
:1012C0003403509135036091360370913703411513
:1012D00051056105710561F04150510961097109BC
:1012E0004093340350933503609336037093370370
:1012F0004091340350913503609136037091370368
:10130000452B462B472B09F037CF8111C7CF9FCFF5
:1013100080913203882309F431CF80913303CF9138
:101320001F910F91FF90EF90DF90CF900895109252
:101330003D0310923E0310923F031092400310921F
:101340003C03109242031092410310923B0310920F
:101350003A0310925C0310925B03109239031092CF
:101360003803109234031092350310923603109212
:1013700037031092330310923203109257031092E6
:1013800058031092590310925A0310925603109268
:10139000520310925303109254031092550388EE97
:1013A00093E0A0E0B0E08093050290930602A09342
:1013B0000702B093080210924E0310924F0310924E
:1013C00050031092510310924A0310924B03109253
:1013D0004C0310924D03109249031092480381E090
:1013E0008093040210924703109246031092450323
:1013F000109244031092430390E080E0089580919E
:10140000450390914603892B19F5809104028823A6
:1014100051F080914703811106C081E0809333032E
:10142000809332030895209147033091040281E0B4
:1014300090E0332311F090E080E030E082239323AA
:10144000892B21F01092330381E0EACF109232030E
:10145000089582E090E0FA01918380838FEF9FEFFF
:101460000895CF93DF93EA01009711F00E94B91C11
:101470001982188290E080E0DF91CF910895DB011E
:10148000009719F48FEF8C9308952EEF2C93FC01A5
:101490003F96EF30F10508F034C08827ED5AF54F3C
:1014A0008F4F0C94232B7F0A7D0A7B0A790A770AD7
:1014B000730A750A710A6F0A6D0A6A0A660A620A75
:1014C000680A810A80E311968C93089589E2FBCF24
:1014D00082E2F9CF11961C92089583E2F4CF81E263
:1014E000F2CF81E1F0CF87E2EECF8AE2ECCF80E16C
:1014F000EACF84E2E8CF88E2E6CF86E2E4CF81E378
:10150000E2CF80E2E0CF8091690390916A03089571
:1015100090936A0380936903089580916803089506
:1015200090916803892B809368030895982F909574
:1015300080916803892380936803089580916703ED
:101540000895809165039091660308956115710572
:1015500059F0FB0130E020E070E060E0241735072F
:1015600019F06115710511F0CB010895A081B181C9
:10157000A817B90709F4BF012F5F3F4F3696EECF8A
:1015800080916B0381111CC060D266D290935E0380
:1015900080935D030E94C8140E94DA149093620342
:1015A000809361030E9449190E945019909360032F
:1015B00080935F0381E080936B0390E080E0089567
:1015C00084EF9FEF08958F929F92AF92BF92CF9238
:1015D000DF92EF92FF920F931F93CF93DF9300D090
:1015E00000D000D01F92CDB7DEB71A8619861886B4
:1015F0001F821E821D821C821B821A821982809188
:101600006B0307EF1FEF882309F49CC08E010D5F69
:101610001F4F9E012B5F3F4FAE01495F5F4FBE01E1
:10162000675F7F4F90E080E00E94CD1A8C010097A9
:1016300021F00596029708F0DBC029853A8521152F
:10164000310509F402C1ED80FE804B815C81B70158
:10165000640F751F8F8198858617970708F4F5C06A
:10166000E20EF31ED7019C91903C09F07FC04230FE
:10167000510508F47BC011968C91409169035091FB
:101680006A03452B09F49CC0913F08F071C02CE11E
:10169000290F2D3008F48BC02DE2290F203108F4DA
:1016A00089C0903C21F48150823008F483C088E3E3
:1016B000890F8B3008F481C09FE3C92E9AE0D92EA0
:1016C000E9E2FAE06D817E81AE014F5F5F4F89856F
:1016D0009A8519955C01C114D104A1F189809A8081
:1016E0008114910479F18B819C818815990508F406
:1016F00087C010E000E04B815C8170E060E0C701D2
:101700000E944D2B01151105E9F449815A81698523
:101710007A858D819E81680F791FC501F601199523
:10172000E980FA800D811E812F81388549855A858F
:101730006FEF7FEF81E090E00E94681A8C01892BA7
:1017400009F056C0C8012A960FB6F894DEBF0FBE46
:10175000CDBFDF91CF911F910F91FF90EF90DF9060
:10176000CF90BF90AF909F908F90089580E085CFED
:1017700030E020E0220F331FF901E35AFC4F0190C3
:10178000F081E02D309709F497CF892F90E01995DB
:10179000009709F491CFDC011296ED91FC9113971B
:1017A0001496CD90DC90309709F08CCF1FC021E0CB
:1017B00030E0E0CF22E030E0DDCF23E030E0DACFF0
:1017C000D12CC12CE1E3FAE09F3F09F07BCFE091FF
:1017D0005D03F0915E03309721F4C90104EF1FEF20
:1017E0000CC08FEF90E019950097A9F604EF1FEF5A
:1017F00089859A85009709F4A5CF0E94B91CA2CFCC
:101800000E94971B8C0189859A850E94B91C70E003
:1018100060E0C4010E94301B98878F830E94651A84
:101820009E838D836F8178856115710559F0C8019C
:101830000E94451E9A87898706EF1FEF892B09F0C2
:1018400058CF59CF08EF1FEF56CF08EF1FEFD0CF7B
:1018500020916B03222319F020E00C94DF1487EF12
:101860009FEF08958091690390916A0308950E9403
:1018700055190E94AF18F5D0EDE5F3E088E0DF01DF
:101880001D928A95E9F710926B0390E080E008952D
:101890000C940D1721E040E050E0BA010C94DF14E5
:1018A00086E090E0FA019183808390E080E00895E3
:1018B00047E050E06CE272E049CEDF92EF92FF9297
:1018C0000F931F93CF93DF938A01EC01C60FD71FAD
:1018D000E0906F03F0907003D9800E947F1BD816B0
:1018E000190678F082E090E0F801918380838EEF12
:1018F0009FEFDF91CF911F910F91FF90EF90DF90BD
:101900000895EF2841F482E090E0F801918380830C
:1019100084EF9FEFEECF898180936E0390E0019674
:10192000F8019183808390E080E0E3CFCF93DF9351
:10193000EA010E94BE17882321F00E948C1B0E949E
:10194000BF1782E090E0998388838BEF9FEFDF9150
:10195000CF910895CF93DF93EB0186E0FB011192C5
:101960008A95E9F78FEF8883D8DD8983E7DD8A835D
:10197000E8DD9D838C83DF91CF910895CF93DF9332
:10198000EA010E94C117811109C082E090E09983A9
:10199000888385EF9FEFDF91CF91089590E080E0FD
:1019A000B7DD81E090E09983888390E080E0F3CF19
:1019B0000F931F93CF93DF93EA018C01060F171F3C
:1019C0000E94C11781110BC082E090E09983888347
:1019D00085EF9FEFDF91CF911F910F910895F8014F
:1019E0008181823038F082E090E0998388838EEFA5
:1019F0009FEFF0CF81E090E08BDD88E090E099836D
:101A0000888390E080E0E6CFCF93DF930097D1F416
:101A1000EB01FB01329686E0DF011D928A95E9F722
:101A20008FEF888385E089831A820E947F1B8B83D6
:101A30000E947E1B9D838C8381E08E838F83DF9148
:101A4000CF910895DF91CF911ACD88E59CE09093D6
:101A50006D0380936C03089580916C0390916D03E6
:101A6000089510926D0310926C03089580916F0396
:101A7000909170030895411105C0611571058105AC
:101A8000910561F060936F0370937003809371030D
:101A9000909372034093730381E0089580E008956A
:101AA000FF920F931F93CF93DF938A01EC01C60F30
:101AB000D71FF9800E947F1BF816190668F082E094
:101AC00090E0F801918380838EEF9FEFDF91CF91BB
:101AD0001F910F91FF9008956C817D818E819F8170
:101AE0004B81C9DF811108C082E090E0F801918349
:101AF000808384EF9FEFEACF898180936E0390E02B
:101B00000196F8019183808390E080E0DFCFCF934E
:101B1000DF93EA01FC01E60FF71F6481758186817E
:101B200097814381A8DF811109C082E090E0998309
:101B3000888384EF9FEFDF91CF91089581E090E05B
:101B40009983888390E080E0F6CFEFE6F3E0408170
:101B5000518162817381480F511D611D711D408348
:101B60005183628373830895CF93C0916E034C2F8A
:101B700050E060916F037091700301960E94442BB6
:101B80008C2FE3DF10926E03CF910895009799F4A4
:101B900080916F03909170032FEFFB012083892BBD
:101BA00059F020916E0330E02F5F3F4F2417350727
:101BB00019F4CB01D9CF63CC0895009799F48091A3
:101BC0006F03909170032FEFFB012083892B59F055
:101BD00020916E0330E02F5F3F4F2417350719F433
:101BE000CB01C2CF4CCC089523E1AC01249FC001AE
:101BF000259F900D1124E0917803F0917903E80F6F
:101C0000F91F238134812250310981E022303105CE
:101C100008F080E008950F931F93CF93DF93009116
:101C20007A0310917B03D0E0C0E080E00C171D0721
:101C300049F491E0811190E0892FDF91CF911F91BC
:101C40000F9108958111F5CFCE01CEDF2196EECF11
:101C5000A0917803B0917903109729F120917A032C
:101C600030917B0382179307F0F453E1589F900162
:101C7000599F300D1124A20FB31FED91FC911197C4
:101C8000309789F012968C91681768F48BE0689F02
:101C9000E00DF11D112480819181892B21F081E0DB
:101CA0009281491708F080E008959C0143E1429F2A
:101CB000C001439F900D1124E0917803F0917903C6
:101CC000E80FF91F8385823091F481E090E065810F
:101CD00076814091090250910A026417750711F448
:101CE00090E080E0892B19F081E0232B09F080E05F
:101CF0000895EF92FF920F931F93CF93DF93EA0122
:101D0000FC01E60FF71F02811381E480F5804F2D5F
:101D10006E2DC8019DDF81110DC082E090E0998396
:101D200088838EEF9FEFDF91CF911F910F91FF90EE
:101D3000EF900895C80158DF882339F082E090E0E1
:101D40009983888388EF9FEFEECF10931002009362
:101D50000F02E0921102F092120281E090E099836A
:101D6000888390E080E0DFCFCF92DF92EF92FF9206
:101D70000F931F93CF93DF937A01EC01C60FD71F08
:101D8000C0900F02D0901002009111021091120227
:101D9000412F602FC6015CDF811110C082E090E00E
:101DA000F701918380838AEF9FEFDF91CF911F919D
:101DB0000F91FF90EF90DF90CF900895C60114DF50
:101DC000882341F082E090E0F7019183808388EFDF
:101DD0009FEFEBCF4C815D816E817F819A818981FC
:101DE0008F3F41F082E090E0F701918380838EEF96
:101DF0009FEFDBCFE3E1EC9D9001ED9D300D1124D1
:101E0000E0917803F0917903E20FF31F0190F081E4
:101E1000E02D2BE0029FE00DF11D11240190F081D7
:101E2000E02D27E0129FE00DF11D112480839183A6
:101E30008B81828343835483658376831F5F1093F2
:101E4000120281E090E0F7019183808390E080E0CE
:101E5000ACCFEF92FF920F931F93CF93DF937A0152
:101E60008C01060F171FC0917803D091790320973A
:101E700081F021E030E0F8018281938140917A0382
:101E800050917B038417950710F030E020E0232B5E
:101E900071F482E090E0F701918380838EEF9FEFF1
:101EA000DF91CF911F910F91FF90EF90089543E143
:101EB000489F9001499F300D1124C20FD31F94DE1B
:101EC000882341F082E090E0F7019183808388EFDE
:101ED0009FEFE6CFF8012481358120383105C8F61F
:101EE00087818111D6CF4181842F90E08F7E00972A
:101EF00041F082E090E0F7019183808386EF9FEFCD
:101F0000CFCF4F833E832D832681288719862230A9
:101F100010F421E0288721E030E0F70131832083AD
:101F2000BFCF88E090E0FA019183808390E080E069
:101F30000895FB018FEF808381E181838FEF9FEF15
:101F40009383828380E890E095838483168217824E
:101F50000895FB018FEF808391E0918382839383C7
:101F6000848384E3858381E090E09783868308956A
:101F7000DF92EF92FF920F931F93CF93DF93EA01CB
:101F8000FC01E60FF71F8181813071F082E090E063
:101F9000998388838FEF9FEFDF91CF911F910F91EE
:101FA000FF90EF90DF90089582819381D480258106
:101FB000E680F780009178031091790301151105EF
:101FC00039F482E090E0998388838CEF9FEFE4CF2F
:101FD00040917A0350917B038417950738F082E093
:101FE00090E0998388838EEF9FEFD6CF892B39F0CD
:101FF00082E090E09983888386EF9FEFCDCF8D2D8F
:102000008D7FB1F72130A1F781E0D11006C091E0BA
:10201000E916F10431F080E004C0E2E0EE16F104CC
:10202000D0F3882329F390E080E0DEDD882339F0C7
:1020300082E090E09983888388EF9FEFADCFF8012D
:10204000D38681E08487F686E586108A178681E04C
:1020500090E09983888390E080E09ECF4CE050E050
:1020600066E572E073CA8F929F92BF92CF92DF9221
:10207000EF92FF920F931F93CF93DF93EA01FC013E
:10208000E60FF71F828193810481B580E091780388
:10209000F0917903309791F482E090E099838883FE
:1020A0008CEF9FEFDF91CF911F910F91FF90EF90F9
:1020B000DF90CF90BF909F908F90089520917A03EA
:1020C00030917B038217930738F082E090E0998388
:1020D00088838EEF9FEFE6CF23E1289F6001299F41
:1020E000D00C1124EC0DFD1DE080F180E114F10411
:1020F00099F28281081748F78BE0089F800111242C
:10210000E00EF11EF70180819181892B29F6BB2019
:10211000E1F2F7E0BF9E40011124C4010E94801C3F
:10212000F70191838083E0917803F0917903EC0DBE
:10213000FD1D0190F081E02DE00FF11F8081918164
:10214000009739F482E090E0998388838DEF9FEFC8
:10215000A9CFA40170E060E00E944D2B809178032C
:1021600090917903C80ED91EF60180819181080FE4
:10217000191FF801B28281E090E09983888390E092
:1021800080E090CFAF92BF92CF92DF92FF920F93F9
:102190001F93CF93DF93EA01FC01E60FF71F8281C3
:1021A0009381F48000917803109179030115110552
:1021B00081F482E090E0998388838CEF9FEFDF9138
:1021C000CF911F910F91FF90DF90CF90BF90AF9074
:1021D000089520917A0330917B038217930738F09A
:1021E00082E090E0998388838EEF9FEFE8CF2FEF16
:1021F0002F0D2C3FA8F723E1289F6001299FD00CC9
:1022000011240C0D1D1DF80180819181892B89F607
:10221000FBE0FF9E50011124C5010E94801CF801C3
:1022200091838083E0917803F0917903EC0DFD1D9B
:1022300080819181009739F482E090E099838883CE
:102240008DEF9FEFBCCFA50170E060E00E944D2BA9
:10225000E0917803F0917903EC0DFD1DF28281E0AD
:1022600090E09983888390E080E0A9CFCF92DF92BD
:10227000EF92FF920F931F93CF93DF93860F971FD9
:10228000FC01028113818091780390917903892B5D
:1022900081F082E090E0FA01918380838CEF9FEFE0
:1022A000DF91CF911F910F91FF90EF90DF90CF9032
:1022B0000895C801B0E0A0E00197A109B1098F3FDE
:1022C0009F4FA105B10540F082E090E0FA019183B3
:1022D00080838EEF9FEFE4CF7A0183E1809F6001DE
:1022E000819FD00C1124C6010E94801CEC01009734
:1022F00041F482E090E0F701918380838DEF9FEFBE
:10230000CFCFA60170E060E00E944D2BD0937903FF
:10231000C093780310937B0300937A0390E080E0EE
:102320002FEF3FEF41E061E070E08017910741F44B
:1023300081E090E0F7019183808390E080E0B0CF6E
:102340003A8B298B1B864C877E876D87188A1F8660
:1023500001966396EACFCF92DF92EF92FF920F93AE
:102360001F93CF93DF93EC01D12CC12C10E000E040
:10237000F12CE12C6A816017110609F0CCF483E09E
:10238000689FB0011124AE014F5E5F4FC7010E94EC
:10239000E51C009721F02FEF3FEF3A8B298BDF915F
:1023A000CF911F910F91FF90EF90DF90CF90089504
:1023B000E881F981EC0DFD1D438154818D859E8559
:1023C000489F9001499F300D589F300D1124C9013D
:1023D00001960115110519F44F8144FD049661E041
:1023E00070E00E94301BE816F90608F47C010F5FCC
:1023F0001F4F8BE0C80ED11CBDCFF89420917603FF
:102400003091770381E02115310509F080E0232B1D
:1024100009F0789408952F923F924F925F926F92B5
:102420007F928F929F92AF92BF92CF92DF92EF9264
:10243000FF920F931F93CF93DF933C01660E771E9D
:10244000F301828193814C01B12CA12CC0917803BE
:10245000D0917903209769F021E030E060917A0310
:1024600070917B038617970710F030E020E0232B54
:10247000D1F482E090E0FA01918380838EEF9FEFA8
:10248000DF91CF911F910F91FF90EF90DF90CF9050
:10249000BF90AF909F908F907F906F905F904F9084
:1024A0003F902F9008958092130290921402A09270
:1024B0001502B092160263E1689F9001699F300D8A
:1024C0001124C20FD31FF3018181833040F082E0D9
:1024D00090E0FA019183808386EF9FEFD1CF2A01AC
:1024E0002B813C81232BF1F4288139819F8191FF3D
:1024F0002EC0232B09F46FC020917D039A81422FB7
:10250000490F5527551FBA0141E050E06138710568
:1025100014F050E040E0452B09F45DC02A87920F8B
:1025200090937D038150823008F481C066DF882358
:1025300009F4D8C0F3018181813009F48DC008F419
:102540007BC0823009F4C6C090E080E0ADC0232B90
:1025500009F441C020917C039A81E22FE90FFF2703
:10256000FF1F41E050E0ED3FF10514F050E040E086
:10257000452B89F12A87920F90937C03D3CFA081BA
:10258000B181A20FB31F11966C91060F111D019618
:10259000295F3F4F8417950794F38D859E85089F8B
:1025A0001001099F300C189F300C1124C114D10464
:1025B000D1F48F8184FF17C00E947E1BF5E02F0E9F
:1025C000311C21E08215930508F420E0A701455F46
:1025D0005F4F21110EC082E090E0F2019183808371
:1025E00087EF9FEF4DCF0E947E1B2FEF221A320AFA
:1025F000E8CF88819981E80EF91EF70114830383DF
:10260000FFEFCF1ADF0A7A018A818C151D0409F0C9
:102610000CF48CCFE881F981EE0DFF1D428150E072
:1026200030E020E010E000E090E080E0B3CFF12C5B
:10263000E12CD12CC12CE8CF81E090E09C838B83EE
:10264000EADA882309F480CF81E090E00E94880ACA
:1026500080E40E94960A78CF89899A89019661F070
:1026600083E090E09C838B8382E090E00E94880A64
:1026700080E40E94900A68CF8D819E81209109029A
:1026800030910A0282179307D1F460910D02709184
:102690000E02AE014F5E5F4F80910B0290910C02D3
:1026A0000E94041E0097E1F2789422E030E0F201EB
:1026B00031832083892B99F08DEF9FEFE1CE89281C
:1026C0008A288B2869F6029758F6CE0144DE188ACC
:1026D0001F86E8CF82E090E09C838B8335CF90E02B
:1026E00080E0CECE82E090E0F2019183808385EF9E
:1026F0009FEFC6CE8F929F92AF92BF92CF92DF9202
:10270000EF92FF920F931F93CF93DF93EA018C0117
:10271000060F171FF8018181833098F082E090E066
:102720009983888386EF9FEFDF91CF911F910F915F
:10273000FF90EF90DF90CF90BF90AF909F908F90E1
:1027400008958091780390917903892B61F081E05D
:1027500090E020917A0330917B03232B11F490E0D9
:1027600080E0892B39F482E090E0998388838EEFB2
:102770009FEFDACF42DE882309F4E0C0F8018181BF
:10278000813009F496C0E8F0823099F420917A0300
:1027900030917B03E0917803F091790390E080E041
:1027A00041E050E02817390709F0BEC034DA811142
:1027B00017C0789481E090E09983888390E080E06E
:1027C000B3CF20917A0330917B03E0917803F091AD
:1027D000790390E080E041E050E02817390741F4A8
:1027E00081E090E00E94880A80E40E94960AE1CF8E
:1027F00063817481672B11F0548343830196739630
:10280000ECCFE0917803F0917903E00FF11F238181
:10281000348122303105D9F4218932892F3F3F4F4D
:10282000B1F4258136814091090250910A022417A2
:10283000350761F5AF014F5E5F4F60910D027091FA
:102840000E0280910B0290910C020E94041EEFEF89
:10285000CE1ADE0AEE0AFE0A0D5E1F4F40917A0381
:1028600050917B0370E060E0C416D506E606F706DB
:1028700044F5009731F27894892B09F49BCF82E0DC
:1028800090E0998388838DEF9FEF4ECFC114D104E0
:10289000E104F104E1F622303105C8F6CF015BDD39
:1028A000E0917803F0917903E00FF11F108A178609
:1028B000CECF10E000E090E080E0C12CD12C76017A
:1028C000CDCF0097C1F610E000E0812C912C54018F
:1028D00083E0E82EF12C1AC0E0917803F09179039F
:1028E000E00FF11F83819481029749F4F482E3821F
:1028F00082E090E00E94880A80E40E94900AFFEF44
:102900008F1A9F0AAF0ABF0A0D5E1F4F80917A038C
:1029100090917B03B0E0A0E088169906AA06BB065A
:10292000DCF290E080E0A7CF6381748162307105B2
:1029300011F4548343830196739634CF82E090E080
:102940009983888385EF9FEFEFCE0097B9F48FEFDF
:10295000FB018083209113023091140243E1429FD6
:10296000C001439F900D1124E0917803F091790309
:10297000E80FF91F8285FB01818308950C943F0ABB
:1029800088E090E0FA019183808390E080E00895F0
:102990001092770310927603E8E7F3E086E0DF0118
:1029A0001D928A95E9F78EE290E1909375038093EA
:1029B00074030895809174039091750308952F9284
:1029C0003F924F925F926F927F928F929F92AF92BF
:1029D000BF92CF92DF92EF92FF920F931F93CF930C
:1029E000DF93CDB7DEB760970FB6F894DEBF0FBEAA
:1029F000CDBFF894E0917603F09177033196F09390
:102A00007703E09376037894A0917803B0917903EB
:102A1000BA83A983109709F4FAC1E0917A03F0917F
:102A20007B03EF2B09F4F3C128874B875C876D8705
:102A30007E879A878987B88BAF87312C212CF12C20
:102A4000512C412C80917A0390917B0328163906F2
:102A500010F4FF2029F1F894809176039091770388
:102A6000019790937703809376037894C2016096E0
:102A70000FB6F894DEBF0FBECDBFDF91CF911F918F
:102A80000F91FF90EF90DF90CF90BF90AF909F900D
:102A90008F907F906F905F904F903F902F90089510
:102AA000B10190E080E088D4682EEF85F8898781B5
:102AB00081FD3DC0838194810397C9F525813681CD
:102AC0003C832B8389859A852817390781F5C101B5
:102AD000ECD8782E8823A9F1AF85B8891F968D91FF
:102AE0009C915097019621E01D964D915C91841721
:102AF000950709F020E02F83B12CA12CEF85F889F0
:102B000082818A151B0419F014F0FF20E9F0F88582
:102B1000FF2309F46CC1AF85B88950961C921E92B0
:102B20001F97662021F0B10190E080E047D4FFEFCD
:102B30002F1A3F0A2F8538892D5E3F4F388B2F87FC
:102B400081CFB1E0BF83D8CFC0D49E838D83E88589
:102B5000EE23E9F0772009F43CC1AF85B8891F96D0
:102B60008D919C91892B79F0BBE0BA9DC001BB9DF2
:102B7000900D1124AF85B889ED91FC91E80FF91FF4
:102B800085819681F6D6BFEFAB1ABB0AB7CF81E03D
:102B9000772039F0EF85F88927853089232B09F0D4
:102BA00080E0F82EE12CA114B10439F4AF85B88986
:102BB0001796EC90E4FAEE24E0F8BBE0BA9D6001D1
:102BC000BB9DD00C1124882309F424C1AF85B8899A
:102BD000ED91FC911197EC0DFD1D438154811D96E3
:102BE0002D913C91429FC001439F900D529F900DAB
:102BF0001124E1105DC001969087878361E070E049
:102C0000878190852DD5EF85F889218932890081CA
:102C100011810C0D1D1D2F3F320709F44BC0BC0163
:102C2000C9010E94451ED80116969C938E93159754
:102C3000AF85B889ED91FC911197EC0DFD1D0581D3
:102C400016810115110509F4CDC0ED81FE810E0F2D
:102C50001F1F1A968C918A0DD8018C93E1102FC0FA
:102C60000F5F1F4FAF85B889ED91FC91EC0DFD1DF5
:102C700012870187AF85B889ED91FC91EC0DFD1DA0
:102C800085819681892B09F4A4C0809109029091D5
:102C90000A022B813C812817390709F465C0772087
:102CA00011F001851285912C812C1A8219824AC05B
:102CB0000596A2CF25D6F80196838583B9CF8B855B
:102CC0009C85AD85BE85F80181839283A383B483FF
:102CD0000B5F1F4FC7CFE080F180E80CF91CD701D4
:102CE00013966D917C9114978C918F3F09F473C06A
:102CF000E1E0F0E002C0EE0FFF1F8A95E2F7CF019E
:102D0000092E000CAA0BBB0BFB0140815181628193
:102D1000738184239523A623B72321E0892B8A2B53
:102D20008B2B09F420E0D8012C93D70111968C91BC
:102D3000080F111DE981FA813196FA83E983F7E0E2
:102D40008F0E911CAF85B889ED91FC91EC0DFD1DA6
:102D5000828129813A818217130611F00CF0BBCFD2
:102D6000772011F0128701873F81332391F1AF85DE
:102D7000B889ED91FC91EC0DFD1D61E070E087815B
:102D800090856ED4AF85B889ED91FC91EC0DFD1D59
:102D9000E780F08445815681E1E0F0E0662011F0A3
:102DA000F0E0E0E00D811E819C01B10188279927A8
:102DB0008E1B9F0B8DD32C01892B59F0EF85F88941
:102DC00080819181C80ED91ED60115968D919C9156
:102DD000D0D5F12CD8CEF701418150E0C8010E9436
:102DE000442BA3CF86EF482E55245A94CCCEEF85A2
:102DF000F889878590890196908B87872585368508
:102E00008217930709F08DCE108A17868ACE512C2F
:102E1000412C21CE10E000E02DCF2F923F924F9217
:102E20005F926F927F928F929F92AF92BF92CF925A
:102E3000DF92EF92FF920F931F93CF93DF938091D6
:102E400078039091790310E000E0892BA9F0D5DA9E
:102E50000AEF1FEF882381F020907A0330907B03E4
:102E6000C0917803D0917903D12CC12C10E000E0FF
:102E70002C143D04A9F47894C801DF91CF911F91DF
:102E80000F91FF90EF90DF90CF90BF90AF909F9009
:102E90008F907F906F905F904F903F902F9008950C
:102EA000C6010E94550E882309F18B819C810397EE
:102EB000E9F48F859889892BC9F0B60190E080E00C
:102EC0007BD221E030E0882311F030E020E0442480
:102ED0005524421A530AB12CA12C912C812C8A81A1
:102EE0008815190409F038F4188A1F864FEFC41AA0
:102EF000D40A6396BDCFE881F981EA0DFB1D858177
:102F00009681892BA1F161E070E087819085A8D33B
:102F10003C01DBD28C01E881F981EA0DFB1D818542
:102F2000928525813681200F311FAC01421B530B46
:102F30009A0147815085421B530B70E060E00E946C
:102F40004D2BE881F981EA0DFB1DE780F084458176
:102F500056819301B601C201BBD28C01892B39F095
:102F6000E881F981EA0DFB1D8581968102D55FEF2D
:102F7000851A950A8BE0A80EB11CB1CF3ECA789491
:102F800008952F923F924F925F926F927F929F92FD
:102F9000AF92BF92CF92DF92EF92FF920F931F9367
:102FA000CF93DF9300D000D0CDB7DEB70091780388
:102FB00010917903992493940115110509F43EC0E9
:102FC000A0907A03B0907B0318DA982E8823B1F191
:102FD000109279031092780310927B0310927A0377
:102FE00010927C0310927D038FEF9FEFDC018093A2
:102FF000130290931402A0931502B09316027894D2
:103000007FD31E830D83C12CD12C7601C501B0E086
:10301000A0E089839A83AB83BC8322242A94322C38
:1030200089819A81AB81BC81C816D906EA06FB0664
:10303000F4F0C8019ED480E40E94960A892D269659
:103040000FB6F894DEBF0FBECDBFDF91CF911F91B9
:103050000F91FF90EF90DF90CF90BF90AF909F9037
:103060007F906F905F904F903F902F900895AD812B
:10307000BE8115968D919C911697209109023091F1
:103080000A0282179307D1F451968D919C91EBD54A
:10309000ED81FE8180819181B12CA12C412C512C9C
:1030A0003201892B89F5BFEFCB1ADB0AEB0AFB0A49
:1030B000ED81FE817396FE83ED83B2CFC114D104FE
:1030C000E104F10429F7029718F7ED81FE81818967
:1030D00092898F3F980709F026D5AD81BE8152961F
:1030E0003C922E925197D4CF8A0D9B1DDC018D917D
:1030F0009C91009709F03DD4BFEF4B1A5B0A6B0A15
:103100007B0AEBE0AE0EB11CAD81BE818D919C912E
:10311000119712964C9150E070E060E0441655060D
:10312000660677060CF325D4BECFCF93DF93EA0172
:1031300028DF811109C082E090E09983888385EFC0
:103140009FEFDF91CF91089581E090E00E94880A7F
:1031500081E090E09983888390E080E0F2CF11DFF6
:103160001092750310927403089542E050E06EE9E6
:1031700072E00C94A60AFF920F931F93CF93DF93F4
:103180008A01EC01C60FD71FF980B9D20897F8164B
:10319000190671F068F082E090E0F8019183808375
:1031A0008EEF9FEFDF91CF911F910F91FF900895C8
:1031B0006C817D818E819F814B810E943B0D8111AD
:1031C00008C082E090E0F8019183808384EF9FEF54
:1031D000E9CFF9800E94360D4F2D50E0BE01685FA7
:1031E0007F4F0E94442B89810E94A50D81E090E0D1
:1031F000F8019183808390E080E0D4CFDF92EF925A
:10320000FF920F931F93CF93DF938A01EC01C60FB8
:10321000D71F0E94360D7C01D98071D2DD2059F074
:10322000029721E030E0D816190619F010F030E0CE
:1032300020E0232B79F482E090E0F80191838083F1
:103240008EEF9FEFDF91CF911F910F91FF90EF9045
:10325000DF900895EF2841F482E090E0F801918337
:10326000808384EF9FEFEECFF9800E94360D4F2DC3
:1032700050E0BE016E5F7F4F0E94442B89810E9407
:10328000A50D81E090E0F8019183808390E080E0DB
:10329000D9CF85EB98E190937F0380937E030895C7
:1032A00080917E0390917F0308950895FC0111821F
:1032B0001082938382830895DB011D921C92DC01AE
:1032C0001296ED91FC9113977183608313967C9312
:1032D0006E9312970895FC0180819181DB018D939B
:1032E0009C93A081B181109741F08D919C91918325
:1032F0008083892B11F4F383E2830895FC0180819C
:103300009181DB018D939C93892B11F473836283EC
:10331000718360830895FC011182108293838283FC
:103320000895CF93DF931F921F92CDB7DEB71A8215
:103330001982F894BE016F5F7F4F85E893E0CBDF81
:1033400089819A81009709F014D389819A81892B08
:1033500089F7BE016F5F7F4F89E893E0BCDF898109
:103360009A81009709F005D389819A81892B89F781
:1033700078940F900F90DF91CF910895CF93DF93C2
:103380001F921F92CDB7DEB71A821982F894BE0140
:103390006F5F7F4F81E893E09EDF89819A8100977C
:1033A00009F0E7D289819A81892B89F778940F9067
:1033B0000F90DF91CF91089581E0089590E080E033
:1033C0000895EF92FF920F931F93CF93DF931F9275
:1033D0001F92CDB7DEB71A8219828091800307EF62
:1033E0001FEF8823A1F1F894BE016F5F7F4F89E83A
:1033F00093E071DF789489819A81EE24E394F12C33
:10340000892B51F4F894BE016F5F7F4F85E893E0FC
:1034100062DF7894F12CE12C89819A810EEF1FEF05
:103420000097A9F0FC014281538164E070E06ED600
:103430008C01892B61F0F89469817A81C701880F2A
:10344000991F880F991F8B579C4F58DF7894C8019C
:103450000F900F90DF91CF911F910F91FF90EF9000
:1034600008950F931F93CF93DF9300D01F92CDB792
:10347000DEB71C821B821A8219828091800307EFBB
:103480001FEF8823C1F0AE014D5F5F4F64E070E035
:10349000CE010196AED68C01892B69F4E981FA81BF
:1034A0008B819C8193838283F89469817A8181E8FE
:1034B00093E002DF7894C8010F900F900F900F9067
:1034C000DF91CF911F910F910895B3D7049608957E
:1034D0008F929F92AF92BF92CF92DF92EF92FF9224
:1034E0000F931F93CF93DF931F921F92CDB7DEB739
:1034F0001A821982BC016F5F7F4F6330710598F0AB
:10350000AA24AA94BA2CC5010F900F90DF91CF91F5
:103510001F910F91FF90EF90DF90CF90BF90AF90F1
:103520009F908F9008954115510551F3480159011D
:103530008A016C01CADF8815990511F7E114F104BD
:10354000F9F28E0D9F1DA816B906D0F28091800366
:103550008823F1F0F894B501645071099701AE0128
:103560004F5F5F4FC8010496D9D65C01892B71F477
:1035700089819A81F80193838283C601880F991FFC
:10358000880F991FB8018B579C4F96DE7894BBCF5C
:1035900087EFA82EBB24BA94B6CFAF92BF92CF923A
:1035A000DF92EF92FF920F931F93CF93DF931F92BF
:1035B0001F92CDB7DEB71A821982892B09F047C056
:1035C0006115710509F443C04115510509F43FC067
:1035D0002115310509F43BC001151105C1F1809198
:1035E00080038823B9F179016A015B01F894BE0177
:1035F0006F5F7F4F81E893E06EDE789489819A81D6
:10360000009759F1DC0112966D917C91A801049606
:103610009ED68C01E981FA81D501ED93FC938281DC
:1036200093810496F601918380834FDFD7018D93B8
:103630009C93C8010F900F90DF91CF911F910F9134
:10364000FF90EF90DF90CF90BF90AF9008950FEF75
:103650001FEFEFCF07EF1FEFECCF0EEF1FEFE9CF1C
:10366000CF93DF93EC01672B71F4ECD68C179D0799
:1036700060F0DFD62496C80FD91FDED68C0F9D1FB1
:10368000DF91CF910895DBD6F1CF90E080E0F8CFC5
:103690000F931F93CF93DF932091800321112BC0B1
:1036A0008B01EC0185E893E001DE89E893E0FEDD23
:1036B00081E893E0FBDD97D00097C1F4C3D670E0BA
:1036C00060E0CEDF47E152E062E070E07ED100973B
:1036D00069F48091170290911802C6D6B801CE0104
:1036E000FBD4009719F421E020938003DF91CF9160
:1036F0001F910F91089584EF9FEFF8CFA0C6A2C647
:10370000CF93DF93A2D6EC01892B11F40ADE36DECB
:10371000CE01DF91CF910895CF93DF9396D6EC0140
:10372000892B09F4FEDDCE01DF91CF9108958091C0
:103730001702909118020895CF93DF938091800330
:10374000D0E0C0E08823D1F094D6EC01892BB1F40D
:10375000E8DD14DE8091170290911802E4D1E5D2E1
:10376000EC01892B59F485E893E0D5DD89E893E0F5
:10377000D2DD81E893E0CFDD10928003CE01DF91AE
:10378000CF910895EF92FF920F931F93CF93DF9302
:10379000EC017A018B010F5F1F4F0E9DA0010F9D61
:1037A000500D1E9D500D112470E060E00E944D2BC5
:1037B00090E080E0F0E0E0E02FEFE816F90639F461
:1037C000DF91CF911F910F91FF90EF9008951A8292
:1037D00019822883309711F0D283C1830196FE01AC
:1037E000C00FD11FEACFCF92DF92EF92FF920F93DB
:1037F0001F93CF93DF9306E814E00C7F43E050E083
:1038000069E172E08FE192E014D489E1E82E82E070
:10381000F82E9FE1C92E92E0D92EC5EED4E0D70153
:103820004D915D917D01F601619171916F01198357
:1038300008835D834C835B834A837F836E839B0114
:103840002F5F3F4F249FC001259F900D349F900D07
:103850001124998788870115110511F0C80192DF9D
:1038600088859985080F191F2A96FFE1EF16F2E067
:10387000FF06A9F6EFE8F3E084EFDF011D928A95D9
:10388000E9F710928E0310928D03109204051092A6
:103890000305109208051092070510920605109274
:1038A000050510920A051092090510920C05109258
:1038B0000B0510920E0510920D0510921205109234
:1038C00011051092100510920F0510921405109218
:1038D000130510921605109215051092E20410922D
:1038E000E1041092E4041092E30490E080E0DF91A0
:1038F000CF911F910F91FF90EF90DF90CF9008959F
:103900000097F1F0F894AFE1B2E0E5EEF4E030E0DA
:1039100020E04D915D9148175907A8F042815381ED
:103920004115510581F08AE0829FF001839FF00DDF
:103930001124EB51FB4F80819181009759F47894C9
:1039400090E080E008952F5F3F4F3A962330310595
:1039500001F7F5CFDC0111966D917C917183608345
:103960004150510953834283FC012193CF01789444
:103970000895009749F1DC018E91853041F4E09182
:10398000E304F091E4043097F9F0CD011994853007
:10399000D8F4282F30E0F8948FEF8C938AE0829F40
:1039A000F001839FF00D1124EB51FB4F8081918139
:1039B00012969C938E931197B183A08382819381F9
:1039C00001969383828378940895CF92DF92EF9249
:1039D000FF920F931F93CF93DF939C0182E993E0B3
:1039E0008C7F4115510509F49BC02115310509F45F
:1039F00097C06115710509F493C07A01AB01B90153
:103A00006D5F7F4F6C7F9B012F5F3F4F249F800135
:103A1000259F100D349F100D1124F894209103055B
:103A200030910405232B59F420910B0530910C059E
:103A30002115310569F12017310708F058C0209190
:103A40000D0530910E05232B91F420910B0530913B
:103A50000C05820F931F2091150530911605211535
:103A6000310509F441C02017310708F056C0789499
:103A7000CFEFDFEF86EF9FEFF701D183C083DF91B8
:103A8000CF911F910F91FF90EF90DF90CF9008950D
:103A9000C3E0D0E0C0908D03D0908E0321EF30E0E2
:103AA0002C193D092017310710F32AE02C9FF00153
:103AB0002D9FF00D1124EB51FB4F91838083558393
:103AC00044835383428377836683118700870097FB
:103AD00009F058DE0C0D1D1D10938E0300938D030D
:103AE000789490E080E0C8CFC4E0D0E0D3CFC3E0CA
:103AF000D0E02AE02C9FF0012D9FF00D1124EB5116
:103B0000FB4F918380835583448353834283778320
:103B10006683009729F336DEE3CFC4E0D0E0E9CF37
:103B20008FEF9FEFACCF9C010397029708F069C01D
:103B3000F89484E09AE0482F50E0241735070CF4FD
:103B40004DC091E08AE0829FF001839FF00D112427
:103B5000EB51FB4F11821082158214821382128264
:103B6000178216829923B1F1809103059091040583
:103B7000892BA9F420910B0530910C0521153105F5
:103B800071F080918D0390918E03821B930B909323
:103B90008E0380938D0310920C0510920B0580917B
:103BA0000D0590910E05892BA9F4209115053091F2
:103BB00016052115310571F080918D0390918E03CA
:103BC000821B930B90938E0380938D0310921605A6
:103BD00010921505789490E080E00895949FF0018C
:103BE000959FF00D1124EB51FB4F40815181452BE6
:103BF00031F440855185452B11F481509CCF90E0E4
:103C0000A1CF8FEF9FEF08954115510549F100971E
:103C100039F16115710521F1F8942091E104309199
:103C2000E204232BB9F42091E3043091E404232B24
:103C300089F49093E2048093E1047093E404609328
:103C4000E304789425E030E090E080E0FA013183ED
:103C50002083089578942FEF3FEF86EF9FEFF6CF04
:103C60008FEF9FEF0895059769F4F8941092E2049E
:103C70001092E1041092E4041092E304789490E02E
:103C800080E008958FEF9FEF08956115710519F495
:103C9000F0E0E0E011C08530910581F4E091E104AD
:103CA000F091E2043097A1F3CB01019619950097AA
:103CB00079F3FC0185E08193CF0108959C012350A5
:103CC00031092230310520F72AE0289FD001299FB1
:103CD000B00D1124AB51BB4F2D913C911197232B6B
:103CE000B9F216962D913C9117972617370780F257
:103CF000F89412962D913C9113972115310529F0D6
:103D0000ED91FC911197309711F47894C1CF4181D6
:103D1000528111965C934E932150310913963C9336
:103D20002E93129781937894C7CFE3E8F4E08EE561
:103D3000DF011D928A95E9F7EFE8F3E084EFDF01F8
:103D40001D928A95E9F710928E0310928D03E5EE8D
:103D5000F4E082E3DF011D928A95E9F7E1EEF4E0F9
:103D600084E0DF011D928A95E9F790E080E00895F4
:103D7000CF93DF93C0912502D0912602CF3FDC077D
:103D800059F420D4909326028093250297FF09C00E
:103D9000D0932602C093250284EF9FEFDF91CF914D
:103DA000089590E080E0FACF8230910528F4809366
:103DB000170590E080E008958FEF9FEF08954F92F0
:103DC0005F926F927F92AF92BF92CF92DF92EF920B
:103DD000FF920F931F93CF93DF931F921F92CDB744
:103DE000DEB71A821982009709F478C0611571054F
:103DF00009F474C0209125023091260207EF1FEFCD
:103E00002F3F3F4F09F444C06B015C01412C512C02
:103E10003201F12CE12C10E000E09E012F5F3F4FBA
:103E2000A6014E195F09B5016E0D7F1D8091250217
:103E30009091260226D4892B09F04AC089819A8163
:103E4000009741F4E114F10429F42091170522238D
:103E500009F441C0E80EF91EEC14FD04C8F480E832
:103E6000481684E858068EE16806710418F560E08B
:103E700070E0CB01AFD62AE0420E511C611C711CD0
:103E80000A3F4FEF140721F0043F8FEF1807A1F40A
:103E9000C8010F900F90DF91CF911F910F91FF906C
:103EA000EF90DF90CF90BF90AF907F906F905F903A
:103EB0004F90089501EF1FEF81E090E0013F2FEF59
:103EC000120711F090E080E0892B09F4A6CFE0CF33
:103ED00004EF1FEFDDCF0AEF1FEFDACF0FEF1FEF79
:103EE000D7CF4F925F926F927F92AF92BF92CF9255
:103EF000DF92EF92FF920F931F93CF93DF931F9266
:103F00001F92CDB7DEB71A821982009709F478C0E4
:103F10006115710509F474C02091250230912602C3
:103F200007EF1FEF2F3F3F4F09F444C06B015C01C7
:103F3000412C512C3201F12CE12C10E000E09E01CB
:103F40002F5F3F4FA6014E195F09B5016E0D7F1D12
:103F500080912502909126024AD3892B09F04AC00C
:103F600089819A81009741F4E114F10429F42091A8
:103F70001705222309F441C0E80EF91EEC14FD04D4
:103F8000C8F480E8481686E9580688E9680671048E
:103F900018F560E070E0CB011DD62AE0420E511CFE
:103FA000611C711C0E3F4FEF140721F0043F8FEF8F
:103FB0001807A1F4C8010F900F90DF91CF911F91C6
:103FC0000F91FF90EF90DF90CF90BF90AF907F90D8
:103FD0006F905F904F90089502EF1FEF81E090E0A7
:103FE000023F2FEF120711F090E080E0892B09F4D7
:103FF000A6CFE0CF04EF1FEFDDCF0EEF1FEFDACF3C
:104000000FEF1FEFD7CF80912502909126028F3FAF
:10401000980749F0CFD2892B49F48FEF9FEF909307
:1040200026028093250290E080E0089584EF9FEFC0
:104030000895CF92DF92EF92FF920F931F93CF9349
:10404000DF9321E04115510509F020E0415051096D
:1040500021112CC0DC01FB01D12CC12C21E022C09C
:104060003FEFC31AD30A7D010D911D91E701EA804C
:10407000FB80E016F106A8F420813181E280F38014
:10408000F182E08233832283ED90FC9011979D01B1
:1040900022503109E901F982E88211961C930E93AE
:1040A00020E03296C416D506D8F2D2CFDF91CF9158
:1040B0001F910F91FF90EF90DF90CF900895FC013A
:1040C000680F791F90E080E0E617F70709F408957C
:1040D0002191820F911DF8CF20911805211113C055
:1040E00047DE009791F410921E0510921D05109264
:1040F0001C0510921B0510921A051092190521E05B
:1041000020931805089584EF9FEF0895AF92BF9212
:10411000CF92DF92EF92FF920F931F93CF93DF9393
:10412000009709F460C04630510508F45CC0209146
:104130001805C7EFDFEF222309F449C08C01060FF1
:10414000171FF801C080D180C114D10409F44EC0FA
:1041500096012A5F3F4F4217530708F447C07C017E
:1041600080911D0590911E0593838283B6016C5F3B
:104170007F4F5801A60EB71EC801A1DFF50191833C
:10418000808364E070E0C8011ADEEC01892BF9F449
:1041900081E090E009DEB601C801049610DEEC0172
:1041A000892B91F462E070E0C50109DEEC01892BF6
:1041B00059F4C701DEDB80911D0590911E05019623
:1041C00090931E0580931D0590E080E0EDDDCE010B
:1041D000DF91CF911F910F91FF90EF90DF90CF90E3
:1041E000BF90AF900895CFEFDFEFF1CFC9EFDFEFD2
:1041F000EECF6F927F928F929F92AF92BF92CF92AB
:10420000DF92EF92FF920F931F93CF93DF9300D033
:104210001F92CDB7DEB7009709F47AC0411551055A
:1042200009F476C02091180507EF1FEF222309F447
:104230004DC03A017B015C0164E070E0CE01019663
:1042400050DE8C01892B09F041C009811A810115CA
:10425000110509F45AC0480186E0880E911CB70187
:10426000680D791D80912702909128020EDD6C0166
:10427000009709F450C0A70170E060E00E944D2B48
:1042800089819A81AB81BC81EC0CFD1CF701819383
:104290009193A193B1937F0181E090E085DDB80116
:1042A000C7011FDE892B31F562E070E0C701800F86
:1042B000911F17DE8C01892BE9F490E080E074DD1A
:1042C000F501D182C082F30191828082C8010F90F2
:1042D0000F900F900F90DF91CF911F910F91FF9052
:1042E000EF90DF90CF90BF90AF909F908F907F9096
:1042F0006F90089590E080E057DDF5011182108203
:10430000F30111821082C60134DB09EF1FEFDECF0B
:104310000FEF1FEFDBCF06EF1FEFD8CF0097A1F015
:104320004115510589F02115310571F0F9013696D5
:104330006E177F0748F0DC012D933C93DA01ED9373
:10434000FC9390E080E008958FEF9FEF0895AF9287
:10435000BF92CF92DF92EF92FF920F931F93CF9372
:10436000DF93009709F45FC04115510509F45BC064
:104370006530710508F457C020911805C7EFDFEFCD
:10438000222391F1DC01CD90DC9011971296ED91F2
:10439000FC9196012A5F3F4FC9EFDFEF26173707E1
:1043A00019F5C0911905D0911A05209749F521E01A
:1043B00030E030931A05209319057A018C01F093AF
:1043C0001C05E0931B055601B4E0AB0EB11CB50112
:1043D00076DE0A0D1B1DF8012081318182179307BB
:1043E00029F5D701CD92DC92CE01DF91CF911F91BB
:1043F0000F91FF90EF90DF90CF90BF90AF90089516
:1044000020911B0530911C052F5F3F4FCCEFDFEF54
:10441000E217F30790F2CBEFDFEF2E173F0768F2BA
:10442000D0E0C0E0CACFCFEFDFEFDECFC3EFDFEFEA
:10443000DBCF84E090E0089582E090E008958CEF77
:104440009FEF089580E290E0089510921E0510926B
:104450001D0510921C0510921B0510921A05109252
:10446000190590E080E00895909328028093270238
:10447000089580911805882391F0C5DD009789F48F
:1044800010921E0510921D0510921C0510921B051E
:1044900010921A051092190510921805089590E0CF
:1044A00080E00895009749F06115710531F0FC0135
:1044B00011821082FB01118210820895F3CF26E051
:1044C00030E040E855E260E070E090E080E000C05D
:1044D0008130910569F01CF4892B39F00895823000
:1044E000910549F0039751F008958FE295E0CBC50F
:1044F0008CEC95E0FCCF89E696E0F9CF86E097E07A
:10450000F6CF1F920F920FB60F9211240BB60F9297
:104510002F933F934F935F936F937F938F939F93CB
:10452000AF93BF93EF93FF938FE89DEF9093250197
:1045300080932401B9D0FF91EF91BF91AF919F91EA
:104540008F917F916F915F914F913F912F910F903C
:104550000BBE0F900FBE0F901F9018958FE89DEF28
:104560009093250180932401A3E7B0E08C918E7F86
:104570008C93E0E2F1E080818C7F8083E1E2F1E0E6
:104580008081877E808380818460808380818C7F2E
:1045900080838C9181608C930895E3E7F0E08081C3
:1045A00090819E7F90838170089581E0089510929C
:1045B0001F05089568EE73E080E090E00BD390E073
:1045C00080E0089526E030E040E050E16EE070E0E9
:1045D00090E080E07DDF8FE295E08BD4892B21F0A5
:1045E0008FE295E0A0D4F7CF90E080E00895CF92DD
:1045F000DF92EF92FF920F931F93CF93DF936B01A4
:104600007A01E901198218828FE295E072D4892B30
:1046100069F18601CC24C39482E0D82E80911F05D5
:10462000811110C08FE295E07ED40297B9F7C09255
:104630001F05F801D1928F01888199810196998394
:104640008883ECCF888199818E159F0578F48FE25D
:1046500095E069D48F3F9807A9F3F80181938F0102
:1046600088819981019699838883ECCF90E080E0DE
:10467000DF91CF911F910F91FF90EF90DF90CF903E
:1046800008950F931F93CF93DF93EA0189018FE27F
:1046900095E089D7F801D183C08390E080E0DF9175
:1046A000CF911F910F910895CF92DF92EF92FF92D9
:1046B0000F931F93CF93DF931F921F92CDB7DEB757
:1046C0008091220591E0980F90932205882399F01C
:1046D00021E030E0309325052093240580932205C6
:1046E0000F900F90DF91CF911F910F91FF90EF905E
:1046F000DF90CF900895CE0101960E9477037894C1
:1047000000912A0210912B02F801C28CD38CE48C08
:10471000F58C0E947F03B701A60190E080E00E9423
:10472000EA02F894809122058150809322058A81C3
:10473000882389F08091210591E0980F90932105BD
:10474000882349F021E030E03093250520932405AB
:1047500080932105C5CF80912105882309F4C0CF1E
:10476000809123058111BCCF81E08093230578944B
:10477000F80122A133A144A155A1AAE0B0E06BD772
:104780006B017C010E94B403B701A60181E090E0B7
:104790000E94EA02F89480912105815080932105BE
:1047A000809123058150809323059ACF0F931F9307
:1047B000CF93DF931092AD071092AC0741D27FDE0A
:1047C000C0912A02D0912B02198218826FEF7FEFDD
:1047D000CB010E946C0370E060E090E080E00E94FA
:1047E000EF01009709F03AC00E94FC03F894789416
:1047F000BE01685D7F4F8A819B810E94F201892BF7
:1048000059F46FEF7FEFCB010E9481020E94660393
:10481000882311F081E08CA7F894A0DE0E94690340
:10482000882311F080E008C00E9466038111FACF4E
:1048300081E09CA59111F6CF8093AC0778940E94FB
:10484000830A8C0178948091AC0781110CC00E947E
:1048500062040E944C03F89490E080E0DF91CF91D5
:104860001F910F9108950E944A030E9469038823B3
:10487000D9F081E08093AD079091AD0781E091116F
:1048800080E08093AC078091AD07811186DE013016
:10489000110529F40E94830A892B09F488DE0E94FD
:1048A000830A8C0182DECFCF0E9466038111E1CFA3
:1048B00081E09CA59111DECF80E0DCCF40D008F4F0
:1048C00081E00895E89409C097FB3EF490958095A7
:1048D000709561957F4F8F4F9F4F9923A9F0F92FC6
:1048E00096E9BB279395F695879577956795B79544
:1048F000F111F8CFFAF4BB0F11F460FF1BC06F5F2A
:104900007F4F8F4F9F4F16C0882311F096E911C03B
:10491000772321F09EE8872F762F05C0662371F05C
:1049200096E8862F70E060E02AF09A95660F771F70
:10493000881FDAF7880F9695879597F90895990F4C
:104940000008550FAA0BE0E8FEEF16161706E80759
:10495000F907C0F012161306E407F50798F0621B7A
:10496000730B840B950B39F40A2661F0232B242B4F
:10497000252B21F408950A2609F4A140A6958FEF6E
:10498000811D811D0895DBDF08F48FEF08950BD0A2
:1049900078C069D028F06ED018F0952309F05AC07D
:1049A0005FC01124A2C07ED0A0F3959FD1F3950FD4
:1049B00050E0551F629FF001729FBB27F00DB11DA3
:1049C000639FAA27F00DB11DAA1F649F6627B00D33
:1049D000A11D661F829F2227B00DA11D621F739F1C
:1049E000B00DA11D621F839FA00D611D221F749F2A
:1049F0003327A00D611D231F849F600D211D822F71
:104A0000762F6A2F11249F5750408AF0E1F08823B7
:104A10004AF0EE0FFF1FBB1F661F771F881F9150C4
:104A20005040A9F79E3F510570F014C05EC05F3F33
:104A3000ECF3983EDCF3869577956795B795F795F7
:104A4000E7959F5FC1F7FE2B880F911D969587957F
:104A500097F9089597F99F6780E870E060E00895FE
:104A60009FEF80EC089500240A9416161706180686
:104A70000906089500240A94121613061406050662
:104A80000895092E0394000C11F4882352F0BB0FF3
:104A900040F4BF2B11F460FF04C06F5F7F4F8F4F56
:104AA0009F4F089557FD9058440F551F59F05F3F91
:104AB00071F04795880F97FB991F61F09F3F79F040
:104AC00087950895121613061406551FF2CF4695C2
:104AD000F1DF08C0161617061806991FF1CF869544
:104AE0007105610508940895E894BB276627772728
:104AF000CB0197F908951F920F920FB60F921124D0
:104B00002F933F938F939F93AF93BF9380912705EC
:104B100090912805A0912905B0912A05309126058C
:104B200023E0230F2D3758F50196A11DB11D2093C9
:104B300026058093270590932805A0932905B09317
:104B40002A0580912B0590912C05A0912D05B091FF
:104B50002E050196A11DB11D80932B0590932C0568
:104B6000A0932D05B0932E05BF91AF919F918F918A
:104B70003F912F910F900FBE0F901F90189526E830
:104B8000230F0296A11DB11DD2CF3FB7F89480919B
:104B90002B0590912C05A0912D05B0912E0526B5E1
:104BA000A89B05C02F3F19F00196A11DB11D3FBF65
:104BB000BA2FA92F982F8827BC01CD01620F711D34
:104BC000811D911D42E0660F771F881F991F4A952E
:104BD000D1F708958F929F92AF92BF92CF92DF92BA
:104BE000EF92FF926B017C01D0DF4B015C01C1149D
:104BF000D104E104F104D9F003D5C7DF68197909BC
:104C00008A099B09683E73408105910580F321E084
:104C1000C21AD108E108F10888EE880E83E0981ED8
:104C2000A11CB11CC114D104E104F10431F7FF90BF
:104C3000EF90DF90CF90BF90AF909F908F900895AE
:104C4000789484B5826084BD84B5816084BD85B567
:104C5000826085BD85B5816085BDEEE6F0E080812E
:104C600081608083E1E8F0E010828081826080834F
:104C7000808181608083E0E8F0E0808181608083D2
:104C8000E1EBF0E0808184608083E0EBF0E0808104
:104C900081608083E1E9F0E08081826080838081AF
:104CA00081608083E0E9F0E0808181608083E1EAD7
:104CB000F0E0808182608083808181608083E0EA8F
:104CC000F0E0808181608083E1E2F1E080818260B8
:104CD0008083808181608083E0E2F1E08081816077
:104CE0008083EAE7F0E08081846080838081826055
:104CF000808380818160808380818068808310923E
:104D0000C10008958150823108F059C0E82FF0E0C9
:104D10008827E357F94D8F4F96C4AD26B1269F26BD
:104D2000A526A926DF26B426BA26BE26C426C8266E
:104D3000CC26D226D626DF26DA26E026E426809167
:104D400080008F77809380000895809180008F7D10
:104D5000F9CF80918000877FF5CF84B58F7784BDB0
:104D6000089584B58F7DFBCF8091B0008F778093BD
:104D7000B00008958091B0008F7DF9CF80919000B0
:104D80008F77809390000895809190008F7DF9CF68
:104D900080919000877FF5CF8091A0008F778093DE
:104DA000A00008958091A0008F7DF9CF8091A00090
:104DB000877FF5CF809120018F7780932001089520
:104DC000809120018F7DF9CF80912001877FF5CFE1
:104DD000CF93DF9390E0FC01E65DFE4F2491805974
:104DE0009E4FFC0184918823C9F090E0880F991FA1
:104DF000FC01E651FE4FA591B491FC01E053FE4F3A
:104E0000C591D49161110DC09FB7F8948C912095F4
:104E100082238C938881282328839FBFDF91CF91A1
:104E20000895623051F49FB7F8943C91822F809599
:104E300083238C93E8812E2BEFCF8FB7F894EC91DE
:104E40002E2B2C938FBFEACF1F93CF93DF93282F66
:104E500030E0F901EC51FF4F8491F901E65DFE4F1E
:104E6000D491F901E059FE4FC491CC23A1F0162F43
:104E7000811148DFEC2FF0E0EE0FFF1FE053FE4FF3
:104E8000A591B4918FB7F894EC91111108C0D09509
:104E9000DE23DC938FBFDF91CF911F910895DE2B2E
:104EA000F8CF0F931F9390E0FC01E65DFE4F7491E5
:104EB000FC01E059FE4FE4916111672FF0E0EE0F25
:104EC000FF1FEA54FE4F8591949189019A013F702A
:104ED000462F672F0E9438016115710581059105E4
:104EE00029F06F5F7F4F8F4F9F4F9F701F910F91E2
:104EF0000895FC01918D228D892F90E0805C9F4F59
:104F0000821B91098F7399270895FC01918D828DE1
:104F1000981731F0828DE80FF11D858D90E008958E
:104F20008FEF9FEF0895FC01918D828D981761F0AE
:104F3000A28DAE0FBF2FB11D5D968C91928D9F5F9C
:104F40009F73928F90E008958FEF9FEF0895FC017B
:104F5000538D448D252F30E0842F90E0821B930BDE
:104F6000541710F0CF96089501970895FC01A48D71
:104F7000A80FB92FB11DA35ABF4F2C91848D90E07B
:104F800001968F739927848FA689B7892C93A0895E
:104F9000B1898C91837080648C93938D848D9813E8
:104FA00006C00288F389E02D80818F7D808308957B
:104FB000CF93DF93EC01888D8823B1F0AA89BB8958
:104FC000E889F9898C9185FD03C0808186FD0CC03C
:104FD0000FB607FCF7CF8C9185FFF2CF808185FF5C
:104FE000EDCFCE01C3DFEACFDF91CF910895EF92ED
:104FF000FF920F931F93CF93DF93EC0181E0888F93
:105000009B8D8C8D98131AC0E889F989808185FF62
:1050100015C09FB7F894EE89FF896083E889F98904
:1050200080818370806480839FBF81E090E0DF9106
:10503000CF911F910F91FF90EF900895F62E0B8D59
:1050400010E00F5F1F4F0F731127E02E8C8D8E1114
:105050000BC00FB607FCFACFE889F989808185FF7C
:10506000F5CFCE0183DFF2CFEB8DEC0FFD2FF11DDD
:10507000E35AFF4FF0829FB7F8940B8FEA89FB89C0
:1050800080818062D0CFCF92DF92EF92FF921F9308
:10509000CF93DF93EC016A017B01122FE889F98934
:1050A00082E08083C11481EED806E104F10499F016
:1050B00060E079E08DE390E0A7019601A2D2215053
:1050C000310941095109569547953795279521157D
:1050D00080E1380790F0E889F989108260E874E887
:1050E0008EE190E0A70196018CD22150310941094F
:1050F00051095695479537952795EC85FD85308361
:10510000EE85FF852083188EEC89FD891083EA895E
:10511000FB89808180618083EA89FB898081886046
:105120008083EA89FB89808180688083EA89FB89A2
:1051300080818F7D8083DF91CF911F91FF90EF90D1
:10514000DF90CF9008951F920F920FB60F92112407
:105150000BB60F922F938F939F93EF93FF93E09152
:105160003F05F09140058081E0914505F0914605AD
:1051700082FD1DC09081809148058F5F8F732091C3
:105180004905821741F0E0914805F0E0E15DFA4FF2
:10519000958F80934805FF91EF919F918F912F916B
:1051A0000F900BBE0F900FBE0F901F90189580812F
:1051B000F2CF1F920F920FB60F9211240BB60F92DF
:1051C0002F933F934F935F936F937F938F939F930F
:1051D000AF93BF93EF93FF938FE295E0C7DEFF910C
:1051E000EF91BF91AF919F918F917F916F915F915F
:1051F0004F913F912F910F900BBE0F900FBE0F90CC
:105200001F901895EFE2F5E01382128288EE93E08A
:10521000A0E0B0E084839583A683B7838EEA92E012
:105220009183808385EC90E09587848784EC90E07F
:105230009787868780EC90E0918B808B81EC90E063
:10524000938B828B82EC90E0958B848B86EC90E044
:10525000978B868B118E128E138E148E08951F924B
:105260000F920FB60F9211240BB60F922F938F93BC
:105270009F93EF93FF93E091DC05F091DD05808132
:10528000E091E205F091E30582FD1DC090818091DF
:10529000E5058F5F8F732091E605821741F0E0915D
:1052A000E505F0E0E453FA4F958F8093E505FF9113
:1052B000EF919F918F912F910F900BBE0F900FBE8A
:1052C0000F901F9018958081F2CF1F920F920FB60A
:1052D0000F9211240BB60F922F933F934F935F932E
:1052E0006F937F938F939F93AF93BF93EF93FF93AE
:1052F0008CEC95E03BDEFF91EF91BF91AF919F91D8
:105300008F917F916F915F914F913F912F910F906E
:105310000BBE0F900FBE0F901F901895ECECF5E0B0
:105320001382128288EE93E0A0E0B0E0848395833C
:10533000A683B7838EEA92E0918380838DEC90E020
:10534000958784878CEC90E09787868788EC90E03F
:10535000918B808B89EC90E0938B828B8AEC90E030
:10536000958B848B8EEC90E0978B868B118E128EB2
:10537000138E148E08951F920F920FB60F92112460
:105380000BB60F922F938F939F93EF93FF93E09120
:105390007906F0917A068081E0917F06F09180068F
:1053A00082FD1DC09081809182068F5F8F73209156
:1053B0008306821741F0E0918206F0E0E759F94F49
:1053C000958F80938206FF91EF919F918F912F91FE
:1053D0000F900BBE0F900FBE0F901F9018958081FD
:1053E000F2CF1F920F920FB60F9211240BB60F92AD
:1053F0002F933F934F935F936F937F938F939F93DD
:10540000AF93BF93EF93FF9389E696E0AFDDFF91F3
:10541000EF91BF91AF919F918F917F916F915F912C
:105420004F913F912F910F900BBE0F900FBE0F9099
:105430001F901895E9E6F6E01382128288EE93E059
:10544000A0E0B0E084839583A683B7838EEA92E0E0
:105450009183808385ED90E09587848784ED90E04B
:105460009787868780ED90E0918B808B81ED90E02F
:10547000938B828B82ED90E0958B848B86ED90E010
:10548000978B868B118E128E138E148E08951F9219
:105490000F920FB60F9211240BB60F922F938F938A
:1054A0009F93EF93FF93E0911607F0911707808188
:1054B000E0911C07F0911D0782FD1DC09081809135
:1054C0001F078F5F8F7320912007821741F0E091B3
:1054D0001F07F0E0EA5FF84F958F80931F07FF9159
:1054E000EF919F918F912F910F900BBE0F900FBE58
:1054F0000F901F9018958081F2CF1F920F920FB6D8
:105500000F9211240BB60F922F933F934F935F93FB
:105510006F937F938F939F93AF93BF93EF93FF937B
:1055200086E097E023DDFF91EF91BF91AF919F91CE
:105530008F917F916F915F914F913F912F910F903C
:105540000BBE0F900FBE0F901F901895E6E0F7E08E
:105550001382128288EE93E0A0E0B0E0848395830A
:10556000A683B7838EEA92E09183808385E391E0FE
:105570009587848784E391E09787868780E391E02D
:10558000918B808B81E391E0938B828B82E391E01E
:10559000958B848B86E391E0978B868B118E128E90
:1055A000138E148E0895AF92BF92CF92DF92EF9236
:1055B000FF920F931F93CF93DF936C017B018B01BD
:1055C000040F151FEB015E01AE18BF08C017D1070D
:1055D00059F06991D601ED91FC910190F081E02D97
:1055E000C6011995892B79F7C501DF91CF911F91DC
:1055F0000F91FF90EF90DF90CF90BF90AF90089504
:105600000895A1E21A2EAA1BBB1BFD010DC0AA1F03
:10561000BB1FEE1FFF1FA217B307E407F50720F01B
:10562000A21BB30BE40BF50B661F771F881F991F96
:105630001A9469F760957095809590959B01AC01DF
:10564000BD01CF010895EE0FFF1F881F8BBF07908C
:10565000F691E02D199409D0A59F900DB49F900D5F
:10566000A49F800D911D11240895A29FB001B39FA6
:10567000C001A39F700D811D1124911DB29F700D5B
:10568000811D1124911D0895FB01DC0102C00190D0
:105690000D9241505040D8F70895DC0101C06D9340
:0C56A00041505040E0F70895F894FFCF0F
:1056AC00FEFFFFFF01E8030000FFFF00000000FF0A
:1056BC00FFFFFFFFFFFFFFFFFF01000100010020C4
:1056CC000030000800FFFFFFFF01D002FF00D80CE4
:1056DC00040DFE00BE0C3F0AFD00500CAA0CFC0091
:1056EC00960C3F0AF600870D3F0AF5005D0CC60DBF
:1056FC00F400500DDD0DDE000B12A514DD007A1345
:10570C003F0ADA00910F990FD900C014A90FE200DB
:10571C00790E3F0AE100B40E3F0AE000290F3F0A60
:10572C00D60095183F0AD50036113F0AD400C21096
:10573C003F0AD30033103F0AC000B80F3F0AF000F5
:10574C00FE183F0AED00BB183F0A00000000F727C7
:0C575C00D32AA727D82779279327852771
:00000001FF
