:10000000F8C0000086C70000AFC70000D8C70000D6
:100010000C940A080C9435080C9460080C948B0816
:100020000C94B60816C1000014C1000012C10000F3
:1000300010C100000EC100000CC100000AC1000088
:1000400008C1000006C1000004C1000002C1000098
:1000500000C10000FEC00000FCC000000C94E108DC
:10006000F8C000000C947D0C0C94B30CF2C000009E
:10007000F0C00000EEC00000ECC00000EAC00000CC
:10008000E8C00000E6C00000E4C00000E2C00000DC
:100090000C94090D0C943F0DDCC00000DAC0000088
:1000A000D8C00000D6C00000D4C00000D2C00000FC
:1000B000D0C00000CEC00000CCC00000CAC000000C
:1000C000C8C00000C6C000004AC500000C94950DD1
:1000D0000C94CB0DBEC000000C94210E0C94570E56
:1000E000B8C0000000000A0B02090C0D0E0807033F
:1000F00004010000000000000000000000000000FB
:1001000000000000000000000000000000000000EF
:1001100012111000000000000000000000000000AC
:100120000000000000000000000001021020200874
:100130000810204010204080020102010804020142
:1001400001020408102040808040201008040201B1
:10015000800402018040201008040201080402010A
:100160000102040810204080010204081020408091
:1001700005050505070508080808020202020A0A23
:100180000808040404040101010101010101030341
:10019000030303030303040707070C0C0C0C0C0CEC
:1001A0000C0C0202020206060606060606060B0BE9
:1001B0000B0B0B0B0B0B00002200250028002B0063
:1001C0002E003100340002010000050108010B017E
:1001D00000002100240027002A002D0030003300F9
:1001E00001010000040107010A01DC0C680DF40D97
:1001F000800E11241FBECFEFD1E2DEBFCDBF00E0E5
:100200000CBF12E0A0E0B2E0EAE2FEE100E00BBFCA
:1002100002C007900D92A434B107D9F725E0A4E4F9
:10022000B2E001C01D92A831B207E1F710E0C9EFBA
:10023000D0E000E006C021970109802FFE010E9456
:10024000FC0EC53FD10780E00807A9F7EED40C9457
:10025000130FD6CECF93DF93882349F0EB01815063
:100260000E948D0999838883DF91CF910895FB01C6
:1002700011821082F9CF0F931F938B019C0183E0B1
:1002800036952795179507958A95D1F7035B1D4FEE
:10029000462F477021E030E0F90102C0EE0FFF1F4A
:1002A0004A95E2F7AF01F80120812423CB010196A2
:1002B000211102C090E080E01F910F9108950F93EB
:1002C0001F938B019C0183E0369527951795079521
:1002D0008A95D1F7677081E090E001C0880F6A9538
:1002E000EAF7F801E35BFD4F2081452B31F480955F
:1002F000822380831F910F910895822BFACFCF9292
:10030000DF92EF92FF92CF93DF936B017C0160E06D
:1003100086E3C816D104E104F10490F486E38C0D61
:100320000E94EA0AE6012196AE01C701B601C7DFC5
:10033000CE01DF91CF91FF90EF90DF90CF900895A5
:100340008C2DEECF882341F08150682F70E090E033
:1003500080E050E040E0B3CF0895611102C00C94FA
:10036000EA0A6130E1F362E0FACF662319F061E056
:100370000C94260B60E0FCCFCF92DF92EF92FF92BD
:10038000CF93882331F16A017B01CFEFC80F20E0C2
:1003900030E0A901CB01B6017FD487FF10C0C701AF
:1003A000B601905882D49B01AC016C2F70E090E0B4
:1003B00080E0CF91FF90EF90DF90CF90ADC0C7016C
:1003C000B6016ED48C2FCF91FF90EF90DF90CF903D
:1003D000C7C7CF91FF90EF90DF90CF9008950F9314
:1003E0001F938B019C0183E0369527951795079500
:1003F0008A95D1F70C5B1D4F462F477021E030E006
:10040000F90102C0EE0FFF1F4A95E2F7AF01F801B4
:1004100020812423CB010196211102C090E080E0CD
:100420001F910F9108950F931F938B019C0183E0FF
:1004300036952795179507958A95D1F7677081E0CE
:1004400090E001C0880F6A95EAF7F801EC5BFD4F78
:100450002081452B31F48095822380831F910F9159
:100460000895822BFACF2F923F924F925F926F9214
:100470007F928F929F92AF92BF92CF92DF92EF9234
:10048000FF920F931F93CF93DF93D62EC72E782E14
:10049000692E49015A01280161E08D2D0E94EA0A66
:1004A000CD2DDC2D8E010F5F1F4FA8016D2D7C2DF2
:1004B000872D962DB8DF20E030E0A901C201B701F9
:1004C000AAD4181654F4C201B701EFD32B01C50109
:1004D000B401EBD3A201CE0122D0C801DF91CF91AC
:1004E0001F910F91FF90EF90DF90CF90BF90AF9052
:1004F0009F908F907F906F905F904F903F902F9044
:100500000895882341F08150682F70E090E080E0EA
:1005100050E040E088CF0895862FB90121C79C01A3
:10052000FC01EC51FF4FE491E150E231E0F4F0E0E6
:100530008827E256FD4F8F4F0C94FC0EB002B70295
:10054000BA02D102E602B302FB0207030B03220345
:1005500037034C0363037803B3028D03A403B90389
:1005600084B5806884BD60E0822F0C94260B84B52E
:100570008062F8CF809180008C7F826080938000C1
:1005800080918100807E8061682B60938100509310
:10059000870040938600809180008068809380006F
:1005A000E2CF809180008C7F826080938000809178
:1005B0008100807E8061682B60938100509387006A
:1005C00040938600809180008062E8CF8091800017
:1005D0008C7F82608093800080918100807E80612A
:1005E000682B609381005093870040938600809130
:1005F00080008860D3CF8091B00080688093B00085
:100600008091B100887F682B6093B100ACCF80915E
:10061000B0008062F3CF809190008C7F82608093E5
:10062000900080919100807E8061682B60939100A2
:10063000509397004093960080919000806880933B
:10064000900091CF809190008C7F82608093900089
:1006500080919100807E8061682B6093910050931F
:10066000970040939600809190008062E8CF80913F
:1006700090008C7F82608093900080919100807EBA
:100680008061682B6093910050939700409396008F
:10069000809190008860D3CF8091A0008C7F826091
:1006A0008093A0008091A100807E8061682B609380
:1006B000A1005093A7004093A6008091A0008068FD
:1006C0008093A00050CF8091A0008C7F82608093A7
:1006D000A0008091A100807E8061682B6093A100C2
:1006E0005093A7004093A6008091A0008062E8CFBD
:1006F0008091A0008C7F82608093A0008091A100F7
:10070000807E8061682B6093A1005093A700409386
:10071000A6008091A0008860D3CF809120018C7FBB
:1007200082608093200180912101807E8061682B0E
:10073000609321015093270140932601809120016D
:100740008068809320010FCF809120018C7F826090
:100750008093200180912101807E8061682B6093CD
:10076000210150932701409326018091200180624E
:10077000E8CF809120018C7F82608093200180915E
:100780002101807E8061682B6093210150932701B5
:1007900040932601809120018860D3CFCF93C1E0A0
:1007A00020E030E0A901609104027091050280917F
:1007B00006029091070270D2811101C0C0E08091C1
:1007C000FD04C827C093FD04CF910895CF93C1E0E5
:1007D00020E030E0A9016091080270910902809147
:1007E0000A0290910B0258D2811101C0C0E08091A1
:1007F000FC04C827C093FC04CF910895CF92DF92E8
:10080000EF92FF920F931F93CF93DF931F921F924C
:10081000CDB7DEB7C0900002D0900102E090020296
:10082000F0900302A70196016091E0047091E10449
:100830008091E2049091E3042FD2882341F0C0928A
:10084000E004D092E104E092E204F092E30466E373
:1008500070E080E090E00FDD9093DF048093DE0491
:1008600043E050E0BE016F5F7F4FF4DC6BE070E06F
:1008700080E090E0B4DD8C019093FB048093FA0457
:100880002091180230911902A981BA810E94040FA7
:1008900021E196958795779567952A95D1F770E030
:1008A00090E080E02ED2AB01BC01C80165DD609113
:1008B000FD048DE05ADD6091FC0488E056DD0F9068
:1008C0000F90DF91CF911F910F91FF90EF90DF90EC
:1008D000CF9008958F929F92AF92BF92DF92EF9246
:1008E000FF920F931F93CF93DF9384E090E0DED0CD
:1008F000C8EDD4E000E012E0F801828D8DA342E063
:1009000050E06EEC73E080E08BD2F801848D8CA314
:1009100042E050E066EE73E081E082D21882F80196
:1009200080819181A281B38188879987AA87BB87BB
:10093000812C912C5401839489829A82AB82BC824F
:1009400066E370E080E090E0DADC9F838E83DD2454
:10095000D394DD821C8E8D8E9E8EAF8EB8A2E12C3C
:10096000F12C8701A80197016BE070E080E090E036
:100970007ADD9BA38AA3D9A21C8A8D8A9E8AAF8A1C
:10098000B88E61E08DE0E9DCD98E1C868D869E866E
:10099000AF86B88A61E088E0E0DCD98ADF91CF9148
:1009A0001F910F91FF90EF90DF90BF90AF909F90BD
:1009B0008F9008958091D80481111DC081E08093AB
:1009C000D8048091D9049091DA04A091DB04B0910D
:1009D000DC040197A105B10571F48091DD04882341
:1009E00051F066E370E080E090E045DC9093DF0436
:1009F0008093DE04A7DC8091F40481112AC081E099
:100A00008093F4048091F5049091F604A091F7048A
:100A1000B091F8040197A105B105D9F48091F904CA
:100A20008823B9F06BE070E080E090E0D8DC909330
:100A3000FB048093FA0440E050E0BA019DDC6BE0D7
:100A400070E080E090E0CBDC9093FB048093FA04AC
:100A500058DD8091EC04811103C081E08093EC04A7
:100A60008091E404811103C081E08093E40408953F
:100A700060E070E080E89FE7089560E070E080E863
:100A80009FE7089560E070E080E89FEF089560E0E0
:100A900070E080E89FEF089560E070E080EC9FEFE9
:100AA000089560E070E080EC9FEF0895F5DF6093BB
:100AB0000A0570930B0580930C0590930D05F1DFEB
:100AC0006093FE047093FF048093000590930105EA
:100AD000CFDF609306057093070580930805909318
:100AE0000905CBDF6093020570930305809304052D
:100AF00090930505C7DF60930E0570930F058093F3
:100B0000100590931105C3DF6093120570931305D0
:100B10008093140590931505089526E030E040E891
:100B200055E260E070E090E080E000C08130910527
:100B300069F01CF4892B39F008958230910549F051
:100B4000039751F0089584E692E077C681E093E040
:100B5000FCCF8EE993E0F9CF8BE394E0F6CF1F92C0
:100B60000F920FB60F9211240BB60F922F933F9353
:100B70004F935F936F937F938F939F93AF93BF93A5
:100B8000EF93FF9386E09FEF9093250180932401DC
:100B900034D0FF91EF91BF91AF919F918F917F9151
:100BA0006F915F914F913F912F910F900BBE0F90DE
:100BB0000FBE0F901F90189586E09FEF9093250130
:100BC00080932401A3E7B0E08C918E7F8C93E0E2C8
:100BD000F1E080818C7F8083E1E2F1E08081877E9B
:100BE000808380818360808380818B7F80838C91F0
:100BF00081608C93089581E008958091580291E07E
:100C0000980F90935802882349F021E030E0309308
:100C10005A02209359028093580208957894EEDD89
:100C2000F894809158028150F6CFCF93DF931092C1
:100C30001705109216050FD370DFC0912F02D091C7
:100C400030021982188246DEF894B6DF2881398195
:100C500081E0232B09F080E0809316057894789446
:100C600080911605811107C0A5DEF89490E080E020
:100C7000DF91CF9108952881398181E0232B09F4F8
:100C800080E0809317059091170581E0911180E035
:100C900080931605B0DFE4CF71D008F481E00895A9
:100CA00004D06894B111B1C0089594D088F09F57D2
:100CB00090F0B92F9927B751A0F0D1F0660F771FA8
:100CC000881F991F1AF0BA95C9F712C0B13081F088
:100CD0009BD0B1E0089598C0672F782F8827B85F20
:100CE00039F0B93FCCF3869577956795B395D9F7E9
:100CF0003EF490958095709561957F4F8F4F9F4FF3
:100D00000895E89409C097FB3EF4909580957095FE
:100D100061957F4F8F4F9F4F9923A9F0F92F96E947
:100D2000BB279395F695879577956795B795F111BC
:100D3000F8CFFAF4BB0F11F460FF1BC06F5F7F4F59
:100D40008F4F9F4F16C0882311F096E911C077236B
:100D500021F09EE8872F762F05C0662371F096E874
:100D6000862F70E060E02AF09A95660F771F881F43
:100D7000DAF7880F9695879597F90895990F0008E7
:100D8000550FAA0BE0E8FEEF16161706E807F9075D
:100D9000C0F012161306E407F50798F0621B730BF8
:100DA000840B950B39F40A2661F0232B242B252B79
:100DB00021F408950A2609F4A140A6958FEF811D1C
:100DC000811D089557FD9058440F551F59F05F3FFE
:100DD00071F04795880F97FB991F61F09F3F79F05D
:100DE00087950895121613061406551FF2CF4695DF
:100DF000F1DF08C0161617061806991FF1CF869561
:100E00007105610508940895E894BB276627772744
:100E1000CB0197F90895B2DF08F48FEF0895089594
:100E2000883008F075C0E82FF0E0EE0FFF1FE25E9B
:100E3000FD4F718360838150873008F03CC0E82FFC
:100E4000F0E08827EA5DF84F8F4FD6C763072D077C
:100E5000350741074E076F077C07809169008C7F3B
:100E6000482B40936900E89A089580916900837F38
:100E7000440F551F440F551F482B40936900E99AB2
:100E80000895809169008F7C74E0440F551F7A9516
:100E9000E1F7482B40936900EA9A08958091690030
:100EA0008F7366E0440F551F6A95E1F7482B409316
:100EB0006900EB9A089580916A008C7F482B4093DB
:100EC0006A00EC9A089580916A00837F440F551F51
:100ED000440F551F482B40936A00ED9A0895809166
:100EE0006A008F7C24E0440F551F2A95E1F7482BB8
:100EF00040936A00EE9A089580916A008F7396E09D
:100F0000440F551F9A95E1F7482B40936A00EF9ADA
:100F100008951F920F920FB60F9211240BB60F92E5
:100F20002F933F934F935F936F937F938F939F93F1
:100F3000AF93BF93EF93FF93E0912202F0912302CE
:100F40001995FF91EF91BF91AF919F918F917F91F3
:100F50006F915F914F913F912F910F900BBE0F902A
:100F60000FBE0F901F9018951F920F920FB60F9201
:100F700011240BB60F922F933F934F935F936F9370
:100F80007F938F939F93AF93BF93EF93FF93E091E2
:100F90002402F09125021995FF91EF91BF91AF9135
:100FA0009F918F917F916F915F914F913F912F9181
:100FB0000F900BBE0F900FBE0F901F9018951F92B1
:100FC0000F920FB60F9211240BB60F922F933F93EF
:100FD0004F935F936F937F938F939F93AF93BF9341
:100FE000EF93FF93E0912602F09127021995FF916C
:100FF000EF91BF91AF919F918F917F916F915F9191
:101000004F913F912F910F900BBE0F900FBE0F90FD
:101010001F9018951F920F920FB60F9211240BB6C6
:101020000F922F933F934F935F936F937F938F9381
:101030009F93AF93BF93EF93FF93E0912802F091BA
:1010400029021995FF91EF91BF91AF919F918F91D7
:101050007F916F915F914F913F912F910F900BBEB8
:101060000F900FBE0F901F9018951F920F920FB602
:101070000F9211240BB60F922F933F934F935F93D0
:101080006F937F938F939F93AF93BF93EF93FF9350
:10109000E0911E02F0911F021995FF91EF91BF910F
:1010A000AF919F918F917F916F915F914F913F9100
:1010B0002F910F900BBE0F900FBE0F901F901895A1
:1010C0001F920F920FB60F9211240BB60F922F930F
:1010D0003F934F935F936F937F938F939F93AF93C0
:1010E000BF93EF93FF93E0912002F09121021995B5
:1010F000FF91EF91BF91AF919F918F917F916F91F0
:101100005F914F913F912F910F900BBE0F900FBEAB
:101110000F901F9018951F920F920FB60F921124E7
:101120000BB60F922F933F934F935F936F937F93E1
:101130008F939F93AF93BF93EF93FF93E0912A0216
:10114000F0912B021995FF91EF91BF91AF919F9173
:101150008F917F916F915F914F913F912F910F9060
:101160000BBE0F900FBE0F901F9018951F920F92FD
:101170000FB60F9211240BB60F922F933F934F93FC
:101180005F936F937F938F939F93AF93BF93EF93EF
:10119000FF93E0912C02F0912D021995FF91EF91B0
:1011A000BF91AF919F918F917F916F915F914F917F
:1011B0003F912F910F900BBE0F900FBE0F901F907D
:1011C00018951F920F920FB60F9211242F933F93F1
:1011D0008F939F93AF93BF9380915C0290915D0238
:1011E000A0915E02B0915F0230915B0223E0230F79
:1011F0002D3758F50196A11DB11D20935B028093F8
:101200005C0290935D02A0935E02B0935F028091B6
:10121000600290916102A0916202B0916302019616
:10122000A11DB11D8093600290936102A0936202A0
:10123000B0936302BF91AF919F918F913F912F9196
:101240000F900FBE0F901F90189526E8230F02965F
:10125000A11DB11DD2CF789484B5826084BD84B5C0
:10126000816084BD85B5826085BD85B5816085BDA1
:10127000EEE6F0E0808181608083E1E8F0E01082BA
:10128000808182608083808181608083E0E8F0E0FB
:10129000808181608083E1EBF0E0808184608083E5
:1012A000E0EBF0E0808181608083E1E9F0E0808123
:1012B00082608083808181608083E0E9F0E08081CA
:1012C00081608083E1EAF0E08081826080838081B8
:1012D00081608083E0EAF0E0808181608083E1E2E8
:1012E000F1E0808182608083808181608083E0E2A0
:1012F000F1E0808181608083EAE7F0E080818460B2
:10130000808380818260808380818160808380810E
:10131000806880831092C1000895863308F0865358
:1013200020917B00982F9870277F922B90937B00C1
:1013300020912E0290E4299F900111248770822B26
:1013400080937C0080917A00806480937A00809101
:101350007A0086FDFCCF8091780090917900089505
:101360001F93CF93DF93182FEB0161E033D12097C8
:1013700031F460E0812FDF91CF911F9167C1CF3FA2
:10138000D10511F461E0F6CFE12FF0E0EC51FF4F11
:10139000E491E150E23108F0B2C0F0E08827ED526C
:1013A000F64F8F4F29C5E509ED09F209FC09060A38
:1013B0007F0A100A180A200A2A0A340A3E0A4D0A2D
:1013C000570A7F0A610A6B0A750A84B5806884BD72
:1013D000C7BDDF91CF911F91089584B5806284BD10
:1013E000C8BDF7CF80918000806880938000D09343
:1013F0008900C0938800EDCF809180008062809347
:101400008000D0938B00C0938A00E3CF809180004E
:10141000886080938000D0938D00C0938C00D9CFDA
:101420008091B00080688093B000C093B300D1CFAA
:101430008091B00080628093B000C093B400C9CFA7
:1014400080919000806880939000D0939900C09321
:101450009800BFCF80919000806280939000D093DD
:101460009B00C0939A00B5CF8091900088608093D4
:101470009000D0939D00C0939C00ABCF8091A000C2
:1014800080688093A0008091A0008F7B8093A00053
:10149000D093A900C093A8009CCF8091A000806247
:1014A0008093A000D093AB00C093AA0092CF80910C
:1014B000A00088608093A000D093AD00C093AC00E2
:1014C00088CF80912001806880932001D0932901EA
:1014D000C09328017ECF80912001806280932001FB
:1014E000D0932B01C0932A0174CF80912001886092
:1014F00080932001D0932D01C0932C016ACFC03876
:10150000D1050CF03FCF35CF8150823108F059C062
:10151000E82FF0E08827E157F54F8F4F6DC4AF0AF1
:10152000B30AA10AA70AAB0AE10AB60ABC0AC00AB2
:10153000C60ACA0ACE0AD40AD80AE10ADC0AE20AB2
:10154000E60A809180008F778093800008958091D3
:1015500080008F7DF9CF80918000877FF5CF84B5A3
:101560008F7784BD089584B58F7DFBCF8091B000C7
:101570008F778093B00008958091B0008F7DF9CF70
:10158000809190008F7780939000089580919000D3
:101590008F7DF9CF80919000877FF5CF8091A0005B
:1015A0008F778093A00008958091A0008F7DF9CF60
:1015B0008091A000877FF5CF809120018F77809365
:1015C00020010895809120018F7DF9CF8091200125
:1015D000877FF5CFCF93DF9390E0FC01E65DFE4F70
:1015E000249180599E4FFC0184918823C9F090E09A
:1015F000880F991FFC01E053FE4FA591B491FC01A7
:10160000EA54FE4FC591D49161110DC09FB7F89473
:101610008C91209582238C938881282328839FBFD7
:10162000DF91CF910895623051F49FB7F8943C91C7
:10163000822F809583238C93E8812E2BEFCF8FB759
:10164000F894EC912E2B2C938FBFEACF1F93CF935E
:10165000DF93282F30E0F901EC51FF4F8491F9011D
:10166000E65DFE4FD491F901E059FE4FC491CC23C1
:10167000A1F0162F811148DFEC2FF0E0EE0FFF1FD5
:10168000EA54FE4FA591B4918FB7F894EC911111E3
:1016900008C0D095DE23DC938FBFDF91CF911F91DF
:1016A0000895DE2BF8CFFC01918D228D892F90E0DB
:1016B000805C9F4F821B91098F7399270895FC01CD
:1016C000918D828D981731F0828DE80FF11D858DF7
:1016D00090E008958FEF9FEF0895FC01918D828D2A
:1016E000981761F0A28DAE0FBF2FB11D5D968C9142
:1016F000928D9F5F9F73928F90E008958FEF9FEF81
:101700000895FC01538D448D252F30E0842F90E007
:10171000821B930B541710F0CF96089501970895EC
:10172000FC01A48DA80FB92FB11DA35ABF4F2C9156
:10173000848D90E001968F739927848FA689B7894D
:101740002C93A089B1898C91837080648C93938D44
:10175000848D981306C00288F389E02D80818F7DE7
:1017600080830895CF93DF93EC01888D8823B1F0B7
:10177000AA89BB89E889F9898C9185FD03C080819C
:1017800086FD0CC00FB607FCF7CF8C9185FFF2CF1A
:10179000808185FFEDCFCE01C3DFEACFDF91CF910E
:1017A0000895EF92FF920F931F93CF93DF93EC0175
:1017B00081E0888F9B8D8C8D98131AC0E889F989F8
:1017C000808185FF15C09FB7F894EE89FF896083FB
:1017D000E889F98980818370806480839FBF81E07C
:1017E00090E0DF91CF911F910F91FF90EF900895BE
:1017F000F62E0B8D10E00F5F1F4F0F731127E02E99
:101800008C8D8E110BC00FB607FCFACFE889F989D1
:10181000808185FFF5CFCE0183DFF2CFEB8DEC0F1A
:10182000FD2FF11DE35AFF4FF0829FB7F8940B8F05
:10183000EA89FB8980818062D0CFCF92DF92EF92DC
:10184000FF921F93CF93DF93EC016A017B01122F6C
:10185000E889F98982E08083C11481EED806E10429
:10186000F10499F060E079E08DE390E0A701960142
:10187000A1D2215031094109510956954795379513
:101880002795211580E1380790F0E889F9891082C1
:1018900060E874E88EE190E0A70196018BD22150B8
:1018A0003109410951095695479537952795EC859A
:1018B000FD853083EE85FF852083188EEC89FD89B8
:1018C0001083EA89FB89808180618083EA89FB89B2
:1018D000808188608083EA89FB8980818068808339
:1018E000EA89FB8980818F7D8083DF91CF911F9171
:1018F000FF90EF90DF90CF9008951F920F920FB658
:101900000F9211240BB60F922F938F939F93EF9307
:10191000FF93E0917402F09175028081E0917A0268
:10192000F0917B0282FD1DC0908180917D028F5FCE
:101930008F7320917E02821741F0E0917D02F0E0EA
:10194000EC59FD4F958F80937D02FF91EF919F9110
:101950008F912F910F900BBE0F900FBE0F901F9085
:1019600018958081F2CF1F920F920FB60F9211241B
:101970000BB60F922F933F934F935F936F937F9389
:101980008F939F93AF93BF93EF93FF9384E692E07F
:10199000C7DEFF91EF91BF91AF919F918F917F91A2
:1019A0006F915F914F913F912F910F900BBE0F90D0
:1019B0000FBE0F901F901895E4E6F2E0138212829A
:1019C00088EE93E0A0E0B0E084839583A683B7839C
:1019D00085E392E09183808385EC90E0958784870E
:1019E00084EC90E09787868780EC90E0918B808BE9
:1019F00081EC90E0938B828B82EC90E0958B848BD2
:101A000086EC90E0978B868B118E128E138E148E3F
:101A100008951F920F920FB60F9211240BB60F92DA
:101A20002F938F939F93EF93FF93E0911103F09186
:101A300012038081E0911703F091180382FD1DC00D
:101A4000908180911A038F5F8F7320911B038217FF
:101A500041F0E0911A03F0E0EF5FFC4F958F809327
:101A60001A03FF91EF919F918F912F910F900BBED1
:101A70000F900FBE0F901F9018958081F2CF1F928C
:101A80000F920FB60F9211240BB60F922F933F9324
:101A90004F935F936F937F938F939F93AF93BF9376
:101AA000EF93FF9381E093E03BDEFF91EF91BF91D5
:101AB000AF919F918F917F916F915F914F913F91E6
:101AC0002F910F900BBE0F900FBE0F901F90189587
:101AD000E1E0F3E01382128288EE93E0A0E0B0E050
:101AE00084839583A683B78385E392E09183808383
:101AF0008DEC90E0958784878CEC90E097878687C3
:101B000088EC90E0918B808B89EC90E0938B828BBA
:101B10008AEC90E0958B848B8EEC90E0978B868B93
:101B2000118E128E138E148E08951F920F920FB67F
:101B30000F9211240BB60F922F938F939F93EF93D5
:101B4000FF93E091AE03F091AF038081E091B40385
:101B5000F091B50382FD1DC090818091B7038F5F26
:101B60008F732091B803821741F0E091B703F0E042
:101B7000E256FC4F958F8093B703FF91EF919F91B1
:101B80008F912F910F900BBE0F900FBE0F901F9053
:101B900018958081F2CF1F920F920FB60F921124E9
:101BA0000BB60F922F933F934F935F936F937F9357
:101BB0008F939F93AF93BF93EF93FF938EE993E03F
:101BC000AFDDFF91EF91BF91AF919F918F917F9189
:101BD0006F915F914F913F912F910F900BBE0F909E
:101BE0000FBE0F901F901895EEE9F3E0138212825A
:101BF00088EE93E0A0E0B0E084839583A683B7836A
:101C000085E392E09183808385ED90E095878487DA
:101C100084ED90E09787868780ED90E0918B808BB4
:101C200081ED90E0938B828B82ED90E0958B848B9D
:101C300086ED90E0978B868B118E128E138E148E0C
:101C400008951F920F920FB60F9211240BB60F92A8
:101C50002F938F939F93EF93FF93E0914B04F09119
:101C60004C048081E0915104F091520482FD1DC02A
:101C70009081809154048F5F8F7320915504821757
:101C800041F0E0915404F0E0E55CFB4F958F8093C8
:101C90005404FF91EF919F918F912F910F900BBE64
:101CA0000F900FBE0F901F9018958081F2CF1F925A
:101CB0000F920FB60F9211240BB60F922F933F93F2
:101CC0004F935F936F937F938F939F93AF93BF9344
:101CD000EF93FF938BE394E023DDFF91EF91BF91AE
:101CE000AF919F918F917F916F915F914F913F91B4
:101CF0002F910F900BBE0F900FBE0F901F90189555
:101D0000EBE3F4E01382128288EE93E0A0E0B0E00F
:101D100084839583A683B78385E392E09183808350
:101D200085E391E09587848784E391E097878687B0
:101D300080E391E0918B808B81E391E0938B828BA8
:101D400082E391E0958B848B86E391E0978B868B81
:101D5000118E128E138E148E0895AF92BF92CF9271
:101D6000DF92EF92FF920F931F93CF93DF936C015B
:101D70007B018B01040F151FEB015E01AE18BF083C
:101D8000C017D10759F06991D601ED91FC910190EE
:101D9000F081E02DC6011995892B79F7C501DF91F6
:101DA000CF911F910F91FF90EF90DF90CF90BF9058
:101DB000AF900895A1E21A2EAA1BBB1BFD010DC016
:101DC000AA1FBB1FEE1FFF1FA217B307E407F507EB
:101DD00020F0A21BB30BE40BF50B661F771F881FC7
:101DE000991F1A9469F760957095809590959B015D
:101DF000AC01BD01CF010895EE0FFF1F881F8BBFFF
:101E00000790F691E02D1994A29FB001B39FC001F5
:101E1000A39F700D811D1124911DB29F700D811D16
:0A1E20001124911D0895F894FFCFDE
:101E2A00000080BF0000803F0000803F00000000EB
:101E3A000000803F000000000080000000000F0743
:101E4A000F070F070F070F070F070F070F07015697
:101E5A000200000000D10BAD0E810BB20B530B6DCB
:041E6A000B5F0B00FF
:00000001FF
