:1000000005C1000033C1000031C100002FC1000054
:100010002DC100002BC1000029C1000027C1000034
:1000200025C1000023C1000021C100001FC1000044
:100030001DC100001BC1000019C1000017C1000054
:1000400015C1000013C1000011C100000FC1000064
:100050000DC100000BC1000009C1000085C50000F2
:1000600005C100000C9481080C94B708FFC0000083
:10007000FDC00000FBC00000F9C00000F7C0000098
:10008000F5C00000F3C00000F1C00000EFC00000A8
:100090000C940D090C944309E9C00000E7C000006E
:1000A000E5C00000E3C00000E1C00000DFC00000C8
:1000B000DDC00000DBC00000D9C00000D7C00000D8
:1000C000D5C00000D3C0000063C200000C949909A1
:1000D0000C94CF09CBC000000C94250A0C945B0A49
:1000E000C5C0000000000A0B02090C0D0E08070332
:1000F00004010000000000000000000000000000FB
:1001000000000000000000000000000000000000EF
:1001100012111000000000000000000000000000AC
:100120000000000000000000000001021020200874
:100130000810204010204080020102010804020142
:1001400001020408102040808040201008040201B1
:10015000800402018040201008040201080402010A
:100160000102040810204080010204081020408091
:1001700005050505070508080808020202020A0A23
:100180000808040404040101010101010101030341
:10019000030303030303040707070C0C0C0C0C0CEC
:1001A0000C0C0202020206060606060606060B0BE9
:1001B0000B0B0B0B0B0B000020002300260029006B
:1001C0002C002F003200000100000301060109018C
:1001D00000002200250028002B002E0031003400F2
:1001E00002010000050108010B01000021002400AC
:1001F00027002A002D003000330001010000040117
:1002000007010A01E0086C09F809840A11241FBEDD
:10021000CFEFD1E2DEBFCDBF00E00CBF12E0A0E027
:10022000B2E0E4E1F6E100E00BBF02C007900D92FE
:10023000A832B107D9F724E0A8E2B2E001C01D92CC
:10024000A13DB207E1F711E0C6E0D1E000E006C051
:1002500021970109802FFE010E94000BC230D107B7
:1002600080E00807A9F735D20C94080BC9CE6111BC
:1002700001C08CC56130E9F362E0FBCF662311F069
:1002800061E0C0C560E0FDCFEAD521E0019709F04B
:1002900020E0822F0895FC0191E080912B028111D2
:1002A00090E091830895CF92DF92EF92FF926B01DD
:1002B0007C019F7720E030E040E859E5B9D287FF24
:1002C00026C020E030E040E05FE3C701B601E5D39F
:1002D00087FD0CC020E030E040E05FE3C701B601DD
:1002E00030D2FF90EF90DF90CF900FC320E030E04E
:1002F00040E05FEBC701B601D0D318167CF420E0D4
:1003000030E0A901C701B601CCD36B017C01C70164
:10031000B601FF90EF90DF90CF90089520E030E09D
:1003200040E05FE3C701B6010BD2FF90EF90DF9092
:10033000CF906BC2CF92DF92EF92FF9280912B020F
:100340008F5F843150F580932B02C0900002D090D3
:100350000102E0900202F0900302A7019601609171
:10036000B7047091B8048091B9049091BA0460D236
:10037000882341F0C092B704D092B804E092B90447
:10038000F092BA0483E080DF61E0811160E08CE0EC
:10039000FF90EF90DF90CF9071CF10922B02D5CFCE
:1003A0004F925F926F927F928F929F92AF92BF9285
:1003B000CF92DF92EF92FF92C090CB04D090CC040A
:1003C000E090CD04F090CE04C701B60163D22B01BA
:1003D0003C0120910C0230910D0240910E0250918F
:1003E0000F0226D287FF4DC0F7FC4BC0809004025D
:1003F00090900502A0900602B090070220E030E045
:1004000040E85FE3609108027091090280910A025E
:1004100090910B0295D19B01AC01C301B2013DD378
:1004200087FD33C01092CB041092CC041092CD04FF
:100430001092CE04C501B40136DF6B017C0120E0CF
:1004400030E040E853E4F4D16FEF87FF0CC020E0C8
:1004500030E0A901C701B60120D360E087FD03C0E9
:10046000C701B601E9D18DE0FF90EF90DF90CF900A
:10047000BF90AF909F908F907F906F905F904F90C4
:10048000FDCE812C912C5401B9CF8FEFC81AD80A18
:10049000E80AF80AC092CB04D092CC04E092CD04D2
:1004A000F092CE04C7CFCF92DF92EF92FF921F93CC
:1004B000CF93DF93CFEAD4E018828091000290912D
:1004C0000102A0910202B091030288879987AA874E
:1004D000BB87C12CD12C7601C394C982DA82EB820E
:1004E000FC8260E083E0C3DE11E01D831C86CD86C4
:1004F000DE86EF86F88A61E08CE0B9DE198B1C8A13
:10050000CD8ADE8AEF8AF88E61E08DE0B0DE198F49
:10051000DF91CF911F91FF90EF90DF90CF900895E2
:100520008091AF04811103C081E08093AF0480917A
:10053000BB04811103C081E08093BB048091C3049C
:10054000811103C081E08093C304089526E030E068
:1005500040E855E260E070E090E080E000C081306B
:10056000910569F01CF4892B39F0089582309105CA
:1005700049F0039751F008958BE392E062C588ED4E
:1005800092E0FCCF85E793E0F9CF82E194E0F6CFEB
:100590001F920F920FB60F9211240BB60F922F934A
:1005A0003F934F935F936F937F938F939F93AF93FB
:1005B000BF93EF93FF9386E997EE90932501809385
:1005C000240134D0FF91EF91BF91AF919F918F9112
:1005D0007F916F915F914F913F912F910F900BBE43
:1005E0000F900FBE0F901F90189586E997EE90938D
:1005F000250180932401A3E7B0E08C918E7F8C933A
:10060000E0E2F1E080818C7F8083E1E2F1E08081B3
:10061000877E808380818460808380818C7F8083DB
:100620008C9181608C93089581E00895CF93DF933E
:100630001F921F92CDB7DEB780912E0291E0980FE6
:1006400090932E02882369F021E030E0309331024C
:100650002093300280932E020F900F90DF91CF9164
:100660000895CE01019617DE789464DEF8948091A7
:100670002E02815080932E028A81882389F08091F6
:100680002D0291E0980F90932D02882349F021E0EC
:1006900030E0309331022093300280932D02DCCF82
:1006A00080912D028823C1F280912F028111D4CF35
:1006B00081E080932F02789473DEF89480912D026C
:1006C000815080932D0280912F02815080932F02C0
:1006D000C3CFCF93DF931092D0041092CF048ED269
:1006E00035DFC0911402D091150219821882DBDE29
:1006F000F8947BDF2881398181E0232B09F080E0A9
:100700008093CF04789478948091CF04811107C0AE
:1007100007DFF89490E080E0DF91CF910895288181
:10072000398181E0232B09F480E08093D0049091FB
:10073000D00481E0911180E08093CF0475DFE4CF95
:100740005058BB27AA270ED057C148D130F04DD101
:1007500020F031F49F3F11F41EF43DC10EF4E095FA
:10076000E7FB0AC1E92F59D180F3BA176207730773
:100770008407950718F071F49EF588C10EF4E09592
:100780000B2EBA2FA02D0B01B90190010C01CA014B
:10079000A0011124FF27591B99F0593F50F4503EF6
:1007A00068F11A16F040A22F232F342F4427585FE8
:1007B000F3CF469537952795A795F0405395C9F700
:1007C0007EF41F16BA0B620B730B840BBAF09150B8
:1007D000A1F0FF0FBB1F661F771F881FC2F70EC057
:1007E000BA0F621F731F841F48F48795779567952A
:1007F000B795F7959E3F08F0B3CF9395880F08F013
:100800009927EE0F97958795089529D180F09F3706
:1008100040F491110EF43BC160E070E080E89FE38A
:10082000089526F01B16611D711D811DABC0C5C04A
:100830007FD008F481E00895F8D088F09F5790F0B9
:10084000B92F9927B751A0F0D1F0660F771F881FF5
:10085000991F1AF0BA95C9F712C0B13081F016D1BC
:10086000B1E0089513C1672F782F8827B85F39F05A
:10087000B93FCCF3869577956795B395D9F73EF454
:1008800090958095709561957F4F8F4F9F4F0895FC
:10089000E89409C097FB3EF490958095709561951A
:1008A0007F4F8F4F9F4F9923A9F0F92F96E9BB27D0
:1008B0009395F695879577956795B795F111F8CF4C
:1008C000FAF4BB0F11F460FF1BC06F5F7F4F8F4FB7
:1008D0009F4F16C0882311F096E911C0772321F0AD
:1008E0009EE8872F762F05C0662371F096E8862F45
:1008F00070E060E02AF09A95660F771F881FDAF79C
:10090000880F9695879597F90895A9D080F09F371D
:1009100040F491110EF0BBC060E070E080E89FEB06
:10092000089526F41B16611D711D811D2BC045C045
:10093000990F0008550FAA0BE0E8FEEF16161706F0
:10094000E807F907C0F012161306E407F50798F058
:10095000621B730B840B950B39F40A2661F0232B71
:10096000242B252B21F408950A2609F4A140A695ED
:100970008FEF811D811D089597F99F6780E870E0D2
:1009800060E00895882371F4772321F09850872B35
:10099000762F07C0662311F499270DC09051862B3E
:1009A00070E060E02AF09A95660F771F881FDAF7EB
:1009B000880F9695879597F908959F3F31F091504C
:1009C00020F4879577956795B795880F911D969533
:1009D000879597F908959FEF80EC089500240A9475
:1009E0001616170618060906089500240A9412160A
:1009F0001306140605060895092E0394000C11F43D
:100A0000882352F0BB0F40F4BF2B11F460FF04C0E9
:100A10006F5F7F4F8F4F9F4F089557FD9058440F42
:100A2000551F59F05F3F71F04795880F97FB991F4D
:100A300061F09F3F79F0879508951216130614060A
:100A4000551FF2CF4695F1DF08C016161706180697
:100A5000991FF1CF86957105610508940895E5DF2A
:100A6000A0F0BEE7B91788F4BB279F3860F41616CC
:100A7000B11D672F782F8827985FF7CF86957795D8
:100A80006795B11D93959639C8F30895E894BB27EF
:100A900066277727CB0197F908954ADF08F48FEF8F
:100AA00008950BD0A9CF9ADF28F09FDF18F0952387
:100AB00009F062CF90CF1124EACFAFDFA0F3959F6A
:100AC000D1F3950F50E0551F629FF001729FBB2735
:100AD000F00DB11D639FAA27F00DB11DAA1F649FE1
:100AE0006627B00DA11D661F829F2227B00DA11D94
:100AF000621F739FB00DA11D621F839FA00D611D1A
:100B0000221F749F3327A00D611D231F849F600D3A
:100B1000211D822F762F6A2F11249F5750408AF073
:100B2000E1F088234AF0EE0FFF1FBB1F661F771FFF
:100B3000881F91505040A9F79E3F510570F01CCF7F
:100B4000A6CF5F3FECF3983EDCF3869577956795EB
:100B5000B795F795E7959F5FC1F7FE2B880F911D1D
:100B60009695879597F908951F920F920FB60F9259
:100B700011242F933F938F939F93AF93BF938091B3
:100B8000330290913402A0913502B0913602309137
:100B9000320223E0230F2D3758F50196A11DB11D18
:100BA000209332028093330290933402A093350253
:100BB000B09336028091370290913802A0913902A9
:100BC000B0913A020196A11DB11D80933702909316
:100BD0003802A0933902B0933A02BF91AF919F912E
:100BE0008F913F912F910F900FBE0F901F901895EE
:100BF00026E8230F0296A11DB11DD2CF789484B5AB
:100C0000826084BD84B5816084BD85B5826085BD08
:100C100085B5816085BDEEE6F0E0808181608083EE
:100C2000E1E8F0E0108280818260808380818160D1
:100C30008083E0E8F0E0808181608083E1EBF0E098
:100C4000808184608083E0EBF0E08081816080833C
:100C5000E1E9F0E08081826080838081816080832F
:100C6000E0E9F0E0808181608083E1EAF0E080816A
:100C700082608083808181608083E0EAF0E080810F
:100C800081608083E1E2F1E0808182608083808105
:100C900081608083E0E2F1E0808181608083EAE727
:100CA000F0E08081846080838081826080838081A5
:100CB000816080838081806880831092C100089564
:100CC0008150823108F059C0E82FF0E08827E559BB
:100CD000F94F8F4F95C48B068F067D0683068706D6
:100CE000BD06920698069C06A206A606AA06B006AF
:100CF000B406BD06B806BE06C206809180008F7796
:100D0000809380000895809180008F7DF9CF80913D
:100D10008000877FF5CF84B58F7784BD089584B533
:100D20008F7DFBCF8091B0008F778093B0000895C6
:100D30008091B0008F7DF9CF809190008F77809364
:100D400090000895809190008F7DF9CF8091900060
:100D5000877FF5CF8091A0008F778093A0000895C2
:100D60008091A0008F7DF9CF8091A000877FF5CF83
:100D7000809120018F778093200108958091200138
:100D80008F7DF9CF80912001877FF5CFCF93DF93BF
:100D900090E0FC01E65DFE4F249180599E4FFC01DE
:100DA00084918823C9F090E0880F991FFC01E651D7
:100DB000FE4FA591B491FC01E053FE4FC591D49133
:100DC00061110DC09FB7F8948C91209582238C936C
:100DD0008881282328839FBFDF91CF9108956230B7
:100DE00051F49FB7F8943C91822F809583238C9384
:100DF000E8812E2BEFCF8FB7F894EC912E2B2C930C
:100E00008FBFEACF1F93CF93DF93282F30E0F901F4
:100E1000EC51FF4F8491F901E65DFE4FD491F90149
:100E2000E059FE4FC491CC23A1F0162F811148DF69
:100E3000EC2FF0E0EE0FFF1FE053FE4FA591B491B1
:100E40008FB7F894EC91111108C0D095DE23DC9394
:100E50008FBFDF91CF911F910895DE2BF8CFCF93F5
:100E6000DF93282F30E0F901EC51FF4F8491F90115
:100E7000E65DFE4FD491F901E059FE4FC491CC23B9
:100E800099F081111DDFEC2FF0E0EE0FFF1FEA5407
:100E9000FE4FA591B491EC91ED2381E090E009F42F
:100EA00080E0DF91CF91089580E090E0FACFFC01DF
:100EB000918D228D892F90E0805C9F4F821B91093C
:100EC0008F7399270895FC01918D828D981731F0C9
:100ED000828DE80FF11D858D90E008958FEF9FEFD3
:100EE0000895FC01918D828D981761F0A28DAE0F4F
:100EF000BF2FB11D5D968C91928D9F5F9F73928FD6
:100F000090E008958FEF9FEF0895FC01538D448D7D
:100F1000252F30E0842F90E0821B930B541710F0A4
:100F2000CF96089501970895FC01A48DA80FB92FBD
:100F3000B11DA35ABF4F2C91848D90E001968F7301
:100F40009927848FA689B7892C93A089B1898C9120
:100F5000837080648C93938D848D981306C002886F
:100F6000F389E02D80818F7D80830895CF93DF9377
:100F7000EC01888D8823B1F0AA89BB89E889F989B9
:100F80008C9185FD03C0808186FD0CC00FB607FCE7
:100F9000F7CF8C9185FFF2CF808185FFEDCFCE0119
:100FA000C3DFEACFDF91CF910895EF92FF920F93C5
:100FB0001F93CF93DF93EC0181E0888F9B8D8C8D05
:100FC00098131AC0E889F989808185FF15C09FB7F9
:100FD000F894EE89FF896083E889F98980818370BC
:100FE000806480839FBF81E090E0DF91CF911F916B
:100FF0000F91FF90EF900895F62E0B8D10E00F5F8C
:101000001F4F0F731127E02E8C8D8E110BC00FB662
:1010100007FCFACFE889F989808185FFF5CFCE01F9
:1010200083DFF2CFEB8DEC0FFD2FF11DE35AFF4F65
:10103000F0829FB7F8940B8FEA89FB8980818062E8
:10104000D0CFCF92DF92EF92FF921F93CF93DF9397
:10105000EC016A017B01122FE889F98982E0808323
:10106000C11481EED806E104F10499F060E079E062
:101070008DE390E0A7019601A1D2215031094109E9
:1010800051095695479537952795211580E13807E1
:1010900090F0E889F989108260E874E88EE190E0C8
:1010A000A70196018BD2215031094109510956956A
:1010B000479537952795EC85FD853083EE85FF852F
:1010C0002083188EEC89FD891083EA89FB89808151
:1010D00080618083EA89FB89808188608083EA89D6
:1010E000FB89808180688083EA89FB8980818F7D8C
:1010F0008083DF91CF911F91FF90EF90DF90CF9091
:1011000008951F920F920FB60F9211240BB60F92F3
:101110002F938F939F93EF93FF93E0914B02F09166
:101120004C028081E0915102F091520282FD1DC07B
:101130009081809154028F5F8F73209155028217A6
:1011400041F0E0915402F0E0E55CFD4F958F809313
:101150005402FF91EF919F918F912F910F900BBEB1
:101160000F900FBE0F901F9018958081F2CF1F92A5
:101170000F920FB60F9211240BB60F922F933F933D
:101180004F935F936F937F938F939F93AF93BF938F
:10119000EF93FF938BE392E0C7DEFF91EF91BF9156
:1011A000AF919F918F917F916F915F914F913F91FF
:1011B0002F910F900BBE0F900FBE0F901F901895A0
:1011C000EBE3F2E01382128288EE93E0A0E0B0E05D
:1011D00084839583A683B7838AE192E09183808399
:1011E00085EC90E09587848784EC90E097878687EC
:1011F00080EC90E0918B808B81EC90E0938B828BE4
:1012000082EC90E0958B848B86EC90E0978B868BBC
:10121000118E128E138E148E08951F920F920FB698
:101220000F9211240BB60F922F938F939F93EF93EE
:10123000FF93E091E802F091E9028081E091EE02F3
:10124000F091EF0282FD1DC090818091F1028F5FCD
:101250008F732091F202821741F0E091F102F0E0E9
:10126000E852FD4F958F8093F102FF91EF919F918E
:101270008F912F910F900BBE0F900FBE0F901F906C
:1012800018958081F2CF1F920F920FB60F92112402
:101290000BB60F922F933F934F935F936F937F9370
:1012A0008F939F93AF93BF93EF93FF9388ED92E05B
:1012B0003BDEFF91EF91BF91AF919F918F917F9115
:1012C0006F915F914F913F912F910F900BBE0F90B7
:1012D0000FBE0F901F901895E8EDF2E01382128276
:1012E00088EE93E0A0E0B0E084839583A683B78383
:1012F0008AE192E0918380838DEC90E095878487EA
:101300008CEC90E09787868788EC90E0918B808BBF
:1013100089EC90E0938B828B8AEC90E0958B848BA8
:101320008EEC90E0978B868B118E128E138E148E1E
:1013300008951F920F920FB60F9211240BB60F92C1
:101340002F938F939F93EF93FF93E0918503F091F9
:1013500086038081E0918B03F0918C0382FD1DC098
:10136000908180918E038F5F8F7320918F038217FE
:1013700041F0E0918E03F0E0EB58FC4F958F8093A5
:101380008E03FF91EF919F918F912F910F900BBE44
:101390000F900FBE0F901F9018958081F2CF1F9273
:1013A0000F920FB60F9211240BB60F922F933F930B
:1013B0004F935F936F937F938F939F93AF93BF935D
:1013C000EF93FF9385E793E0AFDDFF91EF91BF913E
:1013D000AF919F918F917F916F915F914F913F91CD
:1013E0002F910F900BBE0F900FBE0F901F9018956E
:1013F000E5E7F3E01382128288EE93E0A0E0B0E02C
:1014000084839583A683B7838AE192E09183808366
:1014100085ED90E09587848784ED90E097878687B7
:1014200080ED90E0918B808B81ED90E0938B828BAF
:1014300082ED90E0958B848B86ED90E0978B868B88
:10144000118E128E138E148E08951F920F920FB666
:101450000F9211240BB60F922F938F939F93EF93BC
:10146000FF93E0912204F09123048081E09128040D
:10147000F091290482FD1DC0908180912B048F5F23
:101480008F7320912C04821741F0E0912B04F0E03F
:10149000EE5EFB4F958F80932B04FF91EF919F9110
:1014A0008F912F910F900BBE0F900FBE0F901F903A
:1014B00018958081F2CF1F920F920FB60F921124D0
:1014C0000BB60F922F933F934F935F936F937F933E
:1014D0008F939F93AF93BF93EF93FF9382E194E039
:1014E00023DDFF91EF91BF91AF919F918F917F91FC
:1014F0006F915F914F913F912F910F900BBE0F9085
:101500000FBE0F901F901895E2E1F4E01382128253
:1015100088EE93E0A0E0B0E084839583A683B78350
:101520008AE192E09183808385E391E095878487C7
:1015300084E391E09787868780E391E0918B808BAD
:1015400081E391E0938B828B82E391E0958B848B96
:1015500086E391E0978B868B118E128E138E148EFC
:101560000895AF92BF92CF92DF92EF92FF920F93C6
:101570001F93CF93DF936C017B018B01040F151F29
:10158000EB015E01AE18BF08C017D10759F0699191
:10159000D601ED91FC910190F081E02DC6011995E5
:1015A000892B79F7C501DF91CF911F910F91FF90A2
:1015B000EF90DF90CF90BF90AF900895A1E21A2EE8
:1015C000AA1BBB1BFD010DC0AA1FBB1FEE1FFF1FE7
:1015D000A217B307E407F50720F0A21BB30BE40B37
:1015E000F50B661F771F881F991F1A9469F760957E
:1015F0007095809590959B01AC01BD01CF01089538
:10160000EE0FFF1F881F8BBF0790F691E02D1994F6
:04161000F894FFCF7C
:10161400CDCCCC3D0000803F000000400000803F66
:1016240000000000280200000000D507B10A850769
:08163400B607570771076307B1
:00000001FF
